:1000000000000420B5020000DD020000DF02000055
:10001000E1020000E3020000E50200000000000031
:10002000000000000000000000000000E7020000E7
:10003000E902000000000000EB020000ED020000F9
:10004000DD23000005B40000017F0000EF02000086
:10005000EF020000EF020000E1270000EF020000C5
:10006000EF020000EF020000EF020000EF020000CC
:10007000EF020000C97B0000EF020000EF02000069
:10008000EF02000051100000EF020000EF0200003C
:10009000F1100000EF020000EF020000EF0200008C
:1000A000EF020000EF020000EF020000EF0200008C
:1000B000EF020000EF02000000000000000000005E
:1000C000EF020000EF020000EF020000EF0200006C
:1000D00025740000EF020000EF020000EF020000B4
:1000E000EF020000EF020000EF020000000000003D
:1000F00000000000EF02000000000000EF0200001E
:1001000000000000000000000000000000000000EF
:1001100000000000000000000000000000000000DF
:1001200000000000000000000000000000000000CF
:1001300000000000000000000000000000000000BF
:1001400000000000000000000000000000000000AF
:10015000000000000000000000000000000000009F
:10016000000000000000000000000000000000008F
:10017000000000000000000000000000000000007F
:10018000000000000000000000000000000000006F
:10019000000000000000000000000000000000005F
:1001A000000000000000000000000000000000004F
:1001B000000000000000000000000000000000003F
:1001C000000000000000000000000000000000002F
:1001D000000000000000000000000000000000001F
:1001E000000000000000000000000000000000000F
:1001F00000000000000000000000000000000000FF
:1002000010B5054C237833B9044B13B10448AFF350
:1002100000800123237010BD1802002000000000A0
:100220008C04010008B5034B1BB103490348AFF32D
:10023000008008BD000000001C0200208C040100AA
:10024000154B002B08BF134B9D46A3F5803A0021A8
:100250008B460F461348144A121A0CF002FA0F4B41
:10026000002B00D098470E4B002B00D09847002061
:10027000002104000D000D48002802D00C48AFF307
:1002800000800CF073F92000290002F06FFF0CF0E1
:1002900047F900BF00000800000004200000000033
:1002A00000000000180200204C2700200000000081
:1002B000000000000649074A074B9B1A03DD043B78
:1002C000C858D050FBDC03F0B7F8FFF7B9FF0000C7
:1002D000DC0401000000002018020020FEE7FEE719
:1002E000FEE7FEE7FEE7FEE7FEE7FEE7FEE7FEE7E6
:1002F000074B1B5C1F2B8ABF064A4FF0A04203F03E
:100300001F03D2F80405D840C04300F00100704735
:100310005CDF000000030050074B1B5C1F2B86BFF7
:1003200003F01F0305494FF0A041012202FA03F335
:10033000C1F80C35704700BF5CDF000000030050BF
:10034000074B1B5C1F2B86BF03F01F0305494FF0B3
:10035000A041012202FA03F3C1F80835704700BF3B
:100360005CDF0000000300504FF0A0434FF480001A
:100370004FF400014FF08072C3F80805C3F8081568
:10038000C3F80825704700BF4FF0A0434FF480002A
:100390004FF400014FF08072C3F80C05C3F80C1540
:1003A000C3F80C25704700BF0A4B195C1F298ABF90
:1003B00009484FF0A04001F01F01D0F80435012298
:1003C0008A4022EA03011340C0F80815C0F80C3532
:1003D000704700BF5CDF000000030050203818BFEA
:1003E0004FF0FF30704700BFC10706D4830742BFFC
:1003F000114B0C22C3F8002770474FF0A043032293
:1004000030B44FF08071C3F858274FF48005C3F81B
:100410005C274FF40004C3F860278207C3F808552F
:10042000C3F80845C3F8081503D5034B0C22C3F8DD
:10043000002730BC704700BF00030050704700BF6A
:1004400000B583B0044B0093044A402300F034F815
:1004500003B05DF804FB00BF610400003802002017
:1004600002B32DE9F843114B114E8846144643F070
:10047000010903270025224608EB0501002002F0B0
:10048000C1FE03461D444FF47A40E41A23B9337881
:1004900033B1C847013F06D001233370002CEAD1A5
:1004A000BDE8F88370473770BDE8F88360DF00006F
:1004B00034020020704700BFF0B595B00024154607
:1004C0000F4608461E4601F0BDFD384623460895F6
:1004D000082205A91A9D09960D950A948DF82C40BD
:1004E0000C9401F009FE9DF814308DF81140DDE9FF
:1004F000061003F00302012ACDE9020127D0022AE7
:1005000004D0384601F0A2FD15B0F0BDBDF816507C
:10051000C3F3C2038DF81030AD090826082D2C4610
:1005200028BF0824334622460EA9384601F0E4FDD0
:100530002D1B214608AB02AA0EA8264400F03EFB64
:10054000002DEBD1384601F081FD15B0F0BDBDF8AE
:100550001460059DC6F38316C3F3C204B2000EA94E
:10056000384608238DF81040C5F3952501F0C4FDE9
:1005700008AB324628460EA9009302AB00F078FA89
:10058000384601F063FD15B0F0BD00BFF0B5324C48
:1005900085B004F5836001F091F804F2144001F095
:1005A0008DF8D4E9013703EA0702D01C04EB80017F
:1005B00014F8200010F0040044D003F1020C0E786F
:1005C00006F00306012E654635D0022E02F1030621
:1005D00021D004EB86010028F1D104EB8202013323
:1005E000D26801923B4004EB830302F00302012A2C
:1005F000DE6829D0022A23D1BDF806309B090333D7
:10060000360C05EB9305154801F064F800B1656000
:10061000304605B0F0BD4B880CEB931307EA03029C
:10062000D11C03F1020C14F82100654604EB810192
:1006300000F00400CFE70B88C3F383136344EDE7B6
:100640000026E0E79D1CC8E7BDF80430C3F3831320
:10065000360C1D44D7E700BF480300205C0700208C
:1006600021B9124B03EBC00000687047104A0F49D4
:10067000521AD20815D030B40E4D2B88834212D0B6
:10068000002303E035F82340844205D001339A4229
:10069000F8D1002030BC704701EBC300006830BCCB
:1006A0007047104670470846F8E700BF9004010005
:1006B000B004010014020020094B013903EBC00013
:1006C00003290BD8DFE801F0020806040220704776
:1006D00040797047007970470420704700207047C8
:1006E000900401002DE9F843DFF8D8900746002078
:1006F0008846D9F8084000F0ADFFD9E90132D9F8B1
:100700000060134401339B1B012B56D809F21C4592
:100710000121284600F0BAFFFFF738FF01462846BE
:1007200000F0B4FFD9E90132D9F8001013440133C5
:100730005B1A012BECD90A40033205230231002059
:1007400049F82230C9F8001000F08CFF00211C4845
:1007500000F092FF80F31000731C234009EB830329
:1007600000043440033440EA1740D86019F82430BC
:1007700067F3C50309F8243039F824306FF389137F
:1007800029F8243059F8242068F39F2213460121C8
:1007900061F301036FF3820349F8242009F8243040
:1007A00099F820341BB906E000F00EF818B1D9E929
:1007B00000329A42F8D1BDE8F8833146BBE700BF6A
:1007C00064070020480300202DE9F047914C0023E6
:1007D00084B0C4F81834BFF34F8FD4E9015605EA4A
:1007E0000602D31C04EB830114F82330580719D5F3
:1007F00027680B7803F00303012B43D0022B03D1AE
:100800004B88023505EB931506EA0502D4F8180467
:10081000D31C04EB830128B9AF4239D914F8233033
:100820005B07E6D404EB82026B1CD2680192334072
:1008300004EB830302F00302DB680293022A05F152
:10084000020700F08980012A26D0D4F810543DB167
:100850002B6828469B689847EB681D68002DF7D1E8
:100860006D486E4B6E49C01AC008000440F002008B
:10087000FFF738FFD4E90030C01A18BF012004B0D8
:10088000BDE8F0870B880235C3F383131D44BBE733
:10089000676004B0BDE8F087BDF804206148C2F38A
:1008A0008313062B28BF062363F3891202339900B2
:1008B000ADF8042001F084FB80460028C5D001F08B
:1008C000C1FB0023082201A9404601F0E1FBBDF86D
:1008D000043013F4707F00F09B806FF0010AAAEBE4
:1008E000050A082506EA070103312B46042204EB1A
:1008F0008101404601F0CCFBBDF8043007F101094D
:100900000AEB0902C3F3831393424F4605F1040532
:10091000E8D8D4F81834002B64D1D4F8105465B159
:10092000EB685A7928464146002A57D02B681B6845
:100930009847EB681D68002DF2D1404601F086FB18
:10094000002000F087FED4F818340BB9C4F80490E6
:10095000002000F087FE8DE7BDF8063031484FEAF1
:1009600093194D46502D28BF502565F38F1305F17F
:100970000801ADF8063001F023FB804600283FF463
:1009800064AF26EA070A0AF1010A01F05BFB4FEAAD
:100990008A0A0023082201A9404601F079FB554547
:1009A0002BD9EBB2BAF1000F20D006EA0701A3EB76
:1009B0000A03033104EB8101DDB2524608234046AD
:1009C00001F066FB2A460AF108031749404601F088
:1009D0005FFB09F1030907EB99099AE71D68002DF0
:1009E0009ED1AAE7404601F031FB43E72A4608239F
:1009F0000D49404601F04CFBEBE706EA07010331E5
:100A000004EB81012A460823404601F041FBE0E760
:100A1000B9467EE748030020A004010090040100CD
:100A200084DF0000C004010054030020044BD3E91C
:100A300000239A4201D0FFF7C7BE0020704700BFD5
:100A40004803002038B5094BD3F81044012583F83A
:100A500020544CB1E3685D71236820465B68984779
:100A6000E3681C68002CF5D138BD00BF48030020A6
:100A70002DE9F04784B01D460C9C002394F80C80AF
:100A80002373EB8881460E461746002B40D1297A06
:100A900005290ED06B7AA88873BB404B53F821A070
:100AA0000021FFF7DDFD524603463D49204600F098
:100AB00061FE062F09D8DFE807F0046A4249525D5B
:100AC00033004946204600F055FE2B7A052B05D011
:100AD0006B7A5BB93349204600F04CFE204600F0AB
:100AE0003DFE84F80C8004B0BDE8F0872E4A2F4903
:100AF000204600F03FFEEDE7FFF7DEFD2C4B2B49D3
:100B000053F82020204600F035FE297AA888C4E753
:100B1000254A00922749284A204600F02BFEB6E7D6
:100B2000D6E90410D6E900230390D6E90207029122
:100B3000CDE900074946204600F01CFEC5E74946BE
:100B4000D6E90023204600F015FEBEE7B168D6E9DD
:100B5000002320460091494600F00CFEB5E7D6E997
:100B60000201D6E90023019100904946204600F099
:100B700001FEAAE7D6E90371B068D6E90023029125
:100B8000CDE900074946204600F0F4FD9DE73268B4
:100B90004946204600F0EEFD97E700BF10E0000058
:100BA00000E000000CE00000F4DF0000FCDF0000CB
:100BB0009CDF0000DCDF0000D4DF0000082900D942
:100BC00070472DE9F04F1D46904600232A7B2B737A
:100BD00085B0B8F80630039207460E46002B7BD14D
:100BE00098F80810052911D098F80930B8F80400D1
:100BF000002B63D13C4B53F821400021FFF730FD1F
:100C0000224603463949284600F0B4FDDFF8FCB01F
:100C1000DFF8FC90002405E03A5D013400F0AAFD05
:100C2000082C09D0A64249462846F5D85946013431
:100C300000F0A0FD082CF5D12D49DFF8D8B0DFF881
:100C4000D890284600F096FD00240CE017F804A088
:100C5000BAF17E0F23D92E2249462846013400F0EE
:100C600089FD082C08D0A642F0D859462846013400
:100C700000F080FD082CF6D198F80830052B02D042
:100C800098F80930A3B91B49284600F073FD28469F
:100C900000F064FD039B2B7305B0BDE8F08F0BF0F3
:100CA0008DFC50445246437813F0970FD3D0D3E7CE
:100CB000114A1249284600F05DFDE4E7FFF7FCFC0D
:100CC0000F4B0E4953F82020284600F053FD98F8AA
:100CD0000810B8F804008DE7074A009209490A4A4B
:100CE000284600F047FD7BE710E0000000E0000030
:100CF000CCDF00000CE00000F4DF0000FCDF0000AF
:100D00009CDF0000DCDF0000D4DF0000C8DF000053
:100D1000C0DF000008E00000D0DF0000434B19787E
:100D2000002900F081802DE9F04F002487B00125D3
:100D30008E4603E00134E4B2744560D23C4B27B2E6
:100D40001E6816F837C0ACF1200205FA02F9394ADC
:100D5000CCF12003D2E9000125FA03F349EA0309A3
:100D600005FA0CF800EA080201EA0903134306EB4E
:100D7000C70BDFD021EA09032E4920EA08026046AA
:100D8000C1E9002301F01CFD16F837C0ACF12002C8
:100D900005FA02F201920199CCF12003C6B225FABC
:100DA00003F3ACF12002194306FA02F30393224B3A
:100DB0000191D3E90023CDE9042305FA0CF3009354
:100DC000CCF12001039B26FA01F10B43039306FAB1
:100DD0000CF30293DDE90467DDE9002316401F40B0
:100DE00032463B46DDE90267BB4208BFB24209D04A
:100DF0000E4B013493F800E0E4B274459ED307B083
:100E0000BDE8F08F9BF80110DBF80430A1F101017F
:100E1000B1FA81F14909091AB1FA81F14909002BA6
:100E2000E6D060469847E3E7704700BF6C070020B4
:100E3000A8070020A0070020980700202DE9F84F00
:100E40000646244800F0D2FBD8B9234F0123A6F16F
:100E5000200103FA01FBC6F12002D7E9000123FAC1
:100E600002F24BEA020B03FA06FA00EA0A0201EA6E
:100E70000B03134307D020EA0A0421EA0B05C7E954
:100E80000045BDE8F88F304601F09AFC134ED6E9D4
:100E90000089C8B148EA0A0349EA0B049846A1460A
:100EA000D7E900234BEA03050D4B0A4819684AEAC3
:100EB00002044B464246C6E90023C7E9004500222A
:100EC000BDE8F84F00F044BB28EA0A0829EA0B09FC
:100ED000E6E700BF74070020A00700209807002065
:100EE00070070020042A36D92DE9F04182B00E4661
:100EF0000546144601F0EEFA002836D01D491E4A78
:100F00001E4B0D601E481F491C60167000230022F6
:100F1000741EC0E90023C1E90023E4B2EEB105EB81
:100F2000C404194F083D4FF00008032601E0AC420D
:100F300013D0A37820788DF806803A4601A98DF861
:100F400004608DF8053001F0CFFA083C0028EED09F
:100F500002B0BDE8F081072070470C4A0C48002120
:100F600000F0E4FA02B0BDE8F08101F069FA00286F
:100F7000C4D0EDE7A80700206C0700207007002010
:100F800098070020A00700203D0E00001D0D000066
:100F90007CE0000070B5084D2B785BB1074E002453
:100FA0003368012113F8340001F08EFB2B780134F3
:100FB000A342F5D8002070BD6C070020A8070020D0
:100FC00000B585B000230390194601AA44F2010040
:100FD000CDE9013300F004F805B05DF804FB00BF73
:100FE00010B572B6FFF72EFDFFF720FD0028FBD1EC
:100FF000104B114C1149E41AE408240444F0010098
:10100000FFF770FB0E4B1B68DB0700D500BE44F0FA
:1010100002000C49FFF766FBBFF34F8F0A490B4BE9
:10102000CA6802F4E0621343CB60BFF34F8F00BF86
:10103000FDE700BF90040100A004010080E0000073
:10104000F0ED00E08CE0000000ED00E00400FA05A7
:10105000F8B5204A204B0024C2F84041C2F8444170
:10106000C2F84841C2F84C41C2F80041C2F80441FC
:101070001B6833B31949D2F804550A68AD1A1A68C7
:1010800025F07F45AA4227460DD8197CDE69AD1AA6
:10109000144419B11F74D3E9052090471EB133469B
:1010A0001A68AA42F1D90E490E4A0B7812789A4270
:1010B00008D00D490D4A41F823404FF48013C2F87F
:1010C0000031F8BD531CDBB2022B08BF00230B70AC
:1010D000EFE700BF00100140CC080020C808002046
:1010E000C5080020C4080020BC08002000E100E082
:1010F0002DE9F04F8C4A8D4913780978DFF850823A
:10110000994285B0D8F800A000F07B810133DBB2B2
:10111000022B08BF002386481370864A076852F8DE
:1011200023107B1823F07F43002403605346264698
:101130002046A446ABB11A688A4200F26581DC6899
:10114000C3F800C0891A1044DA6934B13D1825F09B
:101150007F45C3E90154DE611E4613460124002B7E
:10116000E9D1002C40F07C8101230093724B734F36
:10117000DFF8E09143F00103019355464FF0000B77
:1011800046B3D6E901C13446F669694B6C481A6822
:10119000ACEB020323F07F43834248D80B44236027
:1011A00000220121C4E90122E2612174002D5DD0F9
:1011B0002A689A424DD2284603E00A689A424FD2E2
:1011C0000846C1699B1A0029F7D12360E161C46117
:1011D000002ED6D178783978884264D00B4603EB5C
:1011E00043034C1CBA7807EBC303E1B28A421A7975
:1011F000397004BF00213970022A9C6844D0032A48
:1012000038D0012AE8D1227C002AE5D1D3F80CC0DD
:10121000C4F804C01969A1605869E06099F8000039
:101220009B69A3610028B0D062609446ADE7A2EB51
:101230000C0222F07F428A4202D28B1A2360AFE76F
:1012400000230122C4E90033A360E36122746DB17D
:101250002A68C8F80040D31A2B60E56125468FE75D
:10126000D21A0A602360E161C461B1E7C8F80040A6
:10127000254685E7002DAFD000232B74ED69002DA6
:10128000FBD1C8F80050A5E74DB1AC422B4603D1C5
:10129000E4E094422FD01346DA69002AF9D1002302
:1012A000237488429AD1BBF1000F01D1554553D028
:1012B000002D56D1234E244A1F4C4FF480334FF457
:1012C00000310127C2F880103C43C6F848334FF480
:1012D0003C60C6F808337760A047154BB7604FF401
:1012E0003C601D60A047194B1D70002389F8003039
:1012F00005B0BDE8F08FA34200F09180E06921685D
:10130000D861002800F086802A4603680B440360F9
:10131000AA424FF000033978787823741CBF154631
:101320004FF0010BBDE700BFC4080020C508002036
:10133000C8080020BC080020A0E00000AC07002086
:10134000FEFF7F000010014000E100E0B90800202E
:10135000CC080020B8080020009B002BC5D0002D31
:10136000A8D0434B434A1C68D2F80465424FD5F8D5
:1013700000A03978331B23F07F43DD1CB9B93F4906
:101380003F4B4FF48030C2F844034FF00108C2F8DD
:1013900004034FF40030C1F8800143F001030860FA
:1013A000C2F800804FF43C60984787F80080AA4557
:1013B0002CBF04EB0A0363192E4923F07F43C1F8C5
:1013C0004035D1F80425921B9B1B22F07F4223F06D
:1013D0007F4303329A4288D9294BD1F80425C1F8BA
:1013E000402543F001034FF43C609847234B4FF4F2
:1013F0000032C3F80021002389F8003005B0BDE8B1
:10140000F08F00260096B1E674BB521A1A600123D1
:101410000093ABE6002339787878237441E71946C6
:10142000EA69C8F8002092B9CDE90231114BDFF822
:1014300040C001209860019B89F80000CCF8002092
:101440004FF43C609847DDE90231D8F80020C869C4
:101450000968D86100287FF458AF59E72946DFE7CB
:10146000C8F800309A467FE6C8F800309A46CCE7C4
:10147000C808002000100140B908002000E100E089
:10148000A0E000002DE9F8431F4D204E204FDFF86B
:1014900098804FF480334FF400324FF0010900245C
:1014A000C6F8802047EA0907C5F848334FF43C6086
:1014B000C5F80833C5F80490B847C5F808904FF44C
:1014C0003C60C8F80040B847124A134B13491C60EF
:1014D0001470134B134A0C700B2114701C809970FC
:1014E0004FF48012C023C6F8802186F8143332608E
:1014F000C5F8084586F81133D5F80435C8F800302A
:101500002046BDE8F88300BF0010014000E100E084
:10151000A0E00000B9080020CC080020C40800208A
:10152000AC070020C5080020C8080020074B9B78A6
:101530004BB132B128B10368187C20B959745A6193
:101540007047072070470820704700BFAC07002095
:101550002DE9F843224CA378002B35D0002833D056
:10156000042934D943697BB3437C0646012B4FF0F1
:1015700000000CBF884680461746894600F06AF88E
:101580006378A17822785D1CEDB2A94208BF0025DE
:10159000AA421FD003EB430304EBC3030121114A0A
:1015A0009E601971D2F80425DA600020C3E904981E
:1015B0009F61657000F056F80B4B4FF48012C3F832
:1015C00000210020BDE8F8830820BDE8F88307204B
:1015D000BDE8F883002000F045F80420F2E700BFE2
:1015E000AC0700200010014000E100E070B5174D8D
:1015F000AB7823B318B343690BB3002404740646D5
:10160000204600F027F86A78A8782978531CDBB2C6
:10161000984208BF2346994213D002EB420205EBE1
:10162000C20202219660204611716B7000F01AF818
:10163000074B4FF48012C3F80021204670BD0820EC
:1016400070BD204600F00EF8042070BDAC070020ED
:1016500000E100E072B6024A13680133136070477C
:10166000D0080020034A1368013B136003B962B637
:10167000704700BFD008002050E8002F0B4640E81C
:10168000003C9CF0000FF7D11046704750E8003F37
:1016900003EB010240E8002C9CF0000FF6D110464D
:1016A000704700BF50E8003FA3EB010240E8002C68
:1016B0009CF0000FF6D11046704700BF012350E8A0
:1016C000002F42EA030C40E800C191F0000FF6D170
:1016D00060467047002350E800CF0CEA030240E860
:1016E000002191F0000FF6D16046704738B50446EE
:1016F0000020FFF7AFFFD4E900311A688A4215D9FC
:10170000511E19602168A3680868258A12F8012C07
:10171000E4681B1A0879DBB2984205FB024400D248
:101720000B710020FFF79EFF204638BD0024F8E72C
:1017300038B5054600200C46FFF78CFF2A68136871
:10174000591C1160E9682A8A641AB4FBF2F41C700F
:101750000020BDE83840FFF785BF00BF826842B176
:1017600010B5044643690168006998470023A360E7
:1017700010BD70470EB400B582B0039929B102AA1A
:1017800004AB42F8043D00F0A9F802B05DF804EBA8
:1017900003B070472DE9F04F924683B051450F4694
:1017A00005461E46DDE90CB2C0F092800B464FF0B4
:1017B0000108B3FBFAF39A4508F10108F9D9B045DD
:1017C00038BFB04612F00109A96802D1BBF1000F81
:1017D00054D1012402E0013E0AFB04F4012EFAD8A0
:1017E000B7FBF4F08245F7D93B4E02E0A968B7FB9E
:1017F000F4F0335C2A680A2B04FB107702EB010E2D
:1018000001F1010029D0A8608EF80030D5E901313E
:10181000994202D32846FFF7A1FFB4FBFAF4002C4B
:10182000E4D1B9F1000F15D0BBF1000F12D0C345C0
:1018300010D92024AB682A68591CA960D454D5E972
:1018400001329A420BF1FF3B14D2BBF1000F01D0E1
:10185000C345EFD103B0BDE8F08FA8604FF00D0095
:101860005054D5E9011088421DD2296801EB000EC1
:101870000130C8E72846FFF771FFE6E7930722D457
:101880002024C345A5D92B684A1CAA605C54D5E91D
:10189000013199420BF1FF3B10D2BBF1000F98D000
:1018A000C345F0D195E728460193FFF757FFAA6893
:1018B0002968019B501C01EB020EA4E72846FFF7A4
:1018C0004DFFA968E9E7002E0CBF30242024D8E79B
:1018D0004FF0010873E700BFA8E00000002900F006
:1018E000B9822DE9F04F054687B091460C460E7837
:1018F000DFF8C8A64FF00D0B13E0AB6828680A2E7E
:1019000003F1010200EB030100F04B82AA600E70AC
:10191000D5E901329A4280F01B812678002E00F032
:101920001E810134002E00F01A81252EE5D12346B8
:10193000002713F8012B2D2A00F0E380302A00F055
:10194000E4802B2A00F0D4802A2A00F00D81A2F135
:101950003006F1B2092903D97DE2A1F13006034630
:10196000184606EB860110F8012BA2F13004092C71
:1019700002EB4101F1D92E2A00F002814FF000085C
:10198000013301E013F8012B02F0FB0168291C462A
:10199000F8D0253A532AC0D801A353F822F000BF4B
:1019A0008B1D00001B1900001B1900001B190000F3
:1019B0001B1900001B1900001B1900001B19000057
:1019C0001B1900001B1900001B1900001B19000047
:1019D0001B1900001B1900001B1900001B19000037
:1019E0001B1900001B1900001B1900001B19000027
:1019F0001B1900001B1900001B1900001B19000017
:101A00001B1900001B1900001B1900001B19000006
:101A10001B1900001B1900001B1900001B190000F6
:101A20001B1900001B1900001B1900001B190000E6
:101A30001B1900001B1900001B1900001B190000D6
:101A40001B1900001B1900001B1900001B190000C6
:101A50001B1900001B1900001B1900001B190000B6
:101A60001B1900001B1900001B1900006F1D00004E
:101A70001B1900001B1900001B1900001B19000096
:101A80001B1900001B1900001B1900001B19000086
:101A90001B1900001B190000131B0000F51C00009F
:101AA0001B1900001B1900001B1900001B19000066
:101AB000F51C00001B1900001B1900001B19000079
:101AC0001B1900001B1900001B1900005D1C000001
:101AD0001B1900001B190000D51B00001B1900007A
:101AE000B91B00001B1900001B1900006F1D00002E
:101AF00047F004071C46234613F8012B2D2A7FF4D8
:101B00001DAF47F001071C46F5E747F002071C46EA
:101B1000F1E7D9F800301A1DC9F800201E78AB682B
:101B20000A2E0CD12A68591CA96002F803B0D5E925
:101B30000123934203D32846FFF710FEAB682A68BF
:101B4000591CA960D654D5E901329A42FFF4E5AE9A
:101B50002846FFF703FE2678002E7FF4E2AE2B7BAB
:101B600023BB07B0BDE8F08FD9F80020111DC9F8DC
:101B70000010166862782E2A04F102007FF4FEAE8F
:101B80005A78A2F13003092B00F2BD814FF0000812
:101B900008EB880802EB480810F8012FA2F1300387
:101BA000092BA8F13008F3D90346E9E6284607B027
:101BB000BDE8F04FFFF7D2BDD9F800301A1DC9F8C3
:101BC000002019680197434600960A222846FFF72D
:101BD000E1FDA2E6D9F800301A1DC9F80020D3F8BB
:101BE0000080FB0700F1E880B8F1000F00F0A18150
:101BF00040460BF0A3F80746BE4215D9A6B12021F6
:101C000000E08EB1AA682B68501CA8609954D5E9F1
:101C100001329A4206F1FF3604D328460391FFF7BA
:101C20009DFD0399BE42ECD108F1FF3818F8016F11
:101C3000002E3FF472AEAB6828680A2E03F1010251
:101C400000EB030100F09081AA600E70D5E901322B
:101C50009A42EBD32846FFF781FDE7E7D9F8002049
:101C6000131DC9F80030AB6829681768581C30226A
:101C7000A860CA54D5E90123934280F0E6802A681F
:101C8000581C7821A860D154D5E90123934280F0F3
:101C9000D7800F2F03D93A4612090F2AFCD84FF0EC
:101CA00080560DE0AA6081F80080D5E901329A42A1
:101CB00002D32846FFF752FD36093FF42EAEAB683B
:101CC000B7FBF6F21AF802802868B8F10A0F06FB93
:101CD000127700EB030103F10102E3D1AA6000F8DF
:101CE00003B0D5E901329A4280F049812B689918F6
:101CF0000132D7E7D9F800301A1DC9F80020196859
:101D000081EAE173A3EBE173092B40F30E81AA484A
:101D10000122A0FB03C3DB08092B02F10102F8DC5E
:101D20004245134638BF4346039307F00203002E93
:101D300040F09580002B00F0B780B8F1000F00F064
:101D4000F680F80740F1B0800029C0F2FF807A07E2
:101D500000F1C88007F00303022B00F0A780CDE953
:101D6000006743460A222846FFF714FDD5E5D9F857
:101D700000301A1DC9F800201968019743460096E3
:101D800010222846FFF706FDC7E5AB682A68581CF5
:101D90002521A860D154D5E901329A42FFF4BDADA6
:101DA000D6E6AA6000F803B0D5E901329A423FD2E4
:101DB000296811440132A9E54146A1EB080311F855
:101DC000017BD7B1AB68D5F800C00A2F03F101023F
:101DD0000CEB030000F0AF80AA600770D5E9013278
:101DE0009A42EAD328460391FFF7B8FC0399A1EB86
:101DF000080311F8017B002FE4D19E427FF68DADE0
:101E0000202702E0002E3FF488ADA9682A68481C0C
:101E1000A8605754D5E90121914206F1FF3604D359
:101E200028460393FFF79AFC039BB342EAD174E57B
:101E30002846FFF793FCAB6829685A1C194465E5EE
:101E40002846FFF78BFCAB6823E72846FFF786FCA4
:101E5000AB6814E770471846002623468BE5002937
:101E600020DB7A071ED41BB1B8F1000F3FF46CAF32
:101E7000F8073FF569AFBEB1039BB342BFF464AF4F
:101E80002023AA68501CA86028688354D5E9010261
:101E9000824206F1FF3640D236B1039AB242F0D107
:101EA000164651E7013EDEE700264DE7B8F1000F88
:101EB0007FF455AF002E6AD0039BB342BFF44FAFFF
:101EC0003023AA68501CA86028688354D5E9010211
:101ED000824206F1FF3618D2002E58D0039AB24241
:101EE000EFD13CE7AA68531CAB602B682B209854B9
:101EF000D5E901329A42FFF42DAF28460491FFF74D
:101F00002DFC049926E7034638E52846CDE904135D
:101F1000FFF724FCDDE90413DEE72846CDE90413CE
:101F2000FFF71CFCDDE90413B6E70122F8E646469C
:101F30000AE7474660E6AA600CF803B0D5E901322B
:101F40009A4226D22B689818013245E7AA68531C9A
:101F5000AB602B682D209854D5E901329A42C1F12B
:101F60000001FFF4F7AEC8E7AA6000F803B0D5E9B6
:101F700001329A4217D229681144013264E6284698
:101F8000FFF7ECFBA9682B684A1C19448AE6002677
:101F9000E5E628460391FFF7E1FBA8682B68039963
:101FA000421C184418E72846FFF7D8FBAB6829689D
:101FB0005A1C194448E600BFCDCCCCCCA8E00000A8
:101FC0002DE9F041058ACE1C043D2E440746B6FBA0
:101FD000F5F6FFF78BFB78B3F6B24FF48073013E52
:101FE0000446C5800760838027D08046002509E02D
:101FF0006379AE4203F101036371C8F80000076022
:1020000080461AD03846FFF771FB01350028EFD122
:102010006679721E14D02346013082421B68FBD1C0
:102020001F684EB1002523682146013538461C46FD
:10203000FFF77EFBAE42F6D100242046BDE8F081DA
:102040002768EFE704300121FFF720BBF8B5012135
:1020500004460430FFF726FBC0B200B1F8BD667934
:10206000721E12D02346013082421B68FBD11F68CA
:10207000002EF3D0002523682146013538461C4642
:10208000FFF756FBAE42F6D1F8BD2768F2E700BF76
:102090002DE9F843C788467907FB06F6043E02EBB4
:1020A000030C0446664503F1040015468846B0FB60
:1020B000F7F238BFF51A07FB120012B1013A246893
:1020C000FCD13E1AAE4228BF2E469DB14FF000090A
:1020D0000430AD1B2044324608EB09010AF09DFA9A
:1020E000AF42B14424683E464FF0000028BF2E4660
:1020F000002DEDD1BDE8F8832DE9F843C788467976
:10210000154607FB06F6043E05EB030C1A1D664553
:1021100004468846B2FBF7F038BFF51A07FB1021DA
:1021200010B101382468FCD17E1AAE4228BF2E4679
:102130009DB14FF0000904312144AD1B324608EB3C
:1021400009000AF06AFAAF42B14424683E464FF0F3
:10215000000128BF2E46002DEDD1BDE8F88300BF59
:1021600010B570B101280BD10D4C2369A0703BB1A3
:10217000D3E900230120226198472369002BF7D17E
:1021800010BD074CA36801226270002BF8D0D3E980
:1021900000230020A2609847A368002BF7D1EFE747
:1021A000D408002038B50A4C23786BB9094863601D
:1021B000A3602361E36000F0A7F8054600F0B2F8E1
:1021C00001232370284638BD8525284638BD00BF29
:1021D000D40800206121000038B5154CA3780546CD
:1021E00073B110B14368012098470020FFF732FA1D
:1021F000E3680133E3600020BDE83840FFF732BAFE
:1022000003F0FF00FFF726FA65B1226942B195425B
:1022100008D0134601E09D4204D01B68002BFAD180
:102220002A602561E368002BE2D100F08DF8DFE73A
:10223000D408002038B5084C0020FFF70BFAE368FB
:10224000013BE360E56815B900F096F8A570002041
:10225000BDE83840FFF706BAD40800204FF08043AD
:10226000D3F81804C0F30040704700BF38B5154CD0
:102270006378054673B110B1436800209847002089
:10228000FFF7E8F96368013363600020BDE8384078
:10229000FFF7E8B903F0FF00FFF7DCF965B1A268CA
:1022A00042B1954208D0134601E09D4204D01B681C
:1022B000002BFAD12A60A5606368002BE2D100F000
:1022C00067F8DFE7D408002038B5084C0020FFF796
:1022D000C1F96368013B6360656815B900F06AF88D
:1022E00065700020BDE83840FFF7BCB9D408002075
:1022F0004FF08043D3F80C0400F00110A0F101105E
:10230000B0FA80F040097047054A13792BB90121D2
:10231000106053711846117170478520704700BFD7
:10232000E8080020074B1A68D20704D4C021012214
:1023300083F800131A604FF080430122C3F8182578
:10234000704700BF00E100E010B4094B094A0021CA
:10235000196083B01B680193019C4FF080410220FB
:102360000123C1F80403136003B05DF8044B704708
:102370000401004008000040044B01221A604FF0A5
:102380008042D2F81834DB03FBD470470C000040C5
:10239000074B00221A6082B01B68019301994FF02D
:1023A00080430122C3F804231A6002B0704700BFC3
:1023B00000010040074B01221A604FF08042D2F822
:1023C0000C3403F00113B3F1011FF8D0024B0022CB
:1023D0005A71704704000040E808002010B5154B02
:1023E0001A6882B07AB10021134A19601B685079CB
:1023F00000934FF080410123009CC1F8083310B9CD
:102400001168537188470D4B1A6882B100221A6017
:102410001B6801934FF080420221074B0198C2F8DC
:1024200008131B68012002B0BDE81040184702B035
:1024300010BD00BF00010040E8080020040100407A
:1024400030B5204C94F86A5083B0002D36D14FF04F
:10245000FF332946062204F16400C4E90033C4E9CD
:102460000233C4E90433C4E90633C4E90833C4E9D8
:102470000A33C4E90C33C4E90E33C4E91033C4E9A8
:102480001233C4E91433C4E9163323660AF0E9F8B9
:102490000D4A0E4B0E491D60C02082F806034020F5
:1024A00010601B68019301984FF0004301222846F9
:1024B00084F86A20C1F8043303B030BD082003B0AB
:1024C00030BD00BFF008002000E100E07C6100406A
:1024D00000600040034B93F86A00003018BF0120F1
:1024E000704700BFF0080020F0B5744B1C1894F939
:1024F0003050002D6ADA8E78C6F340069646002EDC
:102500005ED11D6A013500F0C48009240C2553F802
:10251000247001375DD004F1010C53F82C700137A1
:1025200000F0C280A71CAF4248D253F827200132E6
:1025300000F0BC8004F1030CAC453FD253F82C7082
:10254000013700F0B18004F1040CAC4536D253F8E9
:102550002C70013700F0A88004F1050CAC452DD299
:1025600053F82C70013700F09F8004F1060CAC4545
:1025700024D253F82C70013700F0968004F1070C38
:10258000AC451BD253F82C70013700F08D8004F15C
:10259000080CAC4512D253F82C70013700F084803F
:1025A00004F1090CAC4509D253F82C7001377BD0EB
:1025B0000A34AC4202D2DC6A013409D00420F0BDF6
:1025C0001D68013574D001240825A0E70820F0BD5E
:1025D0000B241F1865B243F824E087F83050002E12
:1025E0005ED08A7854071AD4D60741D41F284A7877
:1025F00087BF334E00F01F0404464FF0A04604F599
:10260000E074920046F824202E4EC40800F0070C17
:10261000375D012202FA0CF23A4332558A780C787F
:1026200012F0020209D1083D2B44104693F86020B5
:1026300042EA841483F86040F0BDAB0003F18043AC
:1026400003F5C0430202D3F8101521F44F3121F4F1
:102650004071C3F810152404D3F8101504F4403465
:1026600002F47C5222430A43C3F810250020F0BD37
:102670001F2887BF124A00F01F0404464FF0A042F3
:1026800002EB8402D2F8004724F00204C2F80047AB
:10269000BAE7082684F83060C3F820E035463446AF
:1026A0001C4484F858009CE7644692E73C4690E757
:1026B00000251A6084F8305093E700BFF00800202E
:1026C000000300505409002070B43A4D2E1883B016
:1026D00096F93030072B20DD2B4493F858309B09B6
:1026E000032B45D0012B14BF4FF440314FF4003180
:1026F0001F284DD900F01F002F4B03EB8000D0F8AE
:10270000002722F44032C0F80027D0F800370B43EE
:10271000C0F8003703B070BC7047DAB2072AF9D8A6
:10272000980000F1804000F5C04003F14002D0F86D
:102730001045920092B244F0010402F18042C0F8C8
:10274000104502F5C04200200190019C1060002954
:10275000E0D096F9302055F82220002ADAD0012264
:10276000164902FA03F3C1F8043303B070BC704792
:102770001F2810D9104BD3F8103500F01F00C340AC
:1027800013F0010F0CBF4FF400314FF44031B3E7A9
:102790004FF0A043B1E74FF0A0421346D2F8102506
:1027A000C24012F0010F14BF4FF440314FF400311A
:1027B000A3E700BFF00800200003005000600040C5
:1027C0001F288ABF054B4FF0A04300F01F00D3F82D
:1027D000103523FA00F000F00100704700030050AC
:1027E0002DE9F047002388B0CDE90233CE4A1668C0
:1027F000012E00F03B821E46CC4B1A68012A00F0E5
:102800002782CB4B1A68012A00F01482C94B1A6840
:10281000012A00F00182C84B1A68012A00F0EE81FB
:10282000C64B1A68012A00F0DB81C54B1A68012AE1
:1028300000F0C881C34B1A68012A00F0B581C24B71
:102840001A68012A0FD100221A601B6801934FF009
:10285000A042019BD2F81025BC4B0292D3F8103550
:10286000039346F0004616F0FF0F1AD0B84F00242D
:102870000125A30003F180432E4203F5C0434FEA34
:1028800045050BD0D3F8100557F82420D3F81015C0
:10289000C0F30520C1F3014102B190470134082C77
:1028A000E7D1002E02DB08B0BDE8F087A84CA74FA7
:1028B0004FF0FF33CDE9063394F960300DF1100885
:1028C00000225D1CC8F8042004924FF0010600F0BD
:1028D000F4805FFA83FC2CF0C00008AB4FEAD0090B
:1028E00003EB090E0CF007031EF8082C06FA03F39D
:1028F00012EA030521D022184FEA9C1192F93020E8
:1029000054F82220002A00F02981032900F02881B0
:102910001F2800F2F98005464FF0A04C0CEB850C07
:102920001EF8185CDCF800E71D40CEF3014E40F0C5
:10293000DF80BEF1030F00F0BF8194F96130581CB5
:1029400032D0DBB223F0C00008AA4FEAD00E02EB6F
:102950000E0C03F007011CF8082C06FA01F912EA24
:10296000090F21D02218990992F9302054F8222019
:10297000002A00F0FB80032900F0FB801F2800F2F2
:10298000E98003464FF0A04E0EEB83031CF818ECD1
:10299000D3F800C71EEA090FCCF3014C40F0B88011
:1029A000BCF1030F00F0AE8194F96230591C30D0B5
:1029B000DBB223F0C00008AA4FEAD00E02EB0E0CE7
:1029C00003F007011CF8082C06FA01F912EA090FB6
:1029D0001FD02218990992F9302054F82220002A99
:1029E00000F0D880032900F0D8801F287CD8034647
:1029F0004FF0A04E0EEB83031CF818ECD3F800C781
:102A00001EEA090FCCF3014C64D1BCF1030F00F0B6
:102A1000658194F963305A1C34D0DBB223F0C000D6
:102A200008AA4FEAD00E02EB0E0C03F007021CF8C6
:102A3000081C06FA02F2114224D004EB000999099D
:102A400099F9309054F82990B9F1000F00F098806E
:102A5000032900F098801F288BBFBE464FF0A04E80
:102A600003F01F0303460EEB83031CF818ECD3F8A6
:102A700000C71EEA020FCCF3014C20D1BCF1030FBA
:102A800000F00181002D3FF40EAF4FF0A0430299FA
:102A9000D3F81035D7F81025994203D10399914204
:102AA0003FF401AFDDE90401CDE9023294F9603071
:102AB0005D1CCDE906017FF40CAF00253DE7BCF1BC
:102AC000020FDFD1032900F03481B9F1000F40F08B
:102AD000F180D7E7BCF1020F9BD1032900F02681DA
:102AE000002A96D0904794E703F01F03BE4681E783
:102AF000BEF1020FE1D1032900F021810025002A57
:102B00003FF41BAF904718E70CF01F05BC4605E7E4
:102B1000BCF1020F7FF448AF032900F00D81002AB9
:102B20003FF442AF90473FE700610040046100403E
:102B3000086100400C6100401061004014610040D9
:102B4000186100401C6100407C610040000300509F
:102B5000F008002003F01F03BE4615E70329ACD19F
:102B600018F809501D4308F80950D1E603297FF4ED
:102B70001BAF18F80EA04AEA090A08F80EA0FDE6F5
:102B800003297FF47FAF18F80EA04AEA020A08F87A
:102B90000EA060E703297FF43CAF18F80EA04AEAC4
:102BA000090A08F80EA020E7664AD2F8042317069F
:102BB0007FF545AE00221A601B680093009B46F02B
:102BC00080063CE65F4AD2F8042352067FF532AE17
:102BD00000221A601B680093009B46F0400629E61D
:102BE000584AD2F8042391067FF51FAE00221A60DE
:102BF0001B680093009B46F0200616E6514AD2F867
:102C00000423D0067FF50CAE00221A601B680093E7
:102C1000009B46F0100603E64A4AD2F80423140744
:102C20007FF5F9AD00221A601B680093009B46F007
:102C30000806F0E5434AD2F8042355077FF5E6ADD0
:102C400000221A601B680093009B46F00406DDE535
:102C50003C4AD2F8042397077FF5D3AD00221A60CF
:102C60001B680093009B46F00206CAE53549D1F87F
:102C7000041311F0010104D0136013680093009B4A
:102C8000BAE50E46B8E503297FF41FAF4FF4003CC8
:102C9000D3F8002722F44032C3F80027D3F80027E6
:102CA000013542EA0C02EDB2C3F80027B9F1000F7A
:102CB0003FF4EBAEC847E5E603297FF420AF4FF4BD
:102CC0000035DCF8003723F44033CCF80037DCF86B
:102CD00000372B43CCF80037012510E703297FF498
:102CE000FFAE4FF4003ED3F800C72CF4403CC3F8CD
:102CF00000C7D3F800C701354EEA0C0CEDB2C3F89B
:102D000000C7EDE603297FF40AAF4FF4003ED3F885
:102D100000C72CF4403CC3F800C7D3F800C7013506
:102D20004EEA0C0CEDB2C3F800C7F8E64FF4403E93
:102D3000D9E74FF4403CABE74FF4403EE7E74FF4B0
:102D40004035BEE7006000400220FDF72DBB00BF0C
:102D50002DE9F0410C460546FDF740FBB8B9012CC2
:102D600017D00BD3022C12D1134B5C787CB1134BD0
:102D70001B6863B12046BDE8F04118471048FEF7D4
:102D800035FC0D4A0F4B94781B78A342EED0BDE87A
:102D9000F081094E737834781BB90A4BB2781A70F7
:102DA000E4E7094F06483A464FF40041FEF7D0FBEE
:102DB0000028F2D13D70F0E7C0090020CC090020C6
:102DC00080090020D40900205C09002010B500789B
:102DD000FDF704FB40B9054B587828B1044B1B683C
:102DE00013B1BDE81040184710BD00BFC009002056
:102DF000CC090020AB4B1B68DB0700D4704770B5D3
:102E0000A94DAA4E2B78347853B1A94B1B780020DA
:102E10002870002B48D0FDF793FA0120FDF790FAB7
:102E2000172C40D8DFE814F0A900E400E400CC003F
:102E3000F800BA000301DE005000430050004300D8
:102E400061001800180018001800180066007400CF
:102E5000850096005D005D009648FEF7C7FBD4F143
:102E60001104054600F0F080002840F0ED80012CB0
:102E700013D0C82303FB04F44FF4FA704FF400435B
:102E80000021C3FB04014FF47A7200230AF0DAFE3A
:102E90002A4601468748FEF75BFB0220FDF73CFA15
:102EA000834B01221A7070BDFDF75EFAB8E701236B
:102EB00018462B70FDF778FA00224FF480417E48C7
:102EC000BDE87040FEF744BB012318462B70FDF7A8
:102ED0006BFA002240F6CD417748BDE87040FEF71E
:102EE00037BBFDF751FA347070BDFDF74DFA0C2376
:102EF000337070BD6E4B1B78002B00F0AF8000204C
:102F0000FDF71EFA0120FDF71BFA1223337070BD86
:102F1000674B1B78002B00F0A4800020FDF710FA0F
:102F20000120FDF70DFA0020FDF7F6F913233370A9
:102F300070BD5F4B1B78002B00F0A3800020FDF7D5
:102F4000FFF90120FDF7FCF90120FDF7E5F9142355
:102F5000337070BD564B1B78002B7CD00020FDF7E2
:102F6000EFF90120FDF7ECF90020FDF7D5F901207C
:102F7000FDF7D2F91523337070BD4D4B1B78002B34
:102F800000F087800020FDF7DBF90120FDF7D8F97C
:102F90004948FEF72BFB0023337070BD0020FDF77E
:102FA000A7F9002860D00020FDF7CAF90523337087
:102FB000002241F69A114048BDE87040FEF7C8BAB9
:102FC0000020FDF795F900285ED00020FDF7B8F944
:102FD00046F266610323337000223748BDE8704033
:102FE000FEF7B6BA0020FDF797F90723337070BDDE
:102FF0000020FDF77DF9D0B30020FDF7A1F9022CE8
:103000004EF2666118BF4FF40031347000222A4836
:10301000BDE87040FEF79CBA0020FDF769F9D8B30F
:103020000020FDF78DF94FF400310423D3E7002091
:10303000FDF7BAF906233370002240F6CD411E4851
:10304000BDE87040FEF784BA0220FDF779F9184B0D
:1030500000221A7070BDFDF787F985E7FDF784F946
:1030600053E7FDF781F95EE7FDF756F99EE7FDF7B7
:1030700053F943F2333141F69A13022C08BF194633
:10308000C3E7FDF771F95FE7FDF746F941F69A11DD
:10309000A0E7FDF769F97BE7FDF73EF943F233312D
:1030A000C3E700BFC4090020C8090020D0090020E0
:1030B0005D09002060090020A009002038B5214BDF
:1030C000214A19608307106000F0010503D49DB9FF
:1030D0002C46204638BD1D4B1D480E241C7040F266
:1030E00066620121FDF7FEFE0446B8B115B101206C
:1030F000FDF77AF9204638BD0120FDF775F9154A2C
:1031000015480021FEF712FA04460028F2D1134AAE
:1031100013480121BDE83840FEF708BAFDF73AFF31
:1031200004460028E2D101460E4A0F48FEF7FEF998
:103130000446002DDED00120FDF756F9002CDED02C
:10314000D8E700BFCC090020C4090020C009002036
:10315000D0E00000F52D0000E0E00000492D000067
:10316000D8E00000CD2D0000DCE0000038B5FEF70F
:1031700089F908B1FDF724FF002301204FF0A04199
:10318000032204E015F0E07F18BF41F8242001334A
:10319000202B00FA03F503F5E074F3D14FF0A043C0
:1031A0004FF0E0710022C3F8081501201146C3F862
:1031B0000C25FFF783FF08B1FDF702FF104C002537
:1031C0000021084604F0B6FD02F077FE206000F012
:1031D00055FA09E0206802F09DFF206804F0D8FD50
:1031E000206802F0A3FF40B104F0CCFD0028F1D02C
:1031F000206802F066FE2560E2E720BFF4E700BF2A
:10320000D80900202DE9F84F4400DFF85CB12618FA
:103210000BEBC6068146F76A012F8A46904667D0B7
:103220003DD3022F30D100F1010909EB4909756A3C
:103230004FEAC9090027B36A346AAB4203F1FF328F
:103240009CBF1B1903F1FF33A4EB05048CBF531B78
:103250005B1B0BEB0902444528BF44469C42506867
:1032600028BF1C4628445146224609F0D6F9336A45
:1032700025449D422744A8EB0408A24408D0756267
:10328000B8F1000FD7D100E000273846BDE8F88F2D
:1032900000231D467362B8F1000FCCD1F5E7B36A85
:1032A000756AAB429CBF326A9B18013B5B1B984519
:1032B000EBD8044400F101090BEBC40409EB490904
:1032C0000BEBC90B266ADBF80400761BB0452844DB
:1032D00043D33246A8EB060509F09FF90AEB060135
:1032E000DBF804002A4609F098F947466562CCE706
:1032F000D6E90825B76AAF4298BFBF18461C013F00
:1033000006EB46067F1B0BEBC606474528BF474624
:103310007068A2EB05084745284412D3A1444246F1
:10332000A7EB08050BEBC90B09F077F90AEB0801CD
:1033300070682A4609F071F9CBF824503846BDE888
:10334000F88FA1440BEBC90B3A463D4409F065F9EF
:10335000CBF824503846BDE8F88F4246454409F082
:103360005CF94746656290E7BC1E00202DE9F041FC
:103370002B4C94F800C00546884616461F46BCF103
:10338000000F23D02369AB4246D90020FEF762F933
:103390005DB92A46154404EBC504069BE362002090
:1033A000FEF760F90020BDE8F0816B1C03EB4303DE
:1033B000DB006A00511904EBC10144F80380234487
:1033C00000200F625E6088624862E3E7154B164892
:1033D000A3610222C4E904224FF40071134AA364DA
:1033E0001023C4F828C02365C4F824C0C4F82CC036
:1033F000C4F858C0C4F854C0C4F85CC0E06121628D
:10340000E2640B49E01D09F091FC0A49204609F0ED
:103410008DFC2023A371B5E74FF0FF30C3E700BF59
:10342000BC1E0020E4E00000EC090020DC090020C4
:10343000F0E00000F4E0000010B44FF080414FF0E5
:1034400080520020C1F80C015E4BC1F81001C1F898
:103450003805D2F80414C3F82015D2F80814C3F8BC
:103460002415D2F80C14C3F82815D2F81014C3F898
:103470002C15D2F81414C3F83015D2F81814C3F868
:103480003415D2F81C14C3F84015D2F82014C3F830
:103490004415D2F82414C3F84815D2F82814C3F8F8
:1034A0004C15D2F82C14C3F85015D2F83014C3F8C8
:1034B0005415D2F83414C3F86015D2F83814C3F890
:1034C0006415D2F83C04C3F86805D2F840043E49BC
:1034D000C3F86C050968D2F84424C3F8702508299C
:1034E00024D04FF08043D3F80024D20744BF6FF0BC
:1034F0000102C3F80024354AD2F8883043F470033F
:10350000C2F88830BFF34F8FBFF36F8F4FF0102397
:10351000D3F80022002A23DBD3F80432002B1FDB70
:103520002B4B2C4A1A605DF8044B70472A4B1B68E2
:10353000002BD6D129482A4A2A4C04602A492B4B11
:10354000FB20C2F818050A681B68294822F00F0200
:1035500003F00F0313434FF400720B600260C0E7E7
:10356000244B0122C3F80425D3F80024002AFBD001
:103570004FF0102312221F49C3F80022D1F8003463
:10358000002BFBD04FF0102212211A4BC2F804126C
:10359000D3F80024002AFBD000221649C3F80425E2
:1035A000D1F80034002BFBD0BFF34F8F0749124BEB
:1035B000CA6802F4E0621343CB60BFF34F8F00BFD1
:1035C000FDE700BF00C000403001001000ED00E04A
:1035D000080000200090D003340100108C560040F9
:1035E00000F0004048810300E40E00405802001043
:1035F0004096024000E001400400FA0538B5044658
:103600000D4600F05FFA04F55D7104F5567000F0A8
:103610004AF9234604F58061154A04F5587000F014
:103620009EF904F27A33C4F8743304F2064280231C
:10363000A4F87833C4F8002400234FF4007284F80F
:10364000FC3384F8FD33A4F8042484F808362946B2
:103650002346084A04F20C6002F0FBFE22460649AB
:10366000201D01F02BFE04F0A3FB204638BD00BF57
:103670008938000083370000AF36000010B5054CD4
:1036800001462046FFF7BAFF00F0B6FA844200D0A8
:10369000FEE710BDF00B0020D0F8742300F27A335F
:1036A0009A4203D100F20C6002F0F6BE7047FFF7B9
:1036B000F3BF2DE9F8430446051D00F556760127B2
:1036C0004FF00208284601F026FF94F8FC3300284A
:1036D00052D0022B27D1012B02D3022B3ED0F1E78F
:1036E000204600F08FFA08B103F016FF204600F0E4
:1036F00093FAC0B9304600F0DAF8A0B9284601F0D4
:103700009EFF84F8FC73284601F0B1FFB8B9284643
:1037100001F0B6FF84F8FD0394F8FD13304600F085
:10372000CFF80028EFD0D4F8741304F27A30091AD5
:103730008BB223B3194604F0C1FB00B3FEE794F843
:10374000C090284602F09BF8B9F1000F04D094F81D
:10375000C0300BB984F8087684F8FC83304600F05A
:10376000DFF80028DFD194F8083684F8FC03002B3A
:10377000A8D084F80806A3E7012BADD1CCE7BDE8BB
:10378000F88308B500F038FABDE80840FFF791BFAC
:1037900000F27A33C0F874338023A0F8783300F253
:1037A0000C6002F079BE08B500F026FA18B1BDE849
:1037B0000840FFF7EDBF08BD38B504460D4600F0E0
:1037C0001BFA38B12A46214600F55870BDE838404A
:1037D00000F0CEB838BD0000F0B50C46A1B01646DA
:1037E0001F4600F023FA2346184A194D80216846E7
:1037F00009F05EFA684609F0A1FA6946024600201F
:1038000001F0C2F80024BC424FEA44000CDA292C33
:103810000AD0A4EB84012044335D2A4680316844F9
:1038200009F046FA0134EEE72044C0F18001094A6C
:10383000684409F03DFA684609F080FA0DF101018B
:10384000421E002001F0A0F821B0F0BDFCE0000015
:1038500010E1000016E1000038B5D0F8003400F2A5
:1038600006455B1B04469BB251B91A46294600F037
:10387000B2FF4FF40073C4F80054A4F8043438BD08
:103880002A46FFF7A9FFF4E7FFF7E6BF838843B1B5
:1038900003685A1C026019708388013B83800020F2
:1038A000704703207047002201608280704708B58E
:1038B0004FF6FF7383807E210068FFF7E7FF08BDA6
:1038C0007E2938B505460C461CD87D2903D211291E
:1038D00001D013291AD128688388012B14DD7D219A
:1038E000FFF7D4FF84F020012868FFF7CFFFAA88F4
:1038F0000A4B5440E4B2002033F8143083EA122318
:10390000AB8038BDF829E5E7032038BD214628689B
:10391000FFF7BCFF0028EAD038BD00BF1AE1000065
:103920002DE9F04186880368F543ADB2E9B204465B
:103930001F68B3F80480FFF7C3FF48B9290A20467F
:10394000FFF7BEFF20B97E212068FFF79FFF20B15F
:1039500023681F60A3F80480A680BDE8F08130B51D
:103960000025057041608260C3600582458230BDDC
:103970002DE9F843384E04460D468F184FF00208E3
:10398000BD4267D0237815F8011B012B26D01BD32D
:10399000022BF5D16068B0F80490B9F1000F52D055
:1039A000B4F810E081F0200181EA0E02D2B236F8BC
:1039B000123083EA1E232382FFF768FF638A0133F4
:1039C000638201232370DBE77E29D9D10123237091
:1039D000002363824FF6FF732382D1E77D2917D03E
:1039E0007E2918D06068B0F80490B9F1000F2AD091
:1039F000B4F810E081EA0E02D2B236F8123083EA4F
:103A00001E232382FFF742FF638A01336382B7E7F5
:103A100084F80080B4E7638A002BD9D0012B10D042
:103A2000228A4FF2B8039A420BD163681A68023AAD
:103A30001A609A8802329A800021A368E068984749
:103A4000C6E70621F9E7A368E0680321984784F8F0
:103A5000009095E7BDE8F8831AE1000021282CD8F2
:103A6000DFE800F02E1113152B17191B2B2B2B2B16
:103A70001D1F21232B2B2B2B2B2B2B27252B2B2BCC
:103A80002B2B2B2B2B29012070470E2070470B204E
:103A900070470C20704709207047032070470220B0
:103AA0007047042070471120704712207047132080
:103AB0007047142070471520704700F5804070470C
:103AC000002070472DE9F8430646044646F8041BDB
:103AD0004FF40072894600F1F901304601F0D3FB42
:103AE0000025A66704F17C0304F19C021D605D6063
:103AF00008339A42FAD184F89C5084F89D50C4F857
:103B0000A050C4F8A45004F1A80001F021FF354BE7
:103B1000C4F8C8304FF6FF78C82304F1D407A4F8DE
:103B2000CC30314A84F8C0502346C4F8C45084F8DD
:103B3000CE5084F8CF50A4F8D0804946384602F0E1
:103B400088FC00230022C4E93823C4E93A23042373
:103B500084F8F030254BC4F8DC501B68C4F8F4300E
:103B6000236884F8F85084F8F95284F8FA5284F8FB
:103B7000FB5284F8385384F8395384F83A5384F864
:103B80003B5384F83C5384F83D5384F83E5384F807
:103B90003F5384F8408384F84153C4F84453C4F835
:103BA0004853C4F84C53C4F8505384F8545303B9E1
:103BB000FEE70F4B0F491C602246304601F081FBA7
:103BC0003C22002104F53F7008F04BFD77220021D4
:103BD00004F1E00002F0A4F8384602F05DFC204653
:103BE000BDE8F88300F8FF07653F000028E3000008
:103BF00008120020CB3F0000014B1868704700BF3F
:103C00000812002090F8F030042B1ABF90F8C00082
:103C100080F001000020704790F8F030012B06BFC3
:103C200090F8C00080F0010000207047D0F84433C5
:103C30000133C0F8443370472DE9F843994690F8B2
:103C40003C3304469046002914BF0F46702713B139
:103C50000D20BDE8F88300F1E0053946284602F062
:103C6000CFF80028F4D194F8FA2294F8FB329A4263
:103C70000BD00B220021284602F052F804F1D400A8
:103C800002F00AFC0320BDE8F88304F178063B4605
:103C900006228021304602F011F848B91FFA89F255
:103CA0004146A06F01F0BEFD10B9304601F0E9FFBA
:103CB0000328DED0BDE8F8830138C0B204289ABFDB
:103CC000014B185C0020704723E30000F8B511F0A9
:103CD0000F0508D1022A04D11A462946E03002F025
:103CE0001FF80020F8BD90F8FB6290F8FA72F41B00
:103CF0000E2C06DD0E220021E03002F011F8032028
:103D0000F8BD90F8F942AC4217D0BE4215DD3C46F2
:103D10000E2C02DD0F3CE4B2FAE7BE3400EB840463
:103D200094F804E01EF0100F0DD00EF00F0CAC450F
:103D300009D16FF3041E84F804E034460E2C05DD2F
:103D40000F3CE4B2FAE70137FFB2DEE7BE3400EB26
:103D500084040136257961F30305E9B241F01001CD
:103D600062F346112171626863F3DE12626080F8CB
:103D7000FB62B6E713460222FFF7A8BF38B511F081
:103D8000300F00F1780408BFC0F8C42015460023A6
:103D90000622204601F092FF48B92946204601F04C
:103DA000D5FE20B92046BDE8384001F06ABF38BDD5
:103DB0002DE9F74304460F4601466846914698466A
:103DC00001F064F8009E019D0EB9EB0718D504F1CF
:103DD00078084B4606223946404601F06FFFE0B9AD
:103DE000681015F0010F18BF2358204418BF9E59C2
:103DF000B04790B9404603B0BDE8F04301F041BF81
:103E0000B8F1000F07D00D223946204603B0BDE8B7
:103E1000F043FFF7B3BF4246F6E703B0BDE8F083D7
:103E200070B50446002694F8FA5294F8FB32AB427F
:103E30003BD0BE3504EB85021379D90616D404EBCA
:103E400085052B796FF304132B7194F8FA32013343
:103E5000DBB20F2B84F8FA32E5D194F8FB3284F808
:103E6000FA620E2B1EDD0F3BDBB2FAE703F00F0107
:103E700003F06003402B41F08001526807D1C2F388
:103E8000D7122046FFF77AFF0028D8D070BDB3FACA
:103E900083F35B09C2F3D7122046FFF789FF00289E
:103EA000CDD070BD84F8FB32BDE7002070BD0000AE
:103EB000D0E9382313432DE9F04704463ED0E030E3
:103EC00001F02CFF254DDFF89880074600265FFAA9
:103ED00086F9B94532DA4A46D4E9380109F09AFE42
:103EE000002100F0010050EA010302D101360C3537
:103EF000EDE755F80C2C32BB55F808ACBAF1770F4A
:103F000006D1206803F0EEFA082898BF18F800A040
:103F1000524680212046FFF731FF78B94A460120FA
:103F2000002109F083FED4E9382322EA000023EAC5
:103F3000010150EA0103C4E93801D7D1012384F813
:103F40005433BDE8F08794F85433002BE6D00123B6
:103F500080212046FFF72CFFDFE700BF38E3000099
:103F60001AE30000014B1868FFF7A2BF08120020F7
:103F700090F8C03010B5044633B1D0F8F4308B421D
:103F800004BF002380F8C0302046FFF749FFD8B9AE
:103F900094F8F81099B101230C222046FFF708FF8E
:103FA00090B994F8F03084F8F800042B07D0201D65
:103FB00001F0AFFA0123C4F8F40084F8C0302046C1
:103FC000BDE81040FFF774BF10BDFFF7D1BFF8B5D3
:103FD00000F1780405462046069EBDF81C7001F0ED
:103FE0006DFE50B93A463146A86F01F01BFC20B96E
:103FF0002046BDE8F84001F044BEF8BD2DE9F04F81
:10400000042B87B004460F46924602D0052B36D0CB
:10401000FEE7014604A801F0A1F8049E059D4FF0BB
:10402000070905F0010B16B9BBF1000F3FD004F1F1
:10403000A808404601F04CFD0DF10A0203A94046D4
:1040400001F026FD404601F04AFD002384F83C3390
:104050006810BBF1000F01D023589E592044B0478F
:10406000012384F83C33054690B1FFF7F7FC024684
:1040700039462046FFF77EFE07B0BDE8F08F0146C7
:1040800004A801F08BF84FF00809049E059DC8E7CD
:10409000BDF80A300193039B00934A4653463946C4
:1040A0002046FFF794FF0028E6D02A46E0E70D22DD
:1040B000DEE708B50022FFF75DFE08BD38B504460F
:1040C000006801F000FF722280212046FFF756FEB3
:1040D000054648B104F1E0007722002101F020FEFE
:1040E00004F1D40002F0D8F9284638BD30B5C3B089
:1040F00004460D46002301A9A830019301F0ABFC52
:1041000040B1FFF7ABFC294602462046FFF736FEDA
:1041100043B030BD8DF80701FF2202A90198783421
:1041200001F052FF4FF46F5306222946204601F05A
:10413000C5FD0028ECD102A9204601F042FD00286F
:10414000E6D1204601F09DFDE2E710B50446006887
:1041500001F0C3FE0146A06FBDE8104001F050BB66
:1041600010B50446006801F01EFF0146A06FBDE8CF
:10417000104001F045BB000037B502A900230546F9
:1041800041F8043DA83001F041FC044690B99DF887
:104190000410286801F009FF044658B9286801F0A6
:1041A0009CFE38B195F83A3323B10449286801F0F0
:1041B0009FFE0446204603B030BD00BF694A0000A0
:1041C00010B50446006803F0DFFA002818BF02218A
:1041D000A06F08BF0021BDE8104001F011BB37B54A
:1041E00002A90023054601F8013DA83001F0CCFBEF
:1041F000044650B99DF807301BB1022B08D80121A5
:1042000000E00146286803F0C1FA204603B030BD43
:104210000724FAE710B5044654F8780B01F0C8FEFD
:1042200001462046BDE8104001F066BC13B50446C7
:104230000DF10601A83001F0D5FB20B9BDF806103C
:10424000206801F0B7FE02B010BD10B5044600684A
:1042500001F0B3FE08220146A06FBDE8104001F056
:10426000E1BA13B50822044601A9A83001F0E5FB24
:1042700018B90199206801F0A2FE02B010BD10B576
:10428000044654F8780B01F09DFE01462046BDE837
:10429000104001F031BC90F83A13806F01F0B0BAD1
:1042A00037B502A90023044601F8013DA83001F00A
:1042B0007BFB054678B9206801F00FFE38B19DF808
:1042C00007305BB10749206801F012FE05469DF8F2
:1042D000073084F83A33284603B030BD206801F037
:1042E00001FEF3E7694A0000F8B505460E460024D2
:1042F0000127202CE1B20BD007FA04F3334201D19D
:104300000134F6E7A86F01F07BFA0028F8D0F8BD79
:104310000020F8BD0023F7B505460C460B6000F100
:10432000A8070126B5F8AE20B5F8B0309A420FD0F4
:104330000DF10701384601F027FB50B99DF8073011
:104340001F2B08DC226806FA03F313432360E9E716
:10435000002003B0F0BD0720FBE7D0F8C810FFF73E
:10436000C3BF13B502A9002341F8043D0446FFF77B
:10437000D1FF10B9019BC4F8C83002B010BDB0F82D
:10438000CC10783001F0B8BB00F1CC01A83001F0BE
:1043900029BB10B50446006801F09FFD50B194F9A7
:1043A000403301330CBF00210221A06FBDE8104053
:1043B00001F026BA0146F8E737B502A90023054601
:1043C00001F8013DA83001F0DFFA044628B99DF854
:1043D000073013B1022B03D00C24204603B030BDAC
:1043E000286801F07AFD0028F7D095F940330133B1
:1043F00016D1D5F8C820AAB1531E134012D15208C5
:10440000D9B203F1010009D185F84033B5F8CC20C9
:10441000054B286801F077FD0446DEE70346EEE72A
:104420000D24DAE70724D8E7ED4B00002DE9F84327
:104430000546E03001F072FC114F814600244FF038
:104440000C0805F17806E2B24A4515DAD5E93A01D9
:1044500009F0E0FB002100F0010050EA010301D166
:104460000134F0E708FB04F33046D95901F06EFB44
:104470000028F5D0BDE8F8830020BDE8F88300BF30
:104480002CE30000F7B500230022C0E93A230446DC
:1044900000F1A80700F1E006B4F8AE20B4F8B0309F
:1044A0009A420BD001A9384601F0B0FA054648B946
:1044B00001220199304601F05FFCEDE70025284616
:1044C00003B0F0BD012341F2080280212046FFF72E
:1044D0006FFCF4E713B5044601A9A83001F096FA81
:1044E00028B90122019904F1E00001F045FC02B075
:1044F00010BD13B5044601A9A83001F087FA28B908
:104500000246019904F1E00001F036FC02B010BD52
:10451000D0F8C410783001F019BB10B500F1780460
:104520000421204601F012FB28B920460321BDE8F2
:10453000104001F00BBB10BD0321783001F006BB29
:104540000021783001F002BB10B500F1780405219C
:10455000204601F0FBFAA8B90C21204601F0F6FA3A
:1045600080B91821204601F0F1FA58B922212046DD
:1045700001F0ECFA30B9204640F20121BDE81040CC
:1045800001F0E4BA10BD10B5044601F09FFC0146ED
:1045900004F17800BDE8104001F013BB0121806FE9
:1045A00001F02EB90021806F01F02AB92120704757
:1045B0000421806F01F024B90C20704713B5044624
:1045C0006946006802F0EAFF08226946A06F01F020
:1045D00029F902B010BD0221783001F08DBB90F8AE
:1045E000F010806F01F00CB973B504460E46A83088
:1045F0000DF1070101F0C8F9A0BB9DF80730042BAD
:1046000007D8012202FA03F111F01B0F02D14B0768
:1046100003D4032384F8F03001E084F8F020002371
:1046200084F8F8300C22012331462046FFF7C0FB06
:1046300094F8F030042B054608D070B9201D00F026
:1046400068FFC4F8F400012384F8C03015B184F881
:10465000F8600025284602B070BD074B1B68C4F8FF
:10466000F430F0E7FFF7FAF9314602462046FFF74B
:1046700085FB0546EEE700BF28E30000712A10B570
:104680001C460CD0B2F56F5F06D00C2A0AD1FFF79A
:10469000ABFF2070012010BDFFF728FDF9E700F007
:1046A000C9FBF6E7002010BDF0B585B004460D4605
:1046B0000026014602A817468DF8076000F0D4FCDA
:1046C0000398029B00F0010203B9C2B184F83C6375
:1046D00040100AB12258D3582044984701228DF83F
:1046E000070084F83C23C8B93B4629462046FFF71B
:1046F000EDFA8DF807009DF8070005B0F0BD0DF14B
:1047000007033A4629462046FFF7B8FF0028F2D1B2
:104710000D2229462046FFF72DFBEAE7FFF79EF919
:104720000246F6E773B50D4602A9002341F8043DA1
:104730000446A830164601F069F9014650B1FFF76A
:104740008DF9294602462046FFF714FB014608462C
:1047500002B070BDB31E032BF9D8DFE803F00209E5
:104760000F0F019B002229462046FFF7AFFAEDE725
:10477000019A29462046FFF797FFE7E73346019A5B
:1047800029462046FFF73AFCE0E737B504460D46D8
:10479000A83001A901F03AF958B9019A052A14D8AC
:1047A000DFE802F003090E0E0E0E29462046FFF741
:1047B00080FC03B030BD29462046FFF77FFCF8E7B8
:1047C00029462046FFF7AEFFF3E70522294620469B
:1047D000FFF7D0FAEDE7F7B502AD0123002700F1AE
:1047E000A806044680F83C3305F8017D304601F008
:1047F000C0F8042384F8F03084F8C07029463046AD
:1048000001F0C2F880B99DF807100B060CD5D4F85A
:10481000483311F0300F03F10103C4F8483308D0D6
:1048200006222046FFF7AAFA002384F83C3303B09F
:10483000F0BD2046FFF7A9FF38B19DF80710FFF73C
:104840000DF902462046FFF795FA94F8FA2294F8FB
:10485000FB329A4202D02046FFF7E2FA9DF8073079
:1048600094F8F92203F00F0332B193421EBFD4F83B
:104870004C230132C4F84C230F2B14BF0133012306
:1048800084F8F932D0E70000F8B50446E03001F0D2
:1048900045FA0B4D074600267834F3B2BB420DDAD9
:1048A00015F8043C13B901360C35F6E755F80C1C25
:1048B000204601F04BF90028F5D0F8BD0020F8BDE6
:1048C00038E3000010B50446006802F059FFC1B299
:1048D000A06FBDE8104000F093BF10B5044600681B
:1048E00003F05CF9C1B2A06FBDE8104000F088BFD2
:1048F00013B504460DF10701006802F0A7FF30B9B7
:104900009DF80710A06F00F07BFF02B010BDFFF70D
:10491000A5F8014604F1780001F0EEF9F5E713B5CA
:1049200002A90023044601F8013DA83001F04EF829
:1049300020B99DF90710206802F092FF02B010BD67
:10494000FEE7FEE710B5044601F0BEFBFFF7B4F941
:104950000146A06FBDE8104000F052BF10B50446FC
:10496000006802F0D5F801462046BDE81040FFF788
:10497000BBBC10B50446006802F0CEF801462046E4
:10498000BDE81040FFF7B0BC1346074A10B4044618
:10499000106828B10A4621465DF8044BFFF74CB970
:1049A0000D205DF8044B704708120020F8B500F1A7
:1049B000780406460D4617468021712306222046BC
:1049C00001F07CF9014600284DD1002F45D12A790C
:1049D0002968204601F0E5F8002844D1297BB06F12
:1049E00000F00EFF00283ED18021B06F00F008FFDC
:1049F0000146002837D1204601F07EF898BB2046BA
:104A000001F0F7F878BB6979B06F00F0F9FE50BBA0
:104A1000697BB06F00F0F4FE28BB2969204601F0E5
:104A20007AF800BBE989204601F066F8D8B920463B
:104A300001F0FEF8B8B9204601F0DBF898B9394624
:104A4000204601F083F870B9204601F0F1F850B922
:104A50002046BDE8F84001F014B9204601F04CF8BA
:104A60000028BBD0F8BDF8BD014B1868FFF79EBF0A
:104A7000081200202DE9F04190F83F130646154634
:104A80009846002971D041F080011AB313681F784D
:104A9000C7F30017002306F1780486F83F33062297
:104AA000204601F00BF900285FD14046FEF7D6FF03
:104AB0000146204601F04AF8002856D13946B06F29
:104AC00000F09EFE002850D135B92046BDE8F041E7
:104AD00001F0D7B81746DDE7B8F1000FF5D1297915
:104AE000204601F009F800283FD12A792968B06FE3
:104AF00000F098FE002838D1297BB06F00F080FECE
:104B000098BB8021B06F00F07BFE70BB4146204611
:104B100000F0F2FF48BB204601F06BF828BB697932
:104B2000B06F00F06DFE00BB697BB06F00F068FEF7
:104B3000D8B92969204600F0EEFFB0B9E9892046CE
:104B400000F0DAFF88B9204601F072F868B9204613
:104B500001F04FF8014640B9204600F0F7FF20B9B8
:104B6000204601F065F80028AFD0BDE8F0810000D4
:104B700001480068FFF77EBF08120020F8B5FF2348
:104B8000044690F9407380F84033054654F8780B9A
:104B90000E46154901F0ACF9392306228021204642
:104BA00001F08CF8F0B9F9B2A86F00F029FEC8B98D
:104BB000F1B2A86F00F024FEA0B9204601F061F820
:104BC00080B9802130230622204601F077F8014683
:104BD00040B9A86F00F014FE20B92046BDE8F840A7
:104BE00001F04FB8F8BD00BF694A0000014B1868DA
:104BF000FFF7C4BF0812002010B5044654F8780B24
:104C000001F07EF901462046BDE8104000F09EBF4D
:104C100090F84113806F00F0F3BD10B500F2413100
:104C20000446A83000F0C0FE30B994F84113206863
:104C3000BDE8104001F06AB910BD73B504460068C4
:104C400001F09FF90546B8B904F1A806B4F8B030F0
:104C5000B4F8AE209B1A9BB2012B0DD90DF10601C1
:104C6000304600F0BFFE30B9BDF80610206801F0F4
:104C700056F90028EAD00546284602B070BD73B543
:104C80000446006801F086F90546B0B904F1A806AB
:104C9000B4F8B030B4F8AE209B1A9BB2072B0CD9F5
:104CA000082201A9304600F0C8FE28B90199206801
:104CB00001F03BF90028EBD00546284602B070BD54
:104CC00013B504460DF10601A83000F08BFE20B9A3
:104CD000BDF80610206801F03BF902B010BD13B515
:104CE0000822044601A9A83000F0A7FE18B90199CE
:104CF000206801F033F902B010BD13B504460DF180
:104D00000601A83000F06EFE20B9BDF8061020683C
:104D100001F005F902B010BD13B502A90023044645
:104D200041F8043D0822A83000F087FE18B9019927
:104D3000206801F0FAF802B010BD000013B502A916
:104D40000023044601F8013DA83000F02DFE60B9B3
:104D50009DF807305BB994F83A3313B1206801F03D
:104D6000C1F80021206801F0B5F802B010BD0121A2
:104D7000206801F0AFF80028F7D194F83A33002BFF
:104D8000F3D00249206801F0B3F8EEE7694A000069
:104D900013B504460DF10601A83000F023FE20B93A
:104DA000BDF80610206801F09AF802B010BD73B586
:104DB00000F1A8060C460DF1020201A9304600F0F0
:104DC00072FE054688BBBDF802207F2A30DCD2B2D5
:104DD0002546227155F8050B019907F01EFC29465E
:104DE000304600F0D1FD0546F8B920232373032394
:104DF0006373A37B43F00203A37304F10C013046F9
:104E000000F0C2FD88B904F10D01304600F0BCFD90
:104E100058B90DF10101304600F0C6FD28B9A37B59
:104E20009DF8012062F34103A373284602B070BDD0
:104E30000625FAE738B5044600680D4601F04DF83E
:104E4000E8B1206801F057F80146D0B12046FFF7DD
:104E5000AEFF034648B905F00F0384F83F330A4913
:104E6000206801F04AF8034668B11846FEF7F6FDDF
:104E7000294602462046BDE83840FEF77FBF0D2395
:104E8000F3E70323F1E738BD714B0000262A00F059
:104E9000888030D8072A00F0868012D8032A78D07C
:104EA00007D8012A4FF0000300F0818073D94C4AE3
:104EB00062E0052A4FF000035DD040F28880494A45
:104EC0005AE00D2A71D009D8092A4FF0000364D0A6
:104ED0005BD30C2A5BD0002303604EE0212A5ED016
:104EE00003D8202AF7D1404B4AE0222A71D0252A44
:104EF000F1D13E4B44E0372A5FD017D8312A60D039
:104F000007D8292A67D0302A59D0272AE3D1384B2D
:104F100036E0342A4DD003D8322ADCD1354B2FE08D
:104F2000352A48D0362AD6D1334B29E041F20B231B
:104F30009A4252D00BD841F208039A4243D041F230
:104F400009039A4241D0382AC5D12C4B18E0B2F55A
:104F5000804F14D005D841F203339A42BBD1284B7D
:104F60000EE044F201039A420DD044F202039A4249
:104F7000B1D1244B04E0244A026043607047234BC4
:104F800003600023F9E7224BFAE7224AF4E7224ABA
:104F9000F2E7224BF4E7224AEEE7224AECE7224B03
:104FA000EEE7224BECE7224BEAE7224BE8E7224A06
:104FB000E2E7224BE4E7224BE2E7224BE0E7224B19
:104FC000DEE7224BDCE7224BDAE7224BD8E7224A26
:104FD000D2E7224BD4E7224BD2E7224BD0E700BFE7
:104FE000874500009D4500004B410000F14800004E
:104FF000DB4800007F43000015420000C141000073
:10500000114C00004349000049450000414900009F
:1050100045490000BD450000DF450000394500005E
:1050200011450000D745000061410000C54800005F
:10503000B1450000A54500001B4500004B420000A3
:105040007F42000097420000934300005B43000052
:105050002D44000089480000414500005D490000E2
:1050600073490000F94B0000342A46D01AD8212A8F
:105070003BD009D80D2A34D0202A4AD0072A08D19B
:10508000254B0360002336E0302A3AD004D8252A85
:1050900029D0002303602EE0312A30D0322AF8D103
:1050A0001E4BEEE7382A22D006D8362A4FF00003EE
:1050B0001FD028D91A4A1DE041F203339A4224D066
:1050C00005D841F208039A42E3D1164BD9E741F2E1
:1050D00004339A421BD041F205339A42D9D1124B84
:1050E000CFE7124BCDE7124BCBE7124BC9E7124B80
:1050F000C7E7124A026043607047114BC1E7114B8A
:10510000BFE7114BBDE7114AF4E7114BB9E7114B6B
:10511000B7E7114BB5E700BFB94500008943000070
:10512000A1420000854400007F4C0000AD45000016
:105130001F49000079410000DF4100002D420000BE
:105140006342000063430000B9430000914D00003A
:105150001B4C00003B4C00003D4D000041F204336D
:105160009A420CD041F205339A424FF000030BD023
:1051700041F208018A4209D1054A026002E0054B6A
:105180000360002343607047034AF6E70360F9E7D2
:10519000D5440000FB4C0000194D000041F20433DF
:1051A0009A420CD041F205339A424FF000030BD0E3
:1051B00041F208018A4209D1054A026002E0054B2A
:1051C0000360002343607047034AF6E70360F9E792
:1051D000F3440000C14C0000DF4C000003685A1E7D
:1051E00070B511460446C3628B4202D9208901443E
:1051F000FAE72163022184F824100021E16384F896
:10520000401084F841104FF6FF716363A363A4F864
:1052100042106364934202D921890A44FAE7E364A5
:10522000236563650023A365A4F85C3004F15E0385
:10523000A264236704F12805284600F05BFF0146BD
:1052400018B1284600F054FFF6E704F11C0630467A
:1052500000F050FF054638B10146304600F048FFE7
:10526000284600F033FFF2E72034204600F042FFEA
:10527000054638B10146204600F03AFF284600F0C6
:1052800025FFF2E770BD10B501601144044641608E
:1052900002811C3000F026FF04F1200000F022FF04
:1052A00004F1280000F01EFF00232046E360236184
:1052B0006361A361FFF792FF204610BDC1600261E8
:1052C0007047416182617047012B0AD002D3022BE3
:1052D0000ED1FEE7114442688A4209D80389C91AEF
:1052E000FAE7891A0268914202D203891944FAE75F
:1052F00008467047012B0ED002D3022B15D1FEE7D2
:105300008A423FBF43685B1A0168511A2CBF511A89
:10531000C91888B270478A4281BF436800689A1AE8
:10532000091A94BF891A8918F3E70021F1E710B52B
:10533000144612120A700122FFF7C6FF047010BD56
:1053400010B5134601220C78FFF7BEFF0078240247
:10535000204480B210BD2DE9F041476B90F82480C5
:10536000826B0E46434639460446FFF7C3FF0128C9
:10537000054614DD424639462046FFF7E1FF023D6F
:10538000C5F30D05354340EA0502434692B239465E
:105390002046FFF7CCFFA36B6363BDE8F081A763F2
:1053A000BDE8F0812DE9F04790F82460022E804698
:1053B0000F4691461C4622D04D68436B9D4221D139
:1053C0003346826B2946FFF795FF3F688246334696
:1053D0003A4629464046FFF78DFF2044504511DCF0
:1053E0009CB119F8013B3B70394698F824300122F2
:1053F0004046FFF769FF013CA4B20746F0E70D20E5
:10540000BDE8F0870720BDE8F0872046BDE8F087BB
:105410002DE9F04790F82450022D04460F461CD089
:105420004E68436B9E4218D1D0F838802B464246D6
:105430003146FFF75FFF3F6881462B463A463146CB
:105440002046FFF757FF484507DA2B4642463946C4
:105450002046BDE8F047FFF74DBF0020BDE8F087CC
:105460002DE9F04190F82460022E04460F4616D034
:105470004D68436B9D4215D13346826B2946FFF739
:1054800039FF3F68804633463A4629462046FFF7B3
:1054900031FF404506DAA7630020BDE8F0810D200A
:1054A000BDE8F0810720BDE8F08190F82430022BA0
:1054B00070B504462BD00021FFF74DFF94F824303F
:1054C00004EB830304F12806DA6AE263626BDA62B2
:1054D000304600F00FFE054660B10146304600F050
:1054E00007FE94F824000730294604EB800000F002
:1054F000FCFDEDE7E5682DB1234694F82420E16B2F
:105500002069A847022384F82430002070BD0D20B4
:1055100070BDC06B7047826C036B9A4205D1436CBF
:10552000C06A1B1A5842584170470020704790F8D3
:10553000413033B9836C026B9B1A18BF012380F88A
:105540004030704738B50446806D08B9172038BD23
:10555000B4F85C5000F0BCFD8542F7DA04F15E055A
:1055600010232A46B4F85C10A06D00F0B3FD0028AB
:10557000ECD0B4F85C306565034428442067A4F897
:105580005C30002038BD38B590F84050C16C2A46D8
:105590000446FFF7D5FE430401D4172038BDA16DA2
:1055A000E81D04EB800079B900F0A4FDA065002897
:1055B000F3D00023A4F85C302046FFF7C3FF10B9F6
:1055C000022384F8413038BD00F096FDEEE7F8B5CF
:1055D000044694F84060256DE56404EB8607FB6A99
:1055E0009D4227D0324629462046FFF7A9FE0304F4
:1055F00002D57B6C9D421DD1C0F30D0233460232B1
:1056000029462046FFF760FE334607462065022202
:1056100029462046FFF758FE8742606504D00123E3
:1056200084F841300020F8BD2046FFF7ACFF002889
:10563000CFD1F8BD032384F841301720F8BD10B551
:105640000146FFF768FF044678B90846FFF76FFF89
:1056500091F8403001EB830308465B6C0B658C6569
:10566000CB64BDE81040FFF7B2BF172010BD90F823
:10567000410003281ABFB0FA80F0400901207047AA
:1056800090F84120012A38B5044603D0022A14D0EC
:10569000002510E0416D90F840300D78FFF714FEC2
:1056A000236D6065984206D12046FFF76CFF10B16C
:1056B0002046FFF78CFF284638BD436D026F13F874
:1056C000015B43659342F6D1FFF73CFFEFE7026BC6
:1056D000836C9A42426C03D190F8241001290CD1BA
:1056E000C16A8A4217D190F824206AB970470363CF
:1056F00083647047C36243647047531E02689A42D2
:10570000F5D901890B44FAE7426801339A42F1D88E
:1057100001895B1AFAE7704738B590F82430022BFC
:10572000044612D000EB830300F12805DB6A836393
:105730004363284600F0DEFC014618B1284600F01D
:10574000D7FCF6E7022384F824302046BDE8384031
:10575000FFF7BDBFF8B590F82440022C05460F4670
:1057600000D1FEE7866B2346002C0CBF2C24282496
:10577000012231462C44FFF7A7FD6368984203D00D
:105780003770A8630020F8BD2846FFF7C5FF032047
:10579000F8BD436B826B934270B504461DD190F8FF
:1057A000242000EB82020021D66AB3420CBF4FF4E2
:1057B00000460026FFF7CEFF054660B901462046A9
:1057C000FFF7C8FF054630B994F82430616B3246C4
:1057D0002046FFF7ACFD284670BD0025FBE738B535
:1057E00090F82430022B04460D4607D0FFF7D1FF76
:1057F00028B9A36B2B60636B6B6038BD0D2038BD7F
:1058000038B590F82430022B04460D4608D0FFF737
:10581000C0FF30B929462046BDE83840FFF79ABF9F
:105820000D2038BDF8B590F82430022B07460D4600
:10583000164610D0FFF7ADFF044650B92E44B542CE
:1058400007D015F8011B3846FFF784FF0028F6D073
:1058500004462046F8BD0D24FBE738B50D46044646
:10586000FFF75AFF0DB1012D01D184F8245094F8AF
:10587000243004EB8303DB6AA363636338BD2DE943
:10588000F0470446FFF747FE00285BD12046FFF7AC
:105890004EFE94F8403004EB83030B27D3F844808A
:1058A000464694F8405004EB850ADAF82C309E42C4
:1058B00030D02A4631462046FFF742FD10F4004F13
:1058C000814603D0DAF844309E4223D119F4804F48
:1058D00011D0E81D04EB800000F00CFC054650B12F
:1058E00094F840000730294604EB800000F000FCEB
:1058F000284600F0EBFBC9F30D02314694F8403026
:1059000002322046FFF7E0FC013F17F0FF07064692
:10591000C7D1FEE704EB850520466E64FFF7D7FE8E
:10592000656900264FF6FF7384F84160A4F84230A1
:105930005DB1A06994F8402023464146A84730460F
:10594000BDE8F0871720BDE8F0872846BDE8F0875E
:10595000002202608280C28002818272C2728281D1
:10596000C281704700228388C28003818272838152
:105970007047002908BF002210B501608280FFF740
:10598000F1FF8388838110BDC388028910B55C1C38
:1059900094429FBF0268D35C0B70C3889DBF0133E4
:1059A000C3800020062010BD13B50C460DF1070181
:1059B000FFF7EAFF18B99DF8073013B9207002B05D
:1059C00010BD012B0CBF23700620F8E713B50C4661
:1059D0000DF10701FFF7D8FF10B99DF807302370CC
:1059E00002B010BDC288038930B5941C9C420BD80C
:1059F0000468A3185D78A35C43EA05230B80C38881
:105A00000233C380002030BD062030BD37B5C388C7
:105A100004460D4601890068C91A184401AA00F01D
:105A200009FA0028C1BFE388C018019BE080D2BFFB
:105A3000062000202B6003B030BD10B5C488038958
:105A400022449A42DFBF03681B190B60C280D4BF97
:105A50000020062010BD38B5C3880D4601895A1CA8
:105A60008A42044601D9062038BD0068C91A184484
:105A700007F06CF9E3882289D21A92B29042F2D2EE
:105A800022681A44013318442A60E080002038BD9F
:105A900010B40389C4881B1B9BB213805DF8044BB0
:105AA0001A46FFF7CABF73B50E460DF1060105464B
:105AB0001446FFF797FF48B9BDF80620314628463F
:105AC000FFF7BBFF10B9BDF80630238002B070BDF0
:105AD000C38883810389C381837AC37270478389B2
