:1000000000000420B5020000DD020000DF02000055
:10001000E1020000E3020000E50200000000000031
:10002000000000000000000000000000E7020000E7
:10003000E902000000000000EB020000ED020000F9
:1000400059120000991203003D730200EF020000F4
:10005000EF020000EF0200005D160000EF0200005A
:10006000EF020000EF020000EF020000EF020000CC
:10007000EF020000896F0200EF020000EF020000B3
:10008000EF020000ED080000EF020000EF020000A8
:10009000B5090000EF020000EF020000EF020000CF
:1000A000EF020000EF020000EF020000EF0200008C
:1000B000EF020000EF02000000000000000000005E
:1000C000EF020000EF020000EF020000EF0200006C
:1000D0000D680200EF020000EF020000EF020000D6
:1000E000EF020000EF0200009DD9020000000000B6
:1000F00000000000EF02000000000000EF0200001E
:1001000000000000000000000000000000000000EF
:1001100000000000000000000000000000000000DF
:1001200000000000000000000000000000000000CF
:1001300000000000000000000000000000000000BF
:1001400000000000000000000000000000000000AF
:10015000000000000000000000000000000000009F
:10016000000000000000000000000000000000008F
:10017000000000000000000000000000000000007F
:10018000000000000000000000000000000000006F
:10019000000000000000000000000000000000005F
:1001A000000000000000000000000000000000004F
:1001B000000000000000000000000000000000003F
:1001C000000000000000000000000000000000002F
:1001D000000000000000000000000000000000001F
:1001E000000000000000000000000000000000000F
:1001F00000000000000000000000000000000000FF
:1002000010B5054C237833B9044B13B10448AFF350
:1002100000800123237010BD500200200000000068
:1002200004CC030008B5034B1BB103490348AFF3EB
:10023000008008BD000000005402002004CC030030
:10024000154B002B08BF134B9D46A3F5803A0021A8
:100250008B460F461348144A121A32F03AF90F4BE4
:10026000002B00D098470E4B002B00D09847002061
:10027000002104000D000D48002802D00C48AFF307
:10028000008032F0B1F82000290002F07BF932F052
:1002900085F800BF000008000000042000000000F6
:1002A0000000000050020020FCF2002000000000CE
:1002B000000000000649074A074B9B1A03DD043B78
:1002C000C858D050FBDC02F0D5FAFFF7B9FF0000A8
:1002D00010CC03000000002050020020FEE7FEE7E3
:1002E000FEE7FEE7FEE7FEE7FEE7FEE7FEE7FEE7E6
:1002F000074B1B5C1F2B8ABF064A4FF0A04203F03E
:100300001F03D2F80405D840C04300F00100704735
:100310002C3E030000030050074B1B5C1F2B86BFC5
:1003200003F01F0305494FF0A041012202FA03F335
:10033000C1F80C35704700BF2C3E0300000300508D
:10034000074B1B5C1F2B86BF03F01F0305494FF0B3
:10035000A041012202FA03F3C1F80835704700BF3B
:100360002C3E0300000300504FF0A0434FF48000E8
:100370004FF400014FF08072C3F80805C3F8081568
:10038000C3F80825704700BF4FF0A0434FF480002A
:100390004FF400014FF08072C3F80C05C3F80C1540
:1003A000C3F80C25704700BF0A4B195C1F298ABF90
:1003B00009484FF0A04001F01F01D0F80435012298
:1003C0008A4022EA03011340C0F80815C0F80C3532
:1003D000704700BF2C3E030000030050203818BFB8
:1003E0004FF0FF30704700BFC10706D4830742BFFC
:1003F000114B0C22C3F8002770474FF0A043032293
:1004000030B44FF08071C3F858274FF48005C3F81B
:100410005C274FF40004C3F860278207C3F808552F
:10042000C3F80845C3F8081503D5034B0C22C3F8DD
:10043000002730BC704700BF00030050434B1978C1
:10044000002900F081802DE9F04F002487B00125BC
:100450008E4603E00134E4B2744560D23C4B27B2CF
:100460001E6816F837C0ACF1200205FA02F9394AC5
:10047000CCF12003D2E9000125FA03F349EA03098C
:1004800005FA0CF800EA080201EA0903134306EB37
:10049000C70BDFD021EA09032E4920EA0802604693
:1004A000C1E9002301F0CAF816F837C0ACF1200208
:1004B00005FA02F201920199CCF12003C6B225FAA5
:1004C00003F3ACF12002194306FA02F30393224B23
:1004D0000191D3E90023CDE9042305FA0CF300933D
:1004E000CCF12001039B26FA01F10B43039306FA9A
:1004F0000CF30293DDE90467DDE9002316401F4099
:1005000032463B46DDE90267BB4208BFB24209D032
:100510000E4B013493F800E0E4B274459ED307B06B
:10052000BDE8F08F9BF80110DBF80430A1F1010168
:10053000B1FA81F14909091AB1FA81F14909002B8F
:10054000E6D060469847E3E7704700BF6C020020A2
:10055000A8020020A0020020980200202DE9F84FF8
:100560000646244800F0A4FCD8B9234F0123A6F185
:10057000200103FA01FBC6F12002D7E9000123FAAA
:1005800002F24BEA020B03FA06FA00EA0A0201EA57
:100590000B03134307D020EA0A0421EA0B05C7E93D
:1005A0000045BDE8F88F304601F048F8134ED6E913
:1005B0000089C8B148EA0A0349EA0B049846A146F3
:1005C000D7E900234BEA03050D4B0A4819684AEAAC
:1005D00002044B464246C6E90023C7E90045002213
:1005E000BDE8F84F00F016BC28EA0A0829EA0B0912
:1005F000E6E700BF74020020A0020020980200205D
:1006000070020020042A36D92DE9F04182B00E464E
:100610000546144600F09CFE002836D01D491E4AAF
:100620001E4B0D601E481F491C60167000230022DF
:10063000741EC0E90023C1E90023E4B2EEB105EB6A
:10064000C404194F083D4FF00008032601E0AC42F6
:1006500013D0A37820788DF806803A4601A98DF84A
:1006600004608DF8053000F07DFE083C0028EED0D7
:1006700002B0BDE8F081072070470C4A0C48002109
:1006800000F0B6FB02B0BDE8F08100F017FE0028D4
:10069000C4D0EDE7A80200206C0200207002002008
:1006A00098020020A00200205D0500003D0400002B
:1006B000303E030070B5084D2B785BB1074E002427
:1006C0003368012113F8340000F03CFF2B7801342B
:1006D000A342F5D8002070BD6C020020A8020020C3
:1006E00000B585B000230390194601AA44F2010029
:1006F000CDE9013300F004F805B05DF804FB00BF5C
:1007000072B6094B1B68DB0700D500BEBFF34F8FE5
:100710000649074BCA6802F4E0621343CB60BFF39B
:100720004F8F00BFFDE700BFF0ED00E000ED00E0FF
:100730000400FA05F0B412F0030412D14B1CDB00E4
:100740000A4D0B4E0B4F34709BB213442B600A4E74
:100750000A4D0B4B28803A60347019802046F0BC5B
:10076000704707242046F0BC704700BFB00200204D
:10077000AC020020B4020020BC020020B80200201D
:10078000BA0200202DE9F047294F3B888B4235D330
:100790000546002016460C4600F0BEFB254B264AB7
:1007A0002648197813780088DBB2834238BF0133BA
:1007B000C9B234BFDBB20023994222D092F8008044
:1007C0001378DFF88090DBB2984286BF0133DBB24A
:1007D00000235FFA88F80020137000F0A5FBD9F819
:1007E00000300FFA88F24FEAC20A43F832605344ED
:1007F00005B164B900209880BDE8F0870920BDE804
:10080000F087002000F090FB0420BDE8F0870C4B3F
:1008100038881B68294608FB0030224631F035FE37
:10082000D9F800309A440020AAF80440E4E700BF59
:10083000B8020020BC020020AC020020BA02002056
:10084000B0020020B40200202DE9F84F1B4C1C4DD3
:1008500022782B789A4226D0DFF86CA0DFF86C90D3
:10086000184FDFF86CB04FF000082378DAF800205A
:100870003888D9F80060DBB20FFA83FE02EBCE01B4
:1008800003FB0060898852F83E3098472378BBF814
:100890000010DBB25A1C9942D2B206D922702378DA
:1008A0002A789A42E1D1BDE8F88F84F80080227856
:1008B0002B789A42D9D1BDE8F88F00BFBC02002046
:1008C000AC020020B8020020B4020020B0020020D8
:1008D000BA020020082910B5044602D00020FFF714
:1008E000FFFED4E90030BDE8104018472DE9F04183
:1008F000284A294B0024C2F84041C2F84441C2F8BA
:100900004841C2F84C41C2F80041C2F804411B689A
:1009100082B033B32149D2F804550A68204EAD1A8B
:100920001A6825F07F45AA4227460CD8197CD3F8CF
:100930001C80AD1A1444B9B9B8F1000F03D0434676
:100940001A68AA42F2D91749174A0B7812789A42C4
:1009500019D01649164A41F823404FF48013C2F8C3
:10096000003102B0BDE8F0811F74D3E905320821DF
:100970000192684632460093FFF704FF0028DBD05F
:10098000FFF7AEFED8E7531CDBB2022B08BF0023F3
:100990000B70DEE700100140E0030020DC030020C4
:1009A000D5080000D9030020D8030020D003002080
:1009B00000E100E02DE9F04F8C4A8D491378097869
:1009C000DFF85082994285B0D8F800A000F07B8112
:1009D0000133DBB2022B08BF002386481370864A1E
:1009E000076852F823107B1823F07F43002403602C
:1009F000534626462046A446ABB11A688A4200F206
:100A00006581DC68C3F800C0891A1044DA6934B122
:100A10003D1825F07F45C3E90154DE611E461346AB
:100A20000124002BE9D1002C40F07C8101230093AC
:100A3000724B734FDFF8E09143F001030193554689
:100A40004FF0000B46B3D6E901C13446F669694B55
:100A50006C481A68ACEB020323F07F43834248D80A
:100A60000B44236000220121C4E90122E2612174C8
:100A7000002D5DD02A689A424DD2284603E00A68CC
:100A80009A424FD20846C1699B1A0029F7D12360C8
:100A9000E161C461002ED6D178783978884264D07B
:100AA0000B4603EB43034C1CBA7807EBC303E1B2DC
:100AB0008A421A79397004BF00213970022A9C6871
:100AC00044D0032A38D0012AE8D1227C002AE5D17B
:100AD000D3F80CC0C4F804C01969A1605869E0607B
:100AE00099F800009B69A3610028B0D06260944629
:100AF000ADE7A2EB0C0222F07F428A4202D28B1AAF
:100B00002360AFE700230122C4E90033A360E3615F
:100B100022746DB12A68C8F80040D31A2B60E561D1
:100B200025468FE7D21A0A602360E161C461B1E70C
:100B3000C8F80040254685E7002DAFD000232B7470
:100B4000ED69002DFBD1C8F80050A5E74DB1AC42CE
:100B50002B4603D1E4E094422FD01346DA69002AF1
:100B6000F9D10023237488429AD1BBF1000F01D13F
:100B7000554553D0002D56D1234E244A1F4C4FF4D7
:100B800080334FF400310127C2F880103C43C6F88F
:100B900048334FF43C60C6F808337760A047154BE4
:100BA000B7604FF43C601D60A047194B1D700023D7
:100BB00089F8003005B0BDE8F08FA34200F09180C5
:100BC000E0692168D861002800F086802A46036821
:100BD0000B440360AA424FF00003397878782374FD
:100BE0001CBF15464FF0010BBDE700BFD803002026
:100BF000D9030020DC030020D0030020403E030086
:100C0000C0020020FEFF7F000010014000E100E074
:100C1000CD030020E0030020CC030020009B002B2C
:100C2000C5D0002DA8D0434B434A1C68D2F80465B8
:100C3000424FD5F800A03978331B23F07F43DD1CE9
:100C4000B9B93F493F4B4FF48030C2F844034FF0ED
:100C50000108C2F804034FF40030C1F8800143F0EA
:100C600001030860C2F800804FF43C60984787F8A1
:100C70000080AA452CBF04EB0A0363192E4923F018
:100C80007F43C1F84035D1F80425921B9B1B22F00D
:100C90007F4223F07F4303329A4288D9294BD1F80F
:100CA0000425C1F8402543F001034FF43C60984708
:100CB000234B4FF40032C3F80021002389F80030A1
:100CC00005B0BDE8F08F00260096B1E674BB521A5D
:100CD0001A6001230093ABE60023397878782374F7
:100CE00041E71946EA69C8F8002092B9CDE9023116
:100CF000114BDFF840C001209860019B89F800008B
:100D0000CCF800204FF43C609847DDE90231D8F878
:100D10000020C8690968D86100287FF458AF59E7F6
:100D20002946DFE7C8F800309A467FE6C8F8003069
:100D30009A46CCE7DC03002000100140CD030020E0
:100D400000E100E0403E03002DE9F8431F4D204E36
:100D5000204FDFF898804FF480334FF400324FF08B
:100D600001090024C6F8802047EA0907C5F848337E
:100D70004FF43C60C5F80833C5F80490B847C5F88F
:100D800008904FF43C60C8F80040B847124A134B33
:100D900013491C601470134B134A0C700B21147010
:100DA0001C8099704FF48012C023C6F8802186F809
:100DB00014333260C5F8084586F81133D5F8043588
:100DC000C8F800302046BDE8F88300BF001001409D
:100DD00000E100E0403E0300CD030020E0030020DE
:100DE000D8030020C0020020D9030020DC0300202B
:100DF000074B9B784BB132B128B10368187C20B9FE
:100E000059745A617047072070470820704700BF27
:100E1000C00200202DE9F843224CA378002B35D0E6
:100E2000002833D0042934D943697BB3437C064678
:100E3000012B4FF000000CBF8846804617468946BC
:100E400000F06AF86378A17822785D1CEDB2A942BF
:100E500008BF0025AA421FD003EB430304EBC303E2
:100E60000121114A9E601971D2F80425DA60002030
:100E7000C3E904989F61657000F056F80B4B4FF47E
:100E80008012C3F800210020BDE8F8830820BDE8E7
:100E9000F8830720BDE8F883002000F045F804201F
:100EA000F2E700BFC00200200010014000E100E0B6
:100EB00070B5174DAB7823B318B343690BB3002457
:100EC00004740646204600F027F86A78A878297846
:100ED000531CDBB2984208BF2346994213D002EB61
:100EE000420205EBC20202219660204611716B702E
:100EF00000F01AF8074B4FF48012C3F80021204687
:100F000070BD082070BD204600F00EF8042070BDB2
:100F1000C002002000E100E072B6024A136801330B
:100F200013607047E4030020034A1368013B136019
:100F300003B962B6704700BFE403002010B570B17A
:100F400001280BD10D4C2369A0703BB1D3E90023DC
:100F50000120226198472369002BF7D110BD074C6F
:100F6000A36801226270002BF8D0D3E9002300208F
:100F7000A2609847A368002BF7D1EFE7E8030020B1
:100F800038B50A4C23786BB909486360A3602361C4
:100F9000E36000F0F7F8054600F002F90123237042
:100FA000284638BD8525284638BD00BFE803002007
:100FB0003D0F000038B5154CA378054673B110B14C
:100FC0004368012098470020FFF7A6FFE36801333C
:100FD000E3600020BDE83840FFF7A6BF03F0FF0044
:100FE000FFF79AFF65B1226942B1954208D01346D6
:100FF00001E09D4204D01B68002BFAD12A602561D4
:10100000E368002BE2D100F0DDF8DFE7E803002021
:1010100038B5084C0020FFF77FFFE368013BE36031
:10102000E56815B900F0E6F8A5700020BDE8384085
:10103000FFF77ABFE80300204FF08043D3F818048D
:10104000C0F30040704700BF38B5154C63780546C3
:1010500073B110B14368002098470020FFF75CFF90
:101060006368013363600020BDE83840FFF75CBF70
:1010700003F0FF00FFF750FF65B1A26842B195424F
:1010800008D0134601E09D4204D01B68002BFAD122
:101090002A60A5606368002BE2D100F0B7F8DFE7B3
:1010A000E803002038B5084C0020FFF735FF6368DF
:1010B000013B6360656815B900F0BAF865700020FF
:1010C000BDE83840FFF730BFE80300204FF0804311
:1010D000D3F80C0400F00110A0F10110B0FA80F078
:1010E000400970470A4A0223C2F80435BFF36F8FE4
:1010F000BFF34F8FC2F80805D2F80034002BFBD0A5
:101100000023C2F80435BFF36F8FBFF34F8F7047D2
:1011100000E001409AB32DE9F047194CA0EB01081B
:101120000D468E18C0004FF0FF0E4FF0010C002747
:1011300008EB050222F0030200F01809116815F807
:10114000013BC4F804C50EFA09FA21EA0A01BFF30B
:101150006F8FBFF34F8F03FA09F30B441360D4F87A
:101160000034002BFBD0C4F80475BFF36F8FBFF3BE
:101170004F8FAE4200F10800DAD1BDE8F08770472A
:1011800000E00140054A13792BB901211060537129
:101190001846117170478520704700BFFC0300207E
:1011A000074B1A68D20704D4C021012283F8001328
:1011B0001A604FF080430122C3F81825704700BF22
:1011C00000E100E010B4094B094A0021196083B026
:1011D0001B680193019C4FF0804102200123C1F85C
:1011E0000403136003B05DF8044B70470401004032
:1011F00008000040044B01221A604FF08042D2F8F0
:101200001834DB03FBD470470C000040074B00226E
:101210001A6082B01B68019301994FF0804301224C
:10122000C3F804231A6002B0704700BF00010040F9
:10123000074B01221A604FF08042D2F80C3403F0C1
:101240000113B3F1011FF8D0024B00225A7170470D
:1012500004000040FC03002010B5154B1A6882B052
:101260007AB10021134A19601B68507900934FF03E
:1012700080410123009CC1F8083310B911685371F3
:1012800088470D4B1A6882B100221A601B680193CF
:101290004FF080420221074B0198C2F808131B68E7
:1012A000012002B0BDE81040184702B010BD00BFD9
:1012B00000010040FC0300200401004030B5204C38
:1012C00094F86A5083B0002D36D14FF0FF33294691
:1012D000062204F16400C4E90033C4E90233C4E91E
:1012E0000433C4E90633C4E90833C4E90A33C4E962
:1012F0000C33C4E90E33C4E91033C4E91233C4E932
:101300001433C4E91633236631F0E3F80D4A0E4B6B
:101310000E491D60C02082F80603402010601B6843
:10132000019301984FF000430122284684F86A2077
:10133000C1F8043303B030BD082003B030BD00BF96
:101340000404002000E100E07C61004000600040F7
:10135000034B93F86A00003018BF0120704700BFAC
:1013600004040020F0B5744B1C1894F93050002D83
:101370006ADA8E78C6F340069646002E5ED11D6A64
:10138000013500F0C48009240C2553F8247001377E
:101390005DD004F1010C53F82C70013700F0C280CD
:1013A000A71CAF4248D253F82720013200F0BC807E
:1013B00004F1030CAC453FD253F82C70013700F018
:1013C000B18004F1040CAC4536D253F82C700137CF
:1013D00000F0A88004F1050CAC452DD253F82C7018
:1013E000013700F09F8004F1060CAC4524D253F87D
:1013F0002C70013700F0968004F1070CAC451BD22D
:1014000053F82C70013700F08D8004F1080CAC45C6
:1014100012D253F82C70013700F0848004F1090CCB
:10142000AC4509D253F82C7001377BD00A34AC425A
:1014300002D2DC6A013409D00420F0BD1D680135F8
:1014400074D001240825A0E70820F0BD0B241F1844
:1014500065B243F824E087F83050002E5ED08A78D9
:1014600054071AD4D60741D41F284A7887BF334E71
:1014700000F01F0404464FF0A04604F5E07492000B
:1014800046F824202E4EC40800F0070C375D0122D8
:1014900002FA0CF23A4332558A780C7812F00202C2
:1014A00009D1083D2B44104693F8602042EA841489
:1014B00083F86040F0BDAB0003F1804303F5C04307
:1014C0000202D3F8101521F44F3121F44071C3F812
:1014D00010152404D3F8101504F4403402F47C529F
:1014E00022430A43C3F810250020F0BD1F2887BF00
:1014F000124A00F01F0404464FF0A04202EB84029F
:10150000D2F8004724F00204C2F80047BAE70826E0
:1015100084F83060C3F820E0354634461C4484F833
:1015200058009CE7644692E73C4690E700251A6025
:1015300084F8305093E700BF0404002000030050FB
:101540006804002070B43A4D2E1883B096F93030FC
:10155000072B20DD2B4493F858309B09032B45D0F3
:10156000012B14BF4FF440314FF400311F284DD9E7
:1015700000F01F002F4B03EB8000D0F8002722F46F
:101580004032C0F80027D0F800370B43C0F80037CE
:1015900003B070BC7047DAB2072AF9D8980000F19E
:1015A000804000F5C04003F14002D0F810459200A1
:1015B00092B244F0010402F18042C0F8104502F5F5
:1015C000C04200200190019C10600029E0D096F9F3
:1015D000302055F82220002ADAD00122164902FADA
:1015E00003F3C1F8043303B070BC70471F2810D94F
:1015F000104BD3F8103500F01F00C34013F0010F5B
:101600000CBF4FF400314FF44031B3E74FF0A0432B
:10161000B1E74FF0A0421346D2F81025C24012F0B5
:10162000010F14BF4FF440314FF40031A3E700BF66
:101630000404002000030050006000401F288ABFFF
:10164000054B4FF0A04300F01F00D3F8103523FAEC
:1016500000F000F001007047000300502DE9F04752
:10166000002388B0CDE90233CE4A1168012900F089
:101670003B821E46CC4B1A68012A00F02782CB4BD6
:101680001A68012A00F01482C94B1A68012A00F076
:101690000182C84B1A68012A00F0EE81C64B1A6815
:1016A000012A00F0DB81C54B1A68012A00F0C881CD
:1016B000C34B1A68012A00F0B581C24B1A68012A8F
:1016C0000FD100221A601B6801934FF0A042019BCA
:1016D000D2F81025BC4B0292D3F81035039346F094
:1016E000004616F0FF0F1AD0B84F01250024A300C2
:1016F00003F180432E4203F5C0434FEA45050BD06A
:10170000D3F8100557F82420D3F81015C0F305209E
:10171000C1F3014102B190470134082CE7D1002EFA
:1017200002DB08B0BDE8F087A84CA74F4FF0FF33AD
:10173000CDE9063394F960300DF1100800225D1CEC
:10174000C8F8042004924FF0010600F0F4805FFA1C
:1017500083FC2CF0C00008AB4FEAD00903EB090E64
:101760000CF007031EF8082C06FA03F312EA03052F
:1017700021D022184FEA9C1192F9302054F82220EF
:10178000002A00F02981032900F028811F2800F297
:10179000F98005464FF0A04C0CEB850C1EF8185C48
:1017A000DCF800E71D40CEF3014E40F0DF80BEF1D3
:1017B000030F00F0E68194F96130581C32D0DBB29F
:1017C00023F0C00008AA4FEAD00E02EB0E0C03F083
:1017D00007011CF8082C06FA01F912EA090F21D0BA
:1017E0002218990992F9302054F82220002A00F09A
:1017F000FB80032900F0FB801F2800F2E9800346EC
:101800004FF0A04E0EEB83031CF818ECD3F800C782
:101810001EEA090FCCF3014C40F0B880BCF1030F75
:1018200000F09B8194F96230591C30D0DBB223F078
:10183000C00008AA4FEAD00E02EB0E0C03F007011D
:101840001CF8082C06FA01F912EA090F1FD0221819
:10185000990992F9302054F82220002A00F0D8800B
:10186000032900F0D8801F287CD803464FF0A04EF3
:101870000EEB83031CF818ECD3F800C71EEA090F1F
:10188000CCF3014C64D1BCF1030F00F0528194F908
:1018900063305A1C34D0DBB223F0C00008AA4FEAF0
:1018A000D00E02EB0E0C03F007021CF8081C06FA1F
:1018B00002F2114224D004EB0009990999F9309001
:1018C00054F82990B9F1000F00F09880032900F036
:1018D00098801F288BBFBE464FF0A04E03F01F0319
:1018E00003460EEB83031CF818ECD3F800C71EEA7E
:1018F000020FCCF3014C20D1BCF1030F00F00081AA
:10190000002D3FF40EAF4FF0A0430299D3F81035ED
:10191000D7F81025994203D1039991423FF401AFC2
:10192000DDE90401CDE9023294F960305D1CCDE9B6
:1019300006017FF40CAF00253DE7BCF1020FDFD1BB
:10194000032900F03081B9F1000F40F0F080D7E7B3
:10195000BCF1020F9BD1032900F02881002A96D008
:10196000904794E703F01F03BE4681E7BEF1020FE4
:10197000E1D1032900F020810025002A3FF41BAFAC
:10198000904718E70CF01F05BC4605E7BCF1020FB5
:101990007FF448AF032900F00C81002A3FF442AFE6
:1019A00090473FE70061004004610040086100404B
:1019B0000C6100401061004014610040186100405B
:1019C0001C6100407C6100400003005004040020C2
:1019D00003F01F03BE4615E70329ACD118F80950E0
:1019E0001D4308F80950D1E603297FF41BAF18F80E
:1019F0000EA04AEA090A08F80EA0FDE603297FF4C2
:101A00007FAF18F80EA04AEA020A08F80EA060E7B5
:101A100003297FF43CAF18F80EA04AEA090A08F837
:101A20000EA020E7664AD2F8042317067FF545AEDC
:101A300000221A601B680093009B46F080063CE67B
:101A40005F4AD2F8042352067FF532AE00221A60B4
:101A50001B680093009B46F0400629E6584AD2F8DE
:101A6000042391067FF51FAE00221A601B680093C5
:101A7000009B46F0200616E6514AD2F80423D00611
:101A80007FF50CAE00221A601B680093009B46F0A5
:101A9000100603E64A4AD2F8042314077FF5F9AD8D
:101AA00000221A601B680093009B46F00806F0E5D0
:101AB000434AD2F8042355077FF5E6AD00221A60A9
:101AC0001B680093009B46F00406DDE53C4AD2F813
:101AD000042397077FF5D3AD00221A601B6800939B
:101AE000009B46F00206CAE53549D1F8046316F0BA
:101AF00001063FF4BFAD136013680093009BB9E586
:101B000003297FF420AF4FF4003CD3F8002722F4E0
:101B10004032C3F80027D3F80027013542EA0C020F
:101B2000EDB2C3F80027B9F1000F3FF4ECAEC8479F
:101B3000E6E603297FF412AF4FF4003ED3F800C766
:101B40002CF4403CC3F800C7D3F800C701354EEA77
:101B50000C0CEDB2C3F800C700E703297FF41DAFFA
:101B60004FF4003ED3F800C72CF4403CC3F800C744
:101B7000D3F800C701354EEA0C0CEDB2C3F800C72C
:101B80000BE703297FF4F9AE4FF40035DCF800379A
:101B900023F44033CCF80037DCF800372B43CCF883
:101BA00000370125E9E64FF4403CAEE74FF4403EF4
:101BB000C4E74FF4403ED5E74FF44035E6E700BFB9
:101BC000006000400220FEF7EFBB00BF2DE9F041AE
:101BD0000C460546FEF702FCB8B9012C17D00BD312
:101BE000022C12D1134B5C787CB1134B1B6863B190
:101BF0002046BDE8F04118471048FFF759F90D4A53
:101C00000F4B94781B78A342EED0BDE8F081094ECB
:101C1000737834781BB90A4BB2781A70E4E7094F2D
:101C200006483A464FF40041FFF7F4F80028F2D195
:101C30003D70F0E7D4040020E0040020940400206C
:101C4000E80400207004002010B50078FEF7C6FB01
:101C500040B9054B587828B1044B1B6813B1BDE857
:101C60001040184710BD00BFD4040020E00400203D
:101C7000AB4B1B68DB0700D4704770B5A94DAA4E6B
:101C80002B78347853B1A94B1B7800202870002B97
:101C900048D0FEF755FB0120FEF752FB172C40D829
:101CA000DFE814F0A900E400E400CC00F800BA007A
:101CB0000301DE00500043005000430061001800A3
:101CC00018001800180018006600740085009600BF
:101CD0005D005D009648FFF7EBF8D4F1110405466E
:101CE00000F0F080002840F0ED80012C13D0C823D4
:101CF00003FB04F44FF4FA704FF400430021C3FBDC
:101D000004014FF47A72002331F004FF2A460146A1
:101D10008748FFF77FF80220FEF7FEFA834B012287
:101D20001A7070BDFEF720FBB8E7012318462B7030
:101D3000FEF73AFB00224FF480417E48BDE8704038
:101D4000FFF768B8012318462B70FEF72DFB002221
:101D500040F6CD417748BDE87040FFF75BB8FEF72D
:101D600013FB347070BDFEF70FFB0C23337070BD96
:101D70006E4B1B78002B00F0AF800020FEF7E0FADE
:101D80000120FEF7DDFA1223337070BD674B1B781C
:101D9000002B00F0A4800020FEF7D2FA0120FEF70D
:101DA000CFFA0020FEF7B8FA1323337070BD5F4BF3
:101DB0001B78002B00F0A3800020FEF7C1FA012061
:101DC000FEF7BEFA0120FEF7A7FA1423337070BDA8
:101DD000564B1B78002B7CD00020FEF7B1FA012077
:101DE000FEF7AEFA0020FEF797FA0120FEF794FA0C
:101DF0001523337070BD4D4B1B78002B00F087808E
:101E00000020FEF79DFA0120FEF79AFA4948FFF7F5
:101E10004FF80023337070BD0020FEF769FA0028E8
:101E200060D00020FEF78CFA05233370002241F6C3
:101E30009A114048BDE87040FEF7ECBF0020FEF765
:101E400057FA00285ED00020FEF77AFA46F2666163
:101E50000323337000223748BDE87040FEF7DABF35
:101E60000020FEF759FA0723337070BD0020FEF7FB
:101E70003FFAD0B30020FEF763FA022C4EF26661FF
:101E800018BF4FF40031347000222A48BDE870407A
:101E9000FEF7C0BF0020FEF72BFAD8B30020FEF7F4
:101EA0004FFA4FF400310423D3E70020FEF77CFA09
:101EB00006233370002240F6CD411E48BDE8704035
:101EC000FEF7A8BF0220FEF73BFA184B00221A705B
:101ED00070BDFEF749FA85E7FEF746FA53E7FEF7CD
:101EE00043FA5EE7FEF718FA9EE7FEF715FA43F2AB
:101EF000333141F69A13022C08BF1946C3E7FEF7A7
:101F000033FA5FE7FEF708FA41F69A11A0E7FEF709
:101F10002BFA7BE7FEF700FA43F23331C3E700BF49
:101F2000D8040020DC040020E40400207104002018
:101F300074040020B404002038B5BC4B1C6814F0B5
:101F4000010401D1204638BDB94C237805464BB178
:101F5000B84B1B78002020700BB3FEF7F1F901207D
:101F6000FEF7EEF9172D00F25E81DFE815F0B700FD
:101F7000DD00DD000101CA001401F3002701280083
:101F80001B0028001B0064006B006B006B006B00E3
:101F90006B009400A400350048005E005E00FEF770
:101FA000E3F9DFE7012318462370FEF7FDF900226D
:101FB0004FF48041A048BDE83840FEF72BBF012315
:101FC00018462370FEF7F0F9002240F6CD419A48FA
:101FD000BDE83840FEF71EBF964B1B78002B00F083
:101FE00007810020FEF7ACF90120FEF7A9F90120D6
:101FF000FEF792F9914B14221A700024A2E78D4B40
:102000001B78002B00F0F7800020FEF799F90120E3
:10201000FEF796F90020FEF77FF90120FEF77CF924
:10202000864B15221A7000248CE7FEF7ADF9834B1E
:1020300000241D7086E7FEF7A7F9804B0C221A706A
:1020400000247FE77E48FEF733FF0446D5F11100F8
:1020500000F0BC80002C40F0B980012814D0C825C5
:1020600005FB00F54FF400434FF4FA700021C3FB69
:1020700005014FF47A72002331F04CFD22460146EF
:102080006F48FEF7C7FE04460220FEF745F9694B8C
:1020900001221A7056E7674B1B78002B00F0A580D1
:1020A0000020FEF74DF90120FEF74AF9634B12229A
:1020B0001A70002446E75F4B1B78002B00F08D80E0
:1020C0000020FEF73DF90120FEF73AF90020FEF767
:1020D00023F95A4B13221A70002433E7554B1B780F
:1020E000002B00F08B800020FEF72AF90120FEF77C
:1020F00027F95148FEF7DCFE504B002204461A70C7
:1021000020E70020FEF7F4F8002869D00020FEF751
:1021100017F94FF40031494B474804241C70002242
:10212000BDE83840FEF776BE0020FEF7E1F8002853
:102130006CD00020FEF704F9022D4EF2666118BF44
:102140004FF400313D4B3C481D700022BDE8384043
:10215000FEF760BE0020FEF727F9384B364806240C
:102160001C70002240F6CD41BDE83840FEF752BE5B
:102170000020FEF7BDF8002843D00020FEF7E0F86D
:1021800046F266612D4B2C4803241C700022BDE8EA
:102190003840FEF73FBE0020FEF7AAF800283FD0E7
:1021A0000020FEF7CDF8254B234805241C700022A3
:1021B00041F69A11BDE83840FEF72CBE0020FEF72C
:1021C000ABF81E4B07221A700024BBE60220FEF774
:1021D000B7F8184B00221A70B4E6FEF7C5F875E799
:1021E000FEF79AF843F2333195E7FEF7BDF85DE765
:1021F000FEF7BAF8FBE6FEF7B7F80BE7FEF7B4F820
:1022000077E7FEF789F841F69A11BBE7FEF784F805
:1022100043F2333141F69A13022D08BF194691E774
:10222000FEF77AF8BFE700248CE600BFD804002050
:10223000DC04002071040020B4040020E404002029
:102240007404002038B5214B214A196083071060BF
:1022500000F0010503D49DB92C46204638BD1D4B26
:102260001D480E241C7040F266620121FEF7CAF977
:102270000446B8B115B10120FEF7B6F8204638BDC6
:102280000120FEF7B1F8154A15480021FEF7B0FD10
:1022900004460028F2D1134A13480121BDE8384012
:1022A000FEF7A6BDFEF706FA04460028E2D1014675
:1022B0000E4A0F48FEF79CFD0446002DDED001209B
:1022C000FEF792F8002CDED0D8E700BFE004002033
:1022D000D8040020D4040020483E0300711C0000F4
:1022E000583E0300C51B0000503E0300491C00007F
:1022F000543E030008B51B78802B00D008BD0D4B61
:10230000072201201A70FDF7F3FF60B9FEF704F809
:102310000120FEF701F8002241F69A110648BDE8B7
:102320000840FEF777BD0020FEF70AF80120FEF70F
:1023300007F8F0E71C05002020050020420700D424
:10234000704708B5084605F00CFF88B1831E022BC4
:102350000A4A06D9062313701846BDE80840FFF75D
:10236000EBBD072313701846BDE80840FFF7E4BD36
:10237000024A1070BDE80840FFF7DEBD0D050020E1
:1023800008B51C4B1B78032B27D8DFE803F021127C
:1023900007020120BDE80840FDF7BEBF0120FEF79F
:1023A00003F8002240F6CD411348BDE80840FEF78F
:1023B00031BD0120FDF79CFF80B90120FDF7ACFF86
:1023C00041F69A1100220C48BDE80840FEF722BDF4
:1023D0000120BDE80840FDF7B3BF08BD0120FDF7AF
:1023E000AFFF46F2666100220348BDE80840FEF7F1
:1023F00011BD00BF0C050020EC04002008B52C4ADC
:102400001378013BDBB2137083B10120FDF770FF3D
:10241000A0B9FDF781FF0120FDF77EFF002241F604
:102420009A112448BDE80840FEF7F4BC224B1B7803
:10243000032B0DD8DFE803F0121B2B090020FDF75A
:102440007FFF0120FDF77CFFE8E70120FDF764FF37
:102450001A4B1878BDE80840FFF76EBD0120FDF764
:102460006FFF164B1878BDE80840FFF765BD0120E7
:10247000FDF73EFFA8B10120FDF762FF46F266615D
:1024800000220F48FEF7C6FC0028E1D008BD01205D
:10249000FDF78AFF002240F6CD410948FEF7BAFC5D
:1024A000F2E70120FDF738FF41F69A11E8E700BF97
:1024B0001C050020200500200C0500200D05002033
:1024C000EC04002070B5134A134E144B002421462F
:1024D000147005460C2230461C702FF0FAFF21467E
:1024E0000F4B104A10483360FEF782FC044628B9AF
:1024F00001460E4A0E48FEF77BFC04462A460D496B
:10250000284605F0D6FA2846034905F0BEFA2046CB
:1025100070BD00BF0D050020100500200C05002037
:10252000F5220000812300005C3E0300FD23000033
:10253000603E03003D23000010B504460C48FEF742
:10254000B7FC0C48FEF7B4FC0020FDF7F9FE0120B3
:10255000FDF7F6FE22462046074905F0ADFA074A88
:10256000002313701846BDE81040FFF7E5BC00BF1C
:10257000EC040020200500203D2300000D05002074
:10258000704700BF70B52C4A84B020210820FEF7A8
:10259000D1F808B1FEF7A4F8FEF7D6FB08B1FEF7B4
:1025A0009FF8002301204FF0A041032204E015F022
:1025B000E07F18BF41F824200133202B00FA03F5F7
:1025C00003F5E074F3D14FF0A0434FF0E071002227
:1025D000C3F8081501201146C3F80C25FFF732FE99
:1025E00008B1FEF77DF8154E0024012501A8CDE9BC
:1025F000014403948DF8055000F01EFA00F072FAC1
:10260000304600F0B7FA00F0AFFAFFF75BFF40B1D9
:10261000FEF766F805E000F07BFAFEF715F900F02A
:1026200083FA00F0AFFA0028F5D000F09DFAFFF72A
:1026300083FF00F063FAD9E7400500208125000000
:102640002DE9F84F4400DFF85CB126180BEBC60605
:102650008146F76A012F8A46904667D03DD3022F04
:1026600030D100F1010909EB4909756A4FEAC9093E
:102670000027B36A346AAB4203F1FF329CBF1B19D7
:1026800003F1FF33A4EB05048CBF531B5B1B0BEB67
:102690000902444528BF44469C42506828BF1C4656
:1026A0002844514622462FF0F0FE336A25449D42CD
:1026B0002744A8EB0408A24408D07562B8F1000FC3
:1026C000D7D100E000273846BDE8F88F00231D462B
:1026D0007362B8F1000FCCD1F5E7B36A756AAB420B
:1026E0009CBF326A9B18013B5B1B9845EBD80444A6
:1026F00000F101090BEBC40409EB49090BEBC90B11
:10270000266ADBF80400761BB045284443D33246E2
:10271000A8EB06052FF0B9FE0AEB0601DBF8040072
:102720002A462FF0B2FE47466562CCE7D6E9082577
:10273000B76AAF4298BFBF18461C013F06EB46067A
:102740007F1B0BEBC606474528BF47467068A2EBC8
:1027500005084745284412D3A1444246A7EB080583
:102760000BEBC90B2FF091FE0AEB080170682A46AB
:102770002FF08BFECBF824503846BDE8F88FA144EB
:102780000BEBC90B3A463D442FF07FFECBF82450AB
:102790003846BDE8F88F424645442FF076FE47465E
:1027A000656290E790D100202DE9F0412B4C94F820
:1027B00000C00546884616461F46BCF1000F23D0D0
:1027C0002369AB4246D90020FEF7A6FB5DB92A4635
:1027D000154404EBC504069BE3620020FEF7A4FB4E
:1027E0000020BDE8F0816B1C03EB4303DB006A00B3
:1027F000511904EBC10144F80380234400200F6207
:102800005E6088624862E3E7154B1648A3610222C6
:10281000C4E904224FF40071134AA3641023C4F8DE
:1028200028C02365C4F824C0C4F82CC0C4F858C01C
:10283000C4F854C0C4F85CC0E0612162E2640B4992
:10284000E01D30F072FA0A49204630F06EFA20237B
:10285000A371B5E74FF0FF30C3E700BF90D1002070
:10286000643E03006007002050070020703E030014
:10287000743E030010B44FF080414FF080520020AE
:10288000C1F80C015E4BC1F81001C1F83805D2F84F
:102890000414C3F82015D2F80814C3F82415D2F88C
:1028A0000C14C3F82815D2F81014C3F82C15D2F85C
:1028B0001414C3F83015D2F81814C3F83415D2F82C
:1028C0001C14C3F84015D2F82014C3F84415D2F8EC
:1028D0002414C3F84815D2F82814C3F84C15D2F8BC
:1028E0002C14C3F85015D2F83014C3F85415D2F88C
:1028F0003414C3F86015D2F83814C3F86415D2F84C
:102900003C04C3F86805D2F840043E49C3F86C059E
:102910000968D2F84424C3F87025082924D04FF060
:102920008043D3F80024D20744BF6FF00102C3F8FC
:102930000024354AD2F8883043F47003C2F8883056
:10294000BFF34F8FBFF36F8F4FF01023D3F80022E8
:10295000002A23DBD3F80432002B1FDB2B4B2C4A3D
:102960001A605DF8044B70472A4B1B68002BD6D1C8
:1029700029482A4A2A4C04602A492B4BFB20C2F8DA
:1029800018050A681B68294822F00F0203F00F039C
:1029900013434FF400720B600260C0E7244B012226
:1029A000C3F80425D3F80024002AFBD04FF01023ED
:1029B00012221F49C3F80022D1F80034002BFBD0AB
:1029C0004FF0102212211A4BC2F80412D3F800243F
:1029D000002AFBD000221649C3F80425D1F80034A0
:1029E000002BFBD0BFF34F8F0749124BCA6802F48C
:1029F000E0621343CB60BFF34F8F00BFFDE700BF22
:102A000000C000403001001000ED00E00000002098
:102A10000090D003340100108C56004000F00040BC
:102A200048810300E40E0040580200104096024026
:102A300000E001400400FA0570B5002182B00546AF
:102A4000084624F095FB05F02AF8254C206004F098
:102A5000D2FF08B9AB784BBB6E780EB102B070BD37
:102A60000122314601A82FF034FD2B78012B9DF86F
:102A7000043029D043F003038DF804309DF804108E
:102A8000206805F0FBFAA968D1B90121206805F09A
:102A90001DF8206804F0AFFF10B9AB78002BDDD033
:102AA0002068012105F0BAFB02B070BD0B2120683F
:102AB00005F08DF84AF6CD31206805F0CDF8CBE76A
:102AC000206805F07EFAE0E766F30003DBB2696890
:102AD000206843F002038DF8043005F0DBF8CDE701
:102AE0006009002010B5044C206800F07FF82068D1
:102AF000BDE8104004F046BB6009002010B5034C4F
:102B0000206804F0D2FF0023236010BD600900207C
:102B100010B5044C206805F039FA2068BDE8104073
:102B200024F054BB6009002010B50D4B186805F067
:102B300039FA00B110BD0446FEF7EEF9F1EE103A95
:102B400023F09F03E1EE103ABFF35F8F054B402265
:102B50002046C3F88421FEF7E7F920BF10BD00BF6F
:102B60006009002000E100E0014B1868704700BFD9
:102B700060090020024B1A680146104604F099BF14
:102B80006009002024F01CBB4FF0FF307047B0F804
:102B90008E3BB0F8902BC3F500618A42CCBFA0F801
:102BA000921BA0F8922BB0F8921B21B100F28E304C
:102BB000184424F0A1BB704710B50A4B044640F8F6
:102BC000043B00F0E9F9084B23600023A4F88C33A0
:102BD000A4F88E3BA4F8903BA4F8923B24F006FBAB
:102BE000204610BD843E0300903E030010B5044C07
:102BF00001462046FFF7E0FF024B1C6010BD00BFFE
:102C0000680900206815002010B500210446B4F8BA
:102C10008C23A31893F88B310A2B01D00D2B07D1ED
:102C2000013A92B2A4F88C23224482F88C11EEE788
:102C30002AB1234604F5C671201D02F055FB002081
:102C4000A4F88C0310BD00002DE9F8432A4FDFF8EB
:102C5000AC80DFF8AC9004460D468E18B54249D2E0
:102C60002B780A2B19D014D8082B2ED0B4F88C331B
:102C7000B3F5FF7F27D8236801221B682946204629
:102C80009847B4F88C335A1CA4F88C232A78234430
:102C90002DE00D2B01D07F2BE7E7236802221B6874
:102CA000394620469847B4F88C3333B12344002288
:102CB00083F88C212046FFF7A7FF236802221B68B8
:102CC0004146204698470135C8E7B4F88C33002BBD
:102CD000F9D0236803221B68494620469847B4F878
:102CE0008C33013B9BB2A4F88C330022234483F83D
:102CF0008C21E8E7BDE8F883993E0300973E030086
:102D0000943E0300024B0A4601461868FFF79CBF39
:102D100068150020B0F8923B0BB9FFF738BF704739
:102D200070B5B0F8904BC4F50064A4B2944228BFCB
:102D300014460D466B1A9C420FDDB0F8902BB0F88C
:102D40008E3B15F8016B1344C3F30A0303440132AD
:102D500083F88E63A0F8902BECE7FFF7DBFF2046AB
:102D600070BDB0F8921BB0F88E2B0A44C2F30A0271
:102D7000A0F88E2BB0F8902B521AA0F8902B0022BE
:102D8000A0F8922BFFF703BF014B1868FFF7E9BFCC
:102D9000681500202DE9F0410F4F104E0546002424
:102DA0004FF00C0808FB04F33146DA59A8680134E7
:102DB00004F08AF8302CF5D1084E00242B79A34278
:102DC00008D92B68A86853F83420314604F07CF801
:102DD0000134F3E7BDE8F0814C48030046470300A7
:102DE000D0F8840104F06BBED0F8840104F05FBE1B
:102DF00038B504468568D0F8840105F0BEF9054968
:102E00000246284604F060F8A0680349BDE838404F
:102E100004F05AB8225C03005240030010B5C0B061
:102E20000446002308468DF8FF301146FF236A460A
:102E300004F0AAF9A46868462FF094FF236882B2D0
:102E40001B6869462046984740B010BD014980681C
:102E500004F03AB85240030010B504468AB06946FF
:102E6000D0F8840104F0D8FFBDF800202B49A068F9
:102E700004F02AF8BDF802202949A06804F024F8DB
:102E8000BDF80630BDF804202649A06804F01CF8FF
:102E9000BDF80A30BDF808202349A06804F014F8F2
:102EA000BDF80E30BDF80C202049A06804F00CF8E5
:102EB000BDF81230BDF810201D49A06804F004F8D8
:102EC000BDF81630BDF814201A49A06803F0FCFFC5
:102ED000BDF81A30BDF818201749A06803F0F4FFB8
:102EE000BDF81E30BDF81C201449A06803F0ECFFAB
:102EF000BDF82230BDF820201149A06803F0E4FF9E
:102F0000BDF82630BDF824200E49A06803F0DCFF90
:102F10002046FFF79BFF0AB010BD00BFF34503003A
:102F2000FF4503000A4603001C4603002E4603002B
:102F30003B46030048460300554603008346030012
:102F4000624603007746030010B5044604F0BAFD5C
:102F500004490246A06803F0B7FF2046BDE81040D0
:102F6000FFF774BF4647030010B50446D0F884014C
:102F700005F090F940B10549A06803F0A5FF20468F
:102F8000BDE81040FFF762BF0149F5E76145030066
:102F90006845030000BA704770B5002504460E4628
:102FA00005600571856029462C220C302FF091FABE
:102FB0001A4A84F858504FF47A73C4E90E23184B18
:102FC000C4E9103504F14003A364214604F19800DC
:102FD00004F03EF82146C4F8D44004F1D80002F0D1
:102FE00067FB214604F5867002F0E0FC224630467D
:102FF000C4F884610B4905F002F90B4BD4F8840145
:10300000C4E9133404F14C0104F03FFD3E2229468B
:1030100004F159002FF05DFA204670BD0800010050
:103020009D46000059540000614500002DE9F04123
:10303000074690460C462FF095FE3D1800F001061D
:103040000130B8EB500F12D338462146002285429A
:1030500021D910F8013BA3F14107052F0BD8373BCD
:103060001343DBB29EB10B7000260131EEE74FF047
:10307000FF30BDE8F081A3F16107052F01D8573B70
:10308000EEE7303BDBB2092BF1D81343EAE71B0133
:10309000DAB20126DBE7081BEBE7000070B50C464F
:1030A00019B9BDE87040FFF7D1BE8568084606F043
:1030B000DDFA2246034603492846BDE8704003F086
:1030C00003BF00BFF44E030070B505460E46B1B90C
:1030D000D0F8840105F0BEF8044650B11249A86842
:1030E00003F0F2FE304601462846BDE87040FFF787
:1030F000D5BF0E49A86803F0E7FE2046F3E7146841
:103100000B4920462FF007FE28B90121D5F884018C
:1031100005F0B4F8E7E7074920462FF0FCFD01462B
:103120000028F3D00720DEE7374503006C4003009A
:10313000414503004845030010B50446D83002F06D
:10314000FDFA01462046BDE81040FFF7A7BF10B5C5
:10315000044600F5867002F0D1FE01462046BDE827
:103160001040FFF79BBF000070B505460E46B1B991
:10317000D0F8840104F0BEFC044650B11249A8689E
:1031800003F0A2FE304601462846BDE87040FFF736
:1031900085BF0E49A86803F097FE2046F3E7146840
:1031A0000B4920462FF0B7FD28B90121D5F884013D
:1031B00004F08CFCE7E7074920462FF0ACFD014600
:1031C0000028F3D00720DEE723450300284503004D
:1031D0002F4503003245030037B504466946D0F851
:1031E000840104F0C2FF0546E0B9009A1049A068C6
:1031F00003F06AFE9DF804200E49A06803F064FE07
:103200009DF805200C49A06803F05EFE9DF806209D
:103210000A49A06803F058FE9DF807200849A068F5
:1032200003F052FE29462046FFF738FF03B030BDB9
:1032300091460300A4460300BB460300B4460300C6
:10324000CE460300F7B5002304468DF8043071BB69
:10325000D0F8840104F0EAFE8DF80400C00703D51D
:103260004249A06803F030FE9DF80430990703D569
:103270003F49A06803F028FE9DF804305A0703D5A3
:103280003C49A06803F020FE9DF804301B0703D5DD
:103290003949A06803F018FE3849A06803F014FE0D
:1032A0000021204603B0BDE8F040FFF7F7BE1568E7
:1032B0009E46013D19461E4618461F469C4615F877
:1032C000012F6AB36E2A25D01AD8642A1FD0BCF108
:1032D000000F05D09DF8043043F001038DF8043051
:1032E00028B19DF8043067F341038DF8043029B10B
:1032F0009DF8043066F382038DF804300621D0E790
:10330000722A0AD0732AE2D101200746D7E70121A9
:103310000E46D4E701239E46D1E74FF0010CCEE7DD
:10332000BCF1000F05D09DF8042042F001028DF899
:10333000042028B19DF8042067F341028DF8042091
:1033400029B19DF8042066F382028DF804202BB188
:103350009DF804306EF3C3038DF804309DF804101B
:10336000D4F8840104F08AFE01469AE7334803004A
:103370001F6B0300E6450300BC4B0300B45603007B
:1033800010B50446D0F8840104F076FA01462046D0
:10339000BDE81040FFF782BE2DE9F04186B001AFD5
:1033A00004463946D0F8840104F0ECFE064650BBD2
:1033B0001849A068DFF8748003F086FD35467A5D11
:1033C000A0684146013503F07FFD082DF7D1124971
:1033D000A06803F079FDBDF80C201049A06803F047
:1033E00073FD9DF811200E49A06803F06DFD9DF856
:1033F00012200C49A06803F067FD9DF813200A49CC
:10340000A06803F061FD31462046FFF747FE06B095
:10341000BDE8F08100400300B456030010400300F3
:103420001B40030031400300484003000B400300F1
:1034300038B50446B1B9D0F8840104F08CFC78B1F9
:10344000D4F8840123F0BEFB50B11749A06803F003
:103450003BFD002001462046BDE83840FFF71EBE78
:103460001249F3E71568124928462FF054FC58B961
:103470001049D4F88401224604F068FC0121D4F8F4
:10348000840104F06FFCE5E728460B492FF043FC6C
:10349000054638B901460246D4F8840104F056FCCA
:1034A0002946ECE70720D5E7374503006C400300C9
:1034B00041450300BD4700004845030038B50546B7
:1034C0000C46C9B9D0F8840104F04BFE01280FD096
:1034D00003D302280ED0144900E01449A86803F071
:1034E000F3FC204601462846BDE83840FFF7D6BD2C
:1034F0000F49F3E70F49F1E714680F4920462FF011
:103500000AFC20B9D5F8840104F020FEEAE70B4953
:1035100020462FF000FC20B9D5F8840104F01BFEF2
:10352000E0E70720DEE700BFA73F0300893F030075
:10353000943F03009F3F0300B73F0300C03F0300D9
:10354000002938B5044617DD15680C4928462FF0C8
:10355000E2FB50B90121D4F8840104F05FFE01467A
:103560002046BDE83840FFF799BD054928462FF0B1
:10357000D2FB01460028EED00720F0E7954A030071
:103580005940030010B50446D43003F053FC014603
:103590002046BDE81040FFF781BD10B504469830C5
:1035A00003F060FD01462046BDE81040FFF776BD00
:1035B000F0B50F1E87B0054616462DDD1468174975
:1035C00020462FF0A8FBE0B9012F25D0144B039320
:1035D000144B0193022F144B00934FF000040CBFC7
:1035E0000246B26804950294104B7168D5F88401C4
:1035F00004F0BAFA2146284607B0BDE8F040FFF7CC
:103600004DBD20460A492FF086FB044620B9D5F867
:10361000840104F0AEFAEDE70721ECE7954A0300D8
:103620005D4E0000EF3F0300F73F0300E43F03005F
:103630005940030070B504460D4649B97B4980687E
:1036400003F042FC7A49A06803F03EFC2946ACE056
:10365000012940F0E9801568764928462FF05BFB88
:103660000646002840F0A680D4F8840104F096FBBA
:10367000054602687049A06803F026FC6A686F4935
:10368000A06803F021FCAA686D49A06803F01CFC47
:10369000EA686C49A06803F017FC2A696A49A068C7
:1036A00003F012FC6A696949A06803F00DFCAA697D
:1036B0006749A06803F008FCEA696649A06803F05E
:1036C00003FC2A6A6449A06803F0FEFB6A6A634946
:1036D000A06803F0F9FBAA6A6149A06803F0F4FB53
:1036E000EA6A6049A06803F0EFFB2A6B5E49A068B4
:1036F00003F0EAFBAA6B5D49A06803F0E5FBEA6B07
:103700005B49A06803F0E0FB2A6C5A49A06803F00B
:10371000DBFB6A6C5849A06803F0D6FBAA6C5749DA
:10372000A06803F0D1FBEA6C5549A06803F0CCFB1C
:103730002A6D5449A06803F0C7FB6A6D5249A0681E
:1037400003F0C2FBAA6D5149A06803F0BDFBEA6D0E
:103750004F49A06803F0B8FB2A6E4E49A06803F0F9
:10376000B3FB6A6E4C49A06803F0AEFBAA6E4B49EE
:10377000A06803F0A9FBEA6E4949A06803F0A4FB26
:103780002A6F4849A06803F09FFB6A6F4649A0680A
:1037900003F09AFBAA6F4549A06803F095FB4449E2
:1037A000EA6FA06803F090FB31462046BDE8704008
:1037B000FFF774BC28463F492FF0ADFA05460028B4
:1037C00032D1D4F8840104F07BFD064602883A49E0
:1037D000A06803F079FB72883849A06803F074FB95
:1037E000B2883749A06803F06FFBF2883549A068BA
:1037F00003F06AFB32893449A06803F065FB7289E3
:103800003249A06803F060FBB2893149A06803F037
:103810005BFBF2892F49A06803F056FB328A2E49E0
:10382000A06803F051FB11E70721BEE70841030040
:103830000E41030014410300184103002641030018
:103840003A41030050410300694103007B410300FA
:1038500096410300A7410300BC410300CF41030090
:10386000E9410300FB4103000D4203002042030035
:103870003B420300494203005D42030073420300E0
:103880008442030099420300AC420300C642030095
:10389000D8420300F442030011430300284303000D
:1038A0003F430300604303007E4303009143030052
:1038B000A4430300B9430300BD430300D143030005
:1038C000E5430300F64303000844030046440300B5
:1038D0001A440300354403005C440300F0B513466A
:1038E00085B00446C9B9D0F88401144F04F0DDFB5B
:1038F000461E00F10F0516F8012FA068394603F0A7
:10390000E3FAAE42F7D10E49A06803F0DDFA0021D8
:103910002046FFF7C3FB05B0F0BD102269461868CA
:10392000FFF784FB102806D16946D4F8840104F01F
:10393000C1FB0146ECE70621EAE700BF0B400300AC
:10394000B456030038B505460C46D0F8840169B971
:1039500004F0CDFB084903461022A86803F0B4FA2E
:1039600021462846BDE83840FFF798BB116804F0AF
:10397000C2FB0146F5E700BF5D4703002DE9F041BA
:10398000084F06460D4690460C46631B984506DDDB
:1039900014F8012BB068394603F096FAF5E7BDE854
:1039A000F08100BF0B40030037B505460C4699B9BE
:1039B0006946D0F8840104F049F90822694628468E
:1039C000FFF7DCFF0549A86803F07EFA2146284688
:1039D000FFF764FB03B030BD0721F8E7B4560300DE
:1039E00030B5C3B0FF238DF8073004460DF107034F
:1039F00002AA0021D0F8840104F098FA054648B9DB
:103A000002A920469DF80720FFF7B8FF0449A068E7
:103A100003F05AFA29462046FFF740FB43B030BD79
:103A2000B456030037B505460C4699B96946D0F837
:103A3000840104F0A6F8082269462846FFF79EFF95
:103A40000549A86803F040FA21462846FFF726FBFF
:103A500003B030BD0721F8E7B456030037B513466D
:103A600005460C4691B9D0F8840104F0D4F8082238
:103A700001462846FFF782FF0C49A86803F024FAA4
:103A800021462846FFF70AFB03B030BD08226946ED
:103A90001868FFF7CBFA002801DA0621F1E769463A
:103AA000D5F8840104F0BBF80146EAE7B4560300F8
:103AB00037B5134605460C4691B9D0F8840104F099
:103AC00085FA082201462846FFF758FF0C49A868E6
:103AD00003F0FAF921462846FFF7E0FA03B030BDBB
:103AE000082269461868FFF7A1FA002801DA0621C2
:103AF000F1E76946D5F8840104F06CFA0146EAE77B
:103B0000B456030013B500220C4601A92FF0E6F9C4
:103B1000019B20601B78002B14BF0620002002B000
:103B200010BD000073B505460C4681B98668D0F813
:103B3000840104F041F80C490246304603F0C4F910
:103B4000204601462846FFF7A9FA02B070BD01A938
:103B50001068FFF7D7FF0028F3D19DF80410D5F8BF
:103B6000840104F034F8ECE7E046030073B5054641
:103B70000C4679B98668D0F8840104F01EFA0C4925
:103B80000246304603F0A0F921462846FFF786FAA0
:103B900002B070BD01A91068FFF7B4FF0446002809
:103BA000F2D10199D5F8840104F00BFAECE700BFDB
:103BB000E046030010B5002986B004461FDD05A9C4
:103BC0001068FFF79FFFE8B9059B1F2B19D801214B
:103BD00099400F4B01930023029400934FF6FF721C
:103BE000D4F8840104F058FB60B90A49A06803F0D6
:103BF0006BF90949A06803F067F906B010BD002110
:103C0000E7E7072001462046FFF748FAF5E700BF3F
:103C1000B54D000071440300CA4403002DE9F04390
:103C200091B00DF114080E463523044615460021C7
:103C30002C22404601932EF04CFC002E4ADD2649F2
:103C400028682FF068F8002844D194F85830002BE9
:103C50003AD1012E3ED0D5F8049048462FF082F894
:103C60003D2837D804F15907494638462FF05DF80A
:103C70000123022E8DF838300BD0A96809A80CF06A
:103C80005DFA10BB032E09D001A9E868FFF73AFFDF
:103C900003E0124909A80CF051FAB0B9019BADF844
:103CA000363000238DF810300D4AD4F884012346B5
:103CB00002A9CDE9027803F0E3FE30B9012384F8CC
:103CC000583011B0BDE8F083052001462046FFF7CB
:103CD000E5F9F6E70720F8E79B3E0300A33E030063
:103CE000F94100004B1E012B2DE9F34105460F461B
:103CF000164641D8D2F80080204940462FF00BF8F4
:103D00000446F0B9012F0AD1D5F88401AE6804F059
:103D10000CFA02461A49304603F0D6F80AE001A927
:103D20007068FFF7EFFE044620B90199D5F88401C9
:103D300004F0FFF921462846FFF7B0F902B0BDE8CC
:103D4000F081104940462EF0E6FF0446A0B9012F4D
:103D500005D1D5F88401AE6804F0F0F9D9E701A9DE
:103D60007068FFF7CFFE04460028E3D10199D5F82B
:103D7000840104F0E7F9DDE70724DBE74B470300A4
:103D8000E046030053470300F0B50E1EADF5037D7A
:103D90000546144657DD17682C4938462EF0BBFF00
:103DA000B8BB032E4FDD69466068FFF7ABFE48B92C
:103DB000A668009B029330462EF0D4FFFC280246F2
:103DC00007D9032001462846FFF768F90DF5037D62
:103DD000F0BD8DF80C0031460DF10D002EF055FBB5
:103DE000E46820462EF0BEFFF8280246E9D88DF898
:103DF0000B01214643A82EF048FB9DF80A31D5F867
:103E0000840143F0010301A98DF80A3104F09CF804
:103E1000D8E70F4938462EF07EFFA0B9022E019058
:103E200011DD01A96068FFF76DFE0028CAD1A46802
:103E300020462EF097FF2246C3B20199D5F884019F
:103E400004F09AF8BEE70720BCE700BFFD4003007E
:103E50000141030073B505460C4681B98668D0F868
:103E6000840103F0F5FE0C490246304603F02CF8BD
:103E7000204601462846FFF711F902B070BD01A99E
:103E80001068FFF73FFE0028F3D1BDF80410D5F805
:103E9000840103F0E1FEECE7225C030073B5054604
:103EA0000C4681B98668D0F8840103F0EEFE0C4917
:103EB0000246304603F008F8204601462846FFF740
:103EC000EDF802B070BD01A91068FFF71BFE0028D5
:103ED000F3D10199D5F8840103F0DCFEEDE700BFD2
:103EE000E0460300F0B50F1E85B00446164644DDDB
:103EF0001568234928462EF00EFFD0B9012F3AD07D
:103F000003A97068FFF7FEFD78BBBDF80C501D4992
:103F1000A06802F0D9FF1C49A06802F0D5FF009408
:103F20001A4BD4F884012A46002103F04FFF00B356
:103F30001BE003A92846FFF7E5FDB0B9039B1F2B43
:103F400012D801259D401249A06802F0BDFF114919
:103F5000A06802F0B9FF00940F4BD4F8840100224E
:103F6000294603F01FFFE2E7072001462046FFF73E
:103F700095F805B0F0BD0546C9E70025E3E700BFA9
:103F8000493F0300503F0300603F0300E14D000044
:103F900071440300CA440300B54D0000F0B58FB072
:103FA00003AF0E467B230446154600212C223846DB
:103FB00001932EF08EFA002E2FDD1C4928682EF07A
:103FC000AAFE50BB94F897306BBB01239E428DF83C
:103FD00030300BD0696807A80CF0B0F8F0B9022EA9
:103FE00009D001A9A868FFF78DFD03E0104907A8D3
:103FF0000CF0A4F890B90EA9019BADF82E3041F851
:10400000307D23460B4AD4F8840103F0BAFF28B967
:10401000012384F897300FB0F0BD072001462046F9
:10402000FFF73CF8F7E70520F8E700BF703F030013
:10403000763F0300214E000037B5054691B901A92E
:10404000D0F8840122F0E2FD044628B99DF904204D
:104050000C49A86802F038FF21462846FFF71EF8F1
:1040600003B030BD01A91068FFF74CFD04460028DD
:10407000F2D19DF90410D5F8840122F0D1FD044657
:10408000EAE700BFD45E03002DE9F04702298AB0B9
:1040900005460E4690463DDD01A9506803F05FFDE0
:1040A000002838D108F10409023E04460DF1140A33
:1040B000B442E7B20DD0132C0AD0694659F8040F68
:1040C000FFF720FD38BB009B04F80A300134EFE70E
:1040D0002746D8F80040124920462EF01CFE48B969
:1040E0003B4605AA01A9D5F8840104F08DF80AB071
:1040F000BDE8F0870B4920462EF00DFE50B93B4637
:1041000005AA01A9D5F8840104F083F82846FEF732
:104110009DFEECE7072001462846FEF7BFFFE6E7D5
:1041200035480300024B0300002330B5136001390A
:104130004FF47A730A2411F8010FE8B1A0F13005A9
:10414000092D11D8B3F57A7F02BF10686043106063
:1041500008781568303803FB0050B3F57A7F10609B
:10416000E9D0B3FBF4F3E6E72E2804D1B3F57A7F68
:1041700001D16423DFE7062030BD0000F0B589B02F
:1041800005469DF83860806814460A4618491F465F
:1041900002F09AFE3EBB6189E38960882288069717
:1041A00049BA89B20391218949BA89B20291E18859
:1041B0005BBA49BA9BB289B205930191A389A188E0
:1041C0005BBA49BA40BA9BB289B252BA0493009121
:1041D00083B292B20749A86802F076FE002385F800
:1041E000583009B0F0BD31462846FEF757FFF5E7D5
:1041F000704503008745030010B49DF80440019406
:104200005DF8044BFFF7BABF10B5002986B004462D
:1042100014DD6946106803F0A2FC68B940238DF8EC
:1042200010309DF81130D4F8840143F0030369463F
:104230008DF8113003F066FC06B010BD0720FBE7D7
:1042400000291FB504460BDD6946106803F087FCA2
:1042500020B96946D4F8840103F059FC04B010BDBC
:104260000720FBE7F0B5054687B016460C46002947
:104270002BD1D0F88401254E03F040FC0446002CDD
:1042800040D0E18963882288A86849BA89B205913B
:10429000A18949BA89B20491618949BA89B2039165
:1042A000218949BA89B20291E18849BA89B201915A
:1042B000A18849BA89B25BBA52BA00919BB292B254
:1042C000314602F001FE6469D9E7176810493846A3
:1042D0002EF021FD58B9321D611E2846FFF794FFCC
:1042E0000146284607B0BDE8F040FEF7D7BE0949B1
:1042F00038462EF010FD38B9321D611E2846FFF7F2
:104300009FFFEDE72046EBE70720E9E7C63F030004
:10431000FD400300E03F030000291FB504460BDD0C
:104320006946106803F01BFC20B96946D4F8840183
:1043300003F0F6FB04B010BD0720FBE700291FB512
:1043400004460BDD6946106803F009FC20B9694694
:10435000D4F8840103F0E9FB04B010BD0720FBE7AB
:1043600070B505460E4689B9D0F8840103F0E2FB2A
:10437000044630B11149A86802F0A6FD3446204633
:1043800070BD0F49A86802F09FFDF8E716680D4957
:1043900030462EF0C0FC044628B90121D5F884012E
:1043A00003F0CCFBEBE7084930462EF0B4FC0446A2
:1043B00008B90146F2E70724E1E700BF37450300EB
:1043C0006C4003004145030048450300F0B5054635
:1043D00087B016460C4600292BD1D0F884012B4E0D
:1043E00003F09AFB0446002C4BD0E18963882288B5
:1043F000A86849BA89B20591A18949BA89B20491DC
:10440000618949BA89B20391218949BA89B2029175
:10441000E18849BA89B20191A18849BA89B25BBAE7
:1044200052BA00919BB292B2314602F04DFD24691E
:10443000D9E71768164938462EF06DFC58B9321D79
:10444000611E2846FFF768FF0146284607B0BDE811
:10445000F040FEF723BE0F4938462EF05CFC28B929
:10446000321D611E2846FFF769FFEDE70A4938460D
:104470002EF051FC38B9321D611E2846FFF770FF3F
:10448000E2E72046E0E70720DEE700BFC63F030083
:10449000FD400300E03F03000F480300F0B51F4656
:1044A00089B0002307933B78812B05460E461446BE
:1044B0004AD10B8CCA8B80682449D21A083202F088
:1044C00003FDE18B638A228AA86849BA89B2059103
:1044D000A18B49BA89B20491618B49BA89B203911F
:1044E000218B49BA89B20291E18A49BA89B2019114
:1044F000A18A49BA89B25BBA52BA00919BB292B210
:10450000134902F0E1FCFA8894F825301149A868B3
:1045100052BA92B202F0D8FC07AB0422318C30467A
:1045200005F08AF903280BD9AC6822F08EF806460C
:104530000798FEF72FFD0849321A204602F0C4FC06
:104540000649A86802F0C0FC09B0F0BDAB45030005
:10455000BA450300D2450300E8450300B456030002
:10456000FFF79CBF37B5044622F06FF8FEF712FD47
:1045700000210190D4F8840103F0E4FA0546B0B1BB
:1045800004220DEB020103F03DFCE8B9218F28461F
:1045900003F034FCC0B9012304F10C022946D4F81D
:1045A000840103F077FA78B9638F013B6387638FE7
:1045B00043B1E56B22F049F82A46014604F1400078
:1045C00005F0D6FE03B030BD284603F013FCEEE73D
:1045D0002DE9F3410F1E0546164658DDD2F800803E
:1045E0002C4940462EF097FB05F14003AA6C044687
:1045F00050B9934247D0184605F084FE2046014644
:104600002846FEF74BFD3BE093423ED1414605F183
:104610001C000BF093FD0028F1D11F4A4FF47A7370
:10462000C5E90E23012485F83040BC4225DA022C6E
:104630000ED0032C15D0012C29D169467068FFF7E4
:1046400061FA0028DBD1009B2B870134E4B2ECE750
:104650006946B068FFF756FA0028D0D1009B6B87F7
:10466000F3E701AAF1682846FFF75EFD0028C6D1EE
:10467000019B002B0BDDEB63E7E72846FFF772FF9A
:1046800002B0BDE8F0810D20B9E70520B7E70720AB
:10469000B5E700BF5940030008000100024B18684D
:1046A0000430FFF75FBF00BF681500202DE9F84F09
:1046B00004460E4680683649364F02F005FC2C252C
:1046C0003946A06802F000FC013DF9D13279324947
:1046D000A068304F02F0F8FB1C253946A06802F0B4
:1046E000F3FB013DF9D12A49A068DFF8C08002F050
:1046F000EBFB3379A068AB423CD9414602F0E4FBC6
:1047000000273279A068EB19934229D232682349F5
:10471000D25C02F0D9FB0137102FF2D14146A068DC
:10472000DFF88C90DFF88CA0DFF88CB002F0CCFBC7
:1047300000273279A068EB19934219D23268D25C13
:10474000A2F120035E2B0FD8594602F0BDFB0137C2
:10475000102FEED11249A06802F0B6FB1035C8E761
:10476000104902F0B1FBD6E7514602F0ADFBEEE78F
:104770004946FAE70C4E53253146A06802F0A4FBE7
:10478000013DF9D1A0680249BDE8F84F02F09CBB99
:10479000B4560300A9470300AB470300B947030021
:1047A000C6440300BF470300C7770300B7470300B1
:1047B000CA470300C7470300C347030013460A461E
:1047C00001461846FFF772BF2DE9F04F0F1E89B062
:1047D0000646154640F391801822002102A82DF0CC
:1047E00078FE2F2128682EF089FA044600287FD011
:1047F0000023037002A9286803F0B1F9002877D1DB
:10480000024601A9601C2EF069FB019B8DF818007F
:104810001B78002B6FD14FF00108DFF8E890DFF82C
:10482000E8A0C34647455ED055F8284034492046A5
:104830002EF071FA40B99DF819206BF301028DF842
:10484000192008F10108EDE7494620462EF063FAE9
:1048500020B99DF8192060F30102F0E75146204687
:104860002EF059FA98B1013C14F8012F002AE8D033
:10487000613A122A3FD8DFE802F0163E201B3E3E86
:104880003E3E3E3E3E3E3E3E2A0F3E252F009DF8D8
:10489000192042F00302D2E79DF8192042F00402E9
:1048A0008DF81920E0E79DF8192042F00802F7E79B
:1048B0009DF8192042F01002F2E79DF8192042F00D
:1048C0002002EDE79DF8192042F04002E8E79DF84C
:1048D000192042F08002E3E79DF81A2042F001021D
:1048E0008DF81A20C0E702A9D6F8840102F06BFF08
:1048F00009B0BDE8F08F0620FAE70720F8E700BF0F
:1049000054450300594503005D45030070B5002977
:1049100086B00646154624DD1122002101A82DF09F
:10492000D8FD2F2128682EF0E9F90446A8B100230C
:10493000037001A9286803F012F970B902466946AC
:10494000601C2EF0CBFA009B8DF814001B7833B955
:1049500001A9D6F8840102F061FF06B070BD0620FF
:10496000FBE70720F9E70000F0B58DB000233A4DD2
:104970003A4E3B4F0593044606AA05A9D4F8840194
:1049800002F052FF002863D19DF828100291BDF873
:104990001E10BDF81A30BDF81820A06849BA89B2B7
:1049A0000191BDF81C1049BA89B25BBA52BA0091A4
:1049B0009BB292B2294602F087FA9DF829305A0735
:1049C00003D53146A06802F07FFA9DF829301B0715
:1049D00003D53946A06802F077FA9DF82930D80649
:1049E00003D52049A06802F06FFA9DF82930990696
:1049F00003D51D49A06802F067FA9DF829305A06D0
:104A000003D51A49A06802F05FFA9DF82930DB0946
:104A100003D01749A06802F057FA9DF82A30DB0747
:104A200003D51449A06802F04FFA9DF8293043F3EA
:104A300001035BB2002B07D008DC01339CD10E4987
:104A4000A06802F041FA97E70C49F9E70C49F7E74B
:104A500000200DB0F0BD00BFE5460300BE4A0300D4
:104A60008F6C0300E6450300C5470300334803008D
:104A7000A44A03001F6B0300F7460300FE46030031
:104A800005470300F8B5044616460D4639B9FFF749
:104A90006BFF01462046BDE8F840FEF7FFBA1768F5
:104AA0000B4938462EF037F928B9321D691E2046C9
:104AB000FFF78AFEEDE7074938462EF02CF928B9B2
:104AC000321D691E2046FFF721FFE2E70720E0E7DD
:104AD000FD400300014103002DE9F04F89B00F466E
:104AE000804616460021182202A82DF0F2FC002F65
:104AF00056DD2F2130682EF001F9044688B10023DD
:104B0000037002A9306803F02AF850B9024601A9DF
:104B1000601C2EF0E3F9019B8DF818001B781BB187
:104B2000062009B0BDE8F08F0124DFF88090DFF89F
:104B300080A0A346BC422DD056F8245019492846DF
:104B40002EF0E9F838B99DF81C3043F004038DF8D5
:104B50001C300134EEE7144928462EF0DCF820B969
:104B60009DF81C306BF30103F1E7494628462EF00F
:104B7000D2F820B99DF81C3060F30103E7E75146F5
:104B800028462EF0C8F80028CAD19DF81C3043F002
:104B90000303DCE702A9D8F8840102F04EFEC0E767
:104BA0000720BEE71F6B030054450300594503006F
:104BB0005D45030070B586B00C46064615460021DB
:104BC000112201A82DF085FC002C1DDD2F21286865
:104BD0002EF094F80446A8B10023037001A92868B8
:104BE00002F0BDFF70B902466946601C2EF076F9EE
:104BF000009B8DF814001B7843B901A9D6F88401F5
:104C000002F02BFE06B070BD0720FBE70620F9E797
:104C1000F0B58DB00023224D224E234F059304465C
:104C200006AA05A9D4F8840102F01DFE002833D19C
:104C30009DF828100291BDF81E10BDF81A30BDF87D
:104C40001820A06849BA89B20191BDF81C1049BA70
:104C500089B25BBA52BA00919BB292B2294602F075
:104C600033F99DF82C305B0703D53146A06802F07C
:104C70002BF99DF82C3043F301035BB2002B07D0D6
:104C800008DC0133CCD10949A06802F01DF9C7E75F
:104C90003946F9E70649F7E700200DB0F0BD00BF3F
:104CA000E54603001F6B0300FE460300F7460300C2
:104CB00005470300F8B5044616460D4639B9FFF717
:104CC000A7FF01462046BDE8F840FEF7E7B91768A0
:104CD0000B4938462EF01FF828B9321D691E2046B0
:104CE000FFF7FAFEEDE7074938462EF014F828B929
:104CF000321D691E2046FFF75DFFE2E70720E0E76F
:104D0000FD4003000141030038B504460D468068AC
:104D100021B91F49BDE8384002F0D6B891F83920D2
:104D20001C49C2F3401202F0CFF805F108021A49FB
:104D3000A06802F0C9F81949A06802F0C5F8082275
:104D400005F119012046FEF719FE1549A06802F089
:104D5000BBF86A8E1349A06802F0B6F829462046CF
:104D60000822FEF70BFE95F836200F49A06802F0E6
:104D7000ABF895F937200D49A06802F0A5F895F831
:104D80003820A0680A49BDE8384002F09DB800BF4D
:104D900052400300CD470300D3470300E34703001D
:104DA00072CA0300DC470300E6470300EE47030036
:104DB000F54703000B4601461846FFF7A5BF000064
:104DC000806811B9044902F07FB891F901300A787E
:104DD000024902F079B800BF52400300FF470300C8
:104DE0000B4601461846FFF7EBBF000038B50446F6
:104DF0009DF81000A56838B90749284602F064F804
:104E0000002384F8973038BD04F030FC0349024693
:104E1000284602F059F8F3E70D470300394703002D
:104E20009DF800100091FFF7E1BF000010B5846805
:104E300029B920460749BDE8104002F045B80846A8
:104E400004F014FC044902462046BDE8104002F07C
:104E50003BB800BF87470300964703000B46014657
:104E60001846FFF7E3BF00002DE9F04385B0044684
:104E70000023D0F884018DF8033002F010FF50BBFE
:104E80003749A06802F020F8DFF8EC80354F01AD1B
:104E90002A460DF10301D4F8840102F01EFF10BB75
:104EA000082229462046FEF769FD9DF90C607F2EF9
:104EB0000CD03146D4F88401D4F8089002F02EFFCB
:104EC000324603464146484601F0FEFF3946A06897
:104ED00001F0FAFFDCE7012801D12349D1E70228DC
:104EE000D2D12249CDE700232149A0688DF80330B3
:104EF00001F0EAFFDFF884801E4FD4F884012A46CF
:104F00000DF1030102F001FF38BB2B5CFF2B0FD129
:104F100001300828F9D19DF90C60D4F88401D4F847
:104F20000890314602F0FAFE32460346394610E058
:104F3000082229462046FEF721FD9DF90C60D4F891
:104F40008401D4F80890314602F0E8FE3246034668
:104F50004146484601F0B8FFCFE705B0BDE8F08311
:104F60005E400300B4560300774003009140030005
:104F7000BE400300E1400300AB400300CC4003000F
:104F80002DE9F04186B005460E460023D0F8840195
:104F90008DF80730174602F082FE9EBB50BB514988
:104FA000A86801F091FF504F504ED5F8840103AA34
:104FB0000DF1070102F091FE002840F090800822D8
:104FC00003A92846FEF7DAFC9DF914407F2C0CD08B
:104FD0002146D5F88401D5F8088002F09FFE2246CC
:104FE00003463946404601F06FFF3146A86801F09C
:104FF0006BFFDAE7012801D13D49D1E70228D2D180
:105000003C49CDE73C683C4920462DF084FE0146F2
:1050100028B9012E0BD0072006B0BDE8F081374932
:1050200020462DF078FE38B9012EF4D13146D5F85E
:10503000840102F038FEEFE7314920462DF06BFE87
:1050400018B9012EE7D10221F1E72E4920462DF0B3
:1050500062FE20BB012EDEDD082203A97868FDF781
:10506000E5FF082801D00620D6E703A9D5F884017A
:1050700002F01EFE08B11828CED1022ECCD0032E8D
:10508000C9D102A9B868FEF73DFD0028C4D19DF939
:105090000820D5F8840103A902F028FEBCE71A49CC
:1050A00020462DF038FE70B9022EB4D1082203A993
:1050B0007868FDF7BBFF0828D5D103A9D5F884018E
:1050C00002F0FEFDA8E7114920462DF024FE00283D
:1050D000A1D1012E9FD1D5F8840102F0F9FD002065
:1050E0009AE700BF6C400300AB400300B4560300D6
:1050F000854003009F400300484503001B48030010
:1051000025480300FD400300014103002F48030030
:105110002DE9F04387B00023054616468DF8073089
:105120000F4621BB534FDFF8648103AC22460DF1DB
:105130000701D5F8840102F0E8FD002840F08380E3
:10514000235CFF2B40F0838001300828F8D19DF9C3
:105150001460D5F88401D5F80890314602F0DEFDE0
:10516000324603464146484601F0AEFEDEE714688B
:10517000414920462DF0CFFD68BB032F65D102A920
:10518000B068FEF7BFFC044620B99DF8081003295B
:1051900004D90624204607B0BDE8F083D5F8840181
:1051A00002F0C8FD07467668344930462DF0B3FD5D
:1051B00010B93A46214608E0082203A93046FDF717
:1051C00035FF0828E5D13A4603A9D5F8840102F055
:1051D0008DFD0446DEE72A4920462DF09CFD58B996
:1051E000032F32D102A9B068FEF78CFC04460028D8
:1051F000D0D19DF90870D6E7224920462DF08BFDCD
:10520000B0B9022F21D174681C4920462DF083FDCE
:10521000014620B9D5F8840102F06DFDD9E70822D6
:1052200003A92046FDF702FF0828B2D103A9F1E740
:10523000204615492DF06FFD044630B9D5F884019C
:1052400002F05EFDA6E70024A4E70724A2E70822F7
:1052500021462846FEF792FB9DF91460D5F884019B
:10526000D5F80890314602F059FD324603463946DA
:1052700079E700BFCC40030064470300BD7603001C
:10528000FD400300014103002F4803006C47030069
:10529000F8B5054616460C4641B9FFF7E5FD204630
:1052A00001462846BDE8F840FDF7F8BE17680C49EE
:1052B00038462DF030FD28B9321D611E2846FFF713
:1052C0005FFEEDE7074938462DF025FD28B9321D70
:1052D000611E2846FFF71CFFE2E70720E0E700BF5A
:1052E0001B4B0300504503002DE9F043A3B00546D6
:1052F0000C4616460021802202A81F462DF0E9F830
:1053000000238DF80730AF6094B1711C20462DF05A
:1053100043FDB0420CD8202302AA0DF1070120461C
:1053200013F090FA38B120222D49A86801F0CCFD85
:1053300023B0BDE8F0839DF8073023B92949A86858
:1053400001F0C2FDF4E7029F01F020FF30B12649D1
:1053500038462DF0E0FC08B12449F0E7244E04461D
:105360004FF00C0909FB04F8384658F806102DF0E8
:10537000D2FC88B94644B16873684A10C90705EB86
:1053800002009DF8071048BFAA5801F1FF3148BF3D
:10539000D35803AA9847CBE70134302CE2D195F8D3
:1053A00004900024E6B2B14511D92B68384653F871
:1053B000341003EBC4082DF0AEFC01340028F1D109
:1053C0009DF80700D8F8043003A9013898472B79D5
:1053D000B342ADD106212846FDF760FEA8E700BF25
:1053E000B83E0300D83E0300F33E0300F83E03003E
:1053F0004C4803002DE9FF41CC8B0B8C07460E4631
:1054000080681349E41A01F05FFDA4B20025C4B11D
:10541000318C102CA046294428BF4FF010086B4651
:10542000424689B2304604F007FAA4EB08045FFA5A
:1054300088F2694638464544FEF7A0FAA4B2ADB2F8
:10544000E5E70449B86801F03FFD04B0BDE8F0812C
:1054500039480300B456030013460A46014618466D
:10546000FFF7C8BF2DE9F041094E0A4D0746002459
:105470004FF00C0808FB04F23B68925998682946E3
:10548000013401F021FD082CF4D10020BDE8F081A9
:10549000FC4C030046470300036841F23361D3F834
:1054A000840102F02DBA10B503680446011DD3F83B
:1054B000840102F031FA2368BDE81040D3F884017A
:1054C00002F022BA2DE9F04F5E4B9BB0824618687D
:1054D000079089461B798DF82030164600211B2243
:1054E0000DF121002CF0F5FFB9F1000F04DC0724C9
:1054F00020461BB0BDE8F08F3468534920462DF09C
:105500000AFC002879D0514920462DF004FC0028DF
:1055100075D04F4920462DF0FEFB002871D04D4933
:1055200020462DF0F8FB0028E1D10427B9F1010F46
:10553000DDD00DF10C084146706802F010FB044606
:105540000028D5D1B9F1020FD1D0B46820462DF092
:1055500009FC1F28CBD82022214607A82DF0EDFBFF
:10556000B9F1030F4FD03C49F0682DF0D4FB00286F
:1055700014BF4FF0100B4FF0000BDAF80030002191
:10558000D3F8840102F07DF90546002858D03A4648
:10559000594602F080F90221284602F080F907A955
:1055A000284602F07EF90446002840D1B9F1040FE4
:1055B0002CDC2C2200210FA82CF08BFF98E80F0088
:1055C00013AC84E80F0041F23363ADF85E30012381
:1055D0008DF86030DAF80030D3F88401BBF1000FA9
:1055E00029D11E4BCDF800A00FAA294602F084F95C
:1055F000044600283FF47CAF19E0012796E7022714
:1056000094E7032792E74FF0100BB6E730692DF0CF
:10561000A9FB84B2002CCCD0284602F044F92246E3
:105620003169284602F0EEFB04460028C1D0284626
:1056300002F0E0FB5CE7012FD3D000230093D3E717
:10564000032455E7F04B030035480300E64C030004
:10565000EB4C0300EF4C0300F64C0300A95900008B
:10566000012938B50446154616DD50682DF07AFB41
:105670001F280FD80C4BA36004F114006060E46095
:10568000696820222DF059FB2368211DD3F884017D
:1056900002F03EF9002038BDD0E900320349986895
:1056A00001F012FCF6E700BF215900004647030055
:1056B00010B51022044640F8041B00212CF009FF0D
:1056C000204610BD2DE9FF41074608460E4602F070
:1056D00093FB0446304602F093FB241AA4B20CB3A9
:1056E0003B681449986801F0EFFB0025102C304608
:1056F000A04628BF4FF0100802F082FB4119434634
:105700006A4689B23046A4EB080402F07DFB4544AA
:105710005FFA88F269463868A4B2FEF72FF9ADB295
:10572000002CE3D13B680449986801F0CDFB04B03C
:10573000BDE8F0815C4D0300B45603002DE9F14F44
:10574000B1F100080646174607DC00221146FFF7B4
:1057500089FE072001B0BDE8F08FD2F800A0104C00
:1057600000254FF00C0B0BFB05F9504659F80410BF
:105770002DF0D1FA78B94C44A16863684A10C90782
:1057800006EB020044BFB258D35841463A4601B036
:10579000BDE8F04F18470135082DE4D10620D9E7C0
:1057A000FC4C03002DE9F04114460D46E18B88B016
:1057B00049BA302389B206468DF81F300068538AF3
:1057C000128A0591A18B49BA89B20491618B49BAB9
:1057D00089B20391218B49BA89B20291E18A49BA0F
:1057E00089B20191A18A49BA89B200915BBA52BAD1
:1057F0009BB292B24249806801F066FB284602F0F3
:1058000061F80138336803282AD8DFE800F002275E
:1058100025233C49986801F057FB30462946FFF79D
:1058200051FF284602F047F8F8B9284602F04AF836
:10583000336801284FF00001D3F884010CBF4FF00A
:1058400045084FF0430802F01CF8074698B908B025
:10585000BDE8F0812C49DDE72C49DBE72C49D9E78D
:105860002C49986801F030FBF1E7284602F02AF84D
:105870000128ECD1D9E74246202102F00CF8284655
:1058800002F027F80146384602F00FF8284602F0E9
:105890002EF88046284602F023F841460246384654
:1058A00001F0FBFF284602F00DF80128054617D04D
:1058B000336822463946D3F8840102F031F80546B0
:1058C000D8B1336828469C6803F0D0FE2A460346C8
:1058D0001149204601F0F8FA384602F08BFAB6E793
:1058E000384601F0E0FF2A460DF11F01384602F06C
:1058F00089FA05460028DBD0E3E733680749B0E7BB
:10590000104C03003D4C0300414C0300484C030085
:105910004C4C0300514C03005D4C03007F4C0300D2
:10592000FFF740BFF0B50E461146026887B0044647
:1059300095681F465BB1184603F098FE1849034668
:105940003A46284607B0BDE8F04001F0BDBAC88B22
:105950004B8A0A8A40BA80B20590888B40BA80B2DE
:105960000490488B40BA80B20390088B40BA80B252
:105970000290C88A40BA80B20190898A49BA89B235
:105980005BBA52BA00919BB292B20649284601F026
:105990009BFA3146204607B0BDE8F040FFF792BEC3
:1059A000944C0300B94C0300FFF7BCBF70B5002551
:1059B00004462026016380F83450294680F835508B
:1059C00080F8565080F8775010222CF082FD324635
:1059D000294604F136002CF07CFD3246294604F1BC
:1059E00057002CF076FD204670BD00002DE9F041F7
:1059F000064608460D4601F065FF0746284601F0B9
:105A00005AFF336B134904460246986801F05CFA6A
:105A1000102C336B1BD00DD8BCB1336B28469C685F
:105A200001F055FF3A4603460B492046BDE8F041D8
:105A300001F04ABA202C03D0302CEED1074900E007
:105A40000749986801F040FAE7E70649F9E706498F
:105A5000F7E700BFC85A03001A5B0300145B03009A
:105A600083690300085B0300055B03002DE9F04F29
:105A7000804685B008460E4602F0BEF90446304620
:105A800002F0BEF9241AA4B2D8F83030002C39D074
:105A900032461F499868DFF884A0DFF8849001F04F
:105AA00013FA4FF0000B102C3046254628BF102566
:105AB00002F0A6F900EB0B012B466A4689B230468C
:105AC00002F0A2F90027D8F83030BD42986806DD10
:105AD0001DF80720514601F0F7F90137F3E7641B81
