:1000000000000420B5020000DD020000DF02000055
:10001000E1020000E3020000E50200000000000031
:10002000000000000000000000000000E7020000E7
:10003000E902000000000000EB020000ED020000F9
:100040006529000029FC0300C95B0300EF020000E2
:10005000EF020000EF020000692D0000EF02000037
:10006000EF020000EF020000EF020000EF020000CC
:10007000EF02000015580300EF020000EF0200003D
:10008000EF020000B9140000EF020000EF020000D0
:1000900081150000EF020000EF020000EF020000F7
:1000A000EF020000EF020000EF020000EF0200008C
:1000B000EF020000EF02000000000000000000005E
:1000C000EF020000EF020000EF020000EF0200006C
:1000D0001D500300EF020000EF020000EF020000DD
:1000E000EF020000EF02000025C203000000000044
:1000F00000000000EF02000000000000EF0200001E
:1001000000000000000000000000000000000000EF
:1001100000000000000000000000000000000000DF
:1001200000000000000000000000000000000000CF
:1001300000000000000000000000000000000000BF
:1001400000000000000000000000000000000000AF
:10015000000000000000000000000000000000009F
:10016000000000000000000000000000000000008F
:10017000000000000000000000000000000000007F
:10018000000000000000000000000000000000006F
:10019000000000000000000000000000000000005F
:1001A000000000000000000000000000000000004F
:1001B000000000000000000000000000000000003F
:1001C000000000000000000000000000000000002F
:1001D000000000000000000000000000000000001F
:1001E000000000000000000000000000000000000F
:1001F00000000000000000000000000000000000FF
:1002000010B5054C237833B9044B13B10448AFF350
:1002100000800123237010BD580200200000000060
:100220004CC1040008B5034B1BB103490348AFF3AD
:10023000008008BD000000005C0200204CC10400EA
:10024000154B002B08BF134B9D46A3F5803A0021A8
:100250008B460F461348144A121A40F010FE0F4BFB
:10026000002B00D098470E4B002B00D09847002061
:10027000002104000D000D48002802D00C48AFF307
:10028000008040F079FD2000290003F019FD40F0C6
:100290004DFD00BF00000800000004200000000029
:1002A00000000000580200202C190120000000006E
:1002B000000000000649074A074B9B1A03DD043B78
:1002C000C858D050FBDC03F0B1FEFFF7B9FF0000C7
:1002D000A4C104000000002058020020FEE7FEE751
:1002E000FEE7FEE7FEE7FEE7FEE7FEE7FEE7FEE7E6
:1002F000074B1B5C1F2B8ABF064A4FF0A04203F03E
:100300001F03D2F80405D840C04300F00100704735
:10031000EC28040000030050074B1B5C1F2B86BF1A
:1003200003F01F0305494FF0A041012202FA03F335
:10033000C1F80C35704700BFEC28040000030050E2
:10034000074B1B5C1F2B86BF03F01F0305494FF0B3
:10035000A041012202FA03F3C1F80835704700BF3B
:10036000EC280400000300504FF0A0434FF480003D
:100370004FF400014FF08072C3F80805C3F8081568
:10038000C3F80825704700BF4FF0A0434FF480002A
:100390004FF400014FF08072C3F80C05C3F80C1540
:1003A000C3F80C25704700BF0A4B195C1F298ABF90
:1003B00009484FF0A04001F01F01D0F80435012298
:1003C0008A4022EA03011340C0F80815C0F80C3532
:1003D000704700BFEC28040000030050203818BF0D
:1003E0004FF0FF30704700BFC10706D4830742BFFC
:1003F000114B0C22C3F8002770474FF0A043032293
:1004000030B44FF08071C3F858274FF48005C3F81B
:100410005C274FF40004C3F860278207C3F808552F
:10042000C3F80845C3F8081503D5034B0C22C3F8DD
:10043000002730BC704700BF00030050704700BF6A
:1004400000B583B0044B0093044A402300F036F813
:1004500003B05DF804FB00BF6104000078020020D7
:1004600002B32DE9F843114B114E8846144643F070
:10047000010903270025224608EB0501002003F0AF
:100480008BFC03461D444FF47A40E41A23B93378B9
:1004900033B1C847013F06D001233370002CEAD1A5
:1004A000BDE8F88370473770BDE8F883F028040092
:1004B00074020020704700BF03F088BDF0B595B00E
:1004C000002415460F4608461E4602F021F838461D
:1004D00023460895082205A91A9D09960D950A94A8
:1004E0008DF82C400C9402F06DF89DF814308DF8C6
:1004F0001140DDE9061003F00302012ACDE90201F3
:1005000027D0022A04D0384602F006F815B0F0BD14
:10051000BDF81650C3F3C2038DF81030AD0908269C
:10052000082D2C4628BF0824334622460EA93846FB
:1005300002F048F82D1B214608AB02AA0EA826445B
:1005400000F094FC002DEBD1384601F0E5FF15B02A
:10055000F0BDBDF81460059DC6F38316C3F3C20455
:10056000B2000EA9384608238DF81040C5F3952532
:1005700002F028F808AB324628460EA9009302ABD9
:1005800000F0CEFB384601F0C7FF15B0F0BD00BF4C
:1005900008B5FFF791FF0421034800F077FB034BF8
:1005A00001225A7108BD00BF78C10400000000207C
:1005B000F0B5324C85B004F5836001F0C7FA04F25F
:1005C000144001F0C3FAD4E9013703EA0702D01C52
:1005D00004EB800114F8200010F0040044D003F173
:1005E000020C0E7806F00306012E654635D0022E69
:1005F00002F1030621D004EB86010028F1D104EBBF
:1006000082020133D26801923B4004EB830302F083
:100610000302012ADE6829D0022A23D1BDF8063060
:100620009B090333360C05EB9305154801F09AFA44
:1006300000B16560304605B0F0BD4B880CEB9313FC
:1006400007EA0302D11C03F1020C14F821006546ED
:1006500004EB810100F00400CFE70B88C3F38313A0
:100660006344EDE70026E0E79D1CC8E7BDF80430D1
:10067000C3F38313360C1D44D7E700BF8803002063
:100680009C0700200B4B0C4810B50022FF21C3F83B
:1006900018249960C3E90022C3F8142483F82024A5
:1006A00001F0F2FE044610B9044801F0BFFF2046F5
:1006B00010BD00BF8803002088C104001429040075
:1006C00021B9124B03EBC00000687047104A0F4974
:1006D000521AD20815D030B40E4D2B88834212D056
:1006E000002303E035F82340844205D001339A42C9
:1006F000F8D1002030BC704701EBC300006830BC6B
:100700007047104670470846F8E700BF50C1040024
:1007100078C1040054020020094B013903EBC000EA
:1007200003290BD8DFE801F0020806040220704715
:100730004079704700797047042070470020704767
:1007400050C104002DE9F843DFF8D8900746002097
:100750008846D9F8084001F0C5F9D9E90132D9F83D
:100760000060134401339B1B012B56D809F21C4532
:100770000121284601F0D2F9FFF71AFF0146284669
:1007800001F0CCF9D9E90132D9F800101344013352
:100790005B1A012BECD90A400332052302310020F9
:1007A00049F82230C9F8001001F0A4F900211C48D2
:1007B00001F0AAF980F31000731C234009EB8303B6
:1007C00000043440033440EA1740D86019F824305C
:1007D00067F3C50309F8243039F824306FF389131F
:1007E00029F8243059F8242068F39F221346012168
:1007F00061F301036FF3820349F8242009F82430E0
:1008000099F820341BB906E000F00EF818B1D9E9C8
:1008100000329A42F8D1BDE8F8833146BBE700BF09
:10082000A4070020880300202DE9F047914C002305
:1008300084B0C4F81834BFF34F8FD4E9015605EAE9
:100840000602D31C04EB830114F82330580719D592
:1008500027680B7803F00303012B43D0022B03D14D
:100860004B88023505EB931506EA0502D4F8180407
:10087000D31C04EB830128B9AF4239D914F82330D3
:100880005B07E6D404EB82026B1CD2680192334012
:1008900004EB830302F00302DB680293022A05F1F2
:1008A000020700F08980012A26D0D4F810543DB107
:1008B0002B6828469B689847EB681D68002DF7D188
:1008C0006D486E4B6E49C01AC008000440F002002B
:1008D000FFF738FFD4E90030C01A18BF012004B078
:1008E000BDE8F0870B880235C3F383131D44BBE7D3
:1008F000676004B0BDE8F087BDF804206148C2F32A
:100900008313062B28BF062363F389120233990051
:10091000ADF8042001F0BAFD80460028C5D001F0F2
:10092000F7FD0023082201A9404601F017FEBDF89B
:10093000043013F4707F00F09B806FF0010AAAEB83
:10094000050A082506EA070103312B46042204EBB9
:100950008101404601F002FEBDF8043007F10109B3
:100960000AEB0902C3F3831393424F4605F10405D2
:10097000E8D8D4F81834002B64D1D4F8105465B1F9
:10098000EB685A7928464146002A57D02B681B68E5
:100990009847EB681D68002DF2D1404601F0BCFD80
:1009A000002001F09FF8D4F818340BB9C4F8049073
:1009B000002001F09FF88DE7BDF8063031484FEA7E
:1009C00093194D46502D28BF502565F38F1305F11F
:1009D0000801ADF8063001F059FD804600283FF4CB
:1009E00064AF26EA070A0AF1010A01F091FD4FEA15
:1009F0008A0A0023082201A9404601F0AFFD5545AF
:100A00002BD9EBB2BAF1000F20D006EA0701A3EB15
:100A10000A03033104EB8101DDB25246082340464C
:100A200001F09CFD2A460AF108031749404601F0EF
:100A300095FD09F1030907EB99099AE71D68002D57
:100A40009ED1AAE7404601F067FD43E72A46082306
:100A50000D49404601F082FDEBE706EA070103314C
:100A600004EB81012A460823404601F077FDE0E7C8
:100A7000B9467EE78803002060C1040050C104002D
:100A80002029040088C10400940300202DE9F047C8
:100A9000DFF8E4A00746002091468846DAF80840CF
:100AA00001F020F8DAE90132DAF80060134401338A
:100AB0009B1B022B5CD80AF21C450121284601F041
:100AC0002DF8FFF775FD0146284601F027F8DAE911
:100AD0000132DAF80010134401335B1A022BECD90F
:100AE0000A4003320331452300204AF82230CAF875
:100AF000001000F0FFFFB31C23400AEB830300212A
:100B00001C48C3F80C9000F0FFFF80F31000731C2A
:100B100023400AEB830300043440033440EA1740C7
:100B2000D8601AF8243067F3C5030AF824303AF87D
:100B30002430012161F389132AF824305AF8242043
:100B400068F39F22134661F301036FF382034AF8AF
:100B500024200AF824309AF820341BB906E0FFF765
:100B600063FE18B1DAE900329A42F8D1BDE8F087A5
:100B70003146B5E7A4070020880300202DE9F84F8F
:100B80003A4C8046002093469A468946A56800F074
:100B9000A9FFD4E90132276813440133DB1B032B7F
:100BA00061D804F21C460121304600F0B7FFFFF780
:100BB000FFFC0146304600F0B1FFD4E90132216864
:100BC000134401335B1A032BEDD90A40033204317D
:100BD0008523002044F82230216000F08BFFBA1CEE
:100BE000FB1C2A402B4004EB820204EB8303002110
:100BF0001F48C2F80CB0C3F80CA000F085FF80F3CA
:100C000010007B1C2B4004EB830300043D400335A4
:100C100040EA1840D86014F8253068F3C50304F89A
:100C2000253034F82530022262F3891324F8253068
:100C300054F8252069F39F221346012161F3010333
:100C40006FF3820344F8252004F8253094F820340B
:100C50001BB906E0FFF7E8FD18B1D4E900329A426B
:100C6000F8D1BDE8F88F3946AFE700BF8803002010
:100C7000A4070020044BD3E900239A4201D0FFF7D8
:100C8000D3BD0020704700BF8803002030B4184D4A
:100C9000D5F8104400215CB1E3681A798A4204D186
:100CA00016E0DB681A798A4212D01B68002BF8D153
:100CB000C3681971D5F8103493B1DA68C368126843
:100CC0001A60D5F81034DB68186030BC08467047ED
:100CD00001310A29DFD14FF0FF31084630BC70479F
:100CE000C5F81004C2681360084630BC704700BFE6
:100CF0008803002038B5094BD3F81044012583F848
:100D000020544CB1E3685D71236820465B689847C6
:100D1000E3681C68002CF5D138BD00BF88030020B3
:100D20002DE9F04784B01D460C9C002394F80C80FC
:100D30002373EB8881460E461746002B40D1297A53
:100D400005290ED06B7AA88873BB404B53F821A0BD
:100D50000021FFF7B5FC524603463D49204600F00E
:100D60006DFF062F09D8DFE807F0046A4249525D9B
:100D700033004946204600F061FF2B7A052B05D051
:100D80006B7A5BB93349204600F058FF204600F0EB
:100D900049FF84F80C8004B0BDE8F0872E4A2F4943
:100DA000204600F04BFFEDE7FFF7B6FC2C4B2B493C
:100DB00053F82020204600F041FF297AA888C4E794
:100DC000254A00922749284A204600F037FFB6E717
:100DD000D6E90410D6E900230390D6E90207029170
:100DE000CDE900074946204600F028FFC5E74946FF
:100DF000D6E90023204600F021FFBEE7B168D6E91E
:100E0000002320460091494600F018FFB5E7D6E9D7
:100E10000201D6E90023019100904946204600F0E6
:100E20000DFFAAE7D6E90371B068D6E90023029165
:100E3000CDE900074946204600F000FF9DE73268F3
:100E40004946204600F0FAFE97E700BFA4290400B7
:100E500098290400448B040090290400F42A04001B
:100E6000382904007829040070290400082900D9D1
:100E700070472DE9F04F1D46904600232A7B2B73C7
:100E800085B0B8F80630039207460E46002B7BD19A
:100E900098F80810052911D098F80930B8F804001E
:100EA000002B63D13C4B53F821400021FFF708FC95
:100EB000224603463949284600F0C0FEDFF8FCB060
:100EC000DFF8FC90002405E03A5D013400F0B6FE46
:100ED000082C09D0A64249462846F5D8594601347F
:100EE00000F0ACFE082CF5D12D49DFF8D8B0DFF8C2
:100EF000D890284600F0A2FE00240CE017F804A0C9
:100F0000BAF17E0F23D92E2249462846013400F03B
:100F100095FE082C08D0A642F0D859462846013440
:100F200000F08CFE082CF6D198F80830052B02D082
:100F300098F80930A3B91B49284600F07FFE2846DF
:100F400000F070FE039B2B7305B0BDE8F08F3FF0FF
:100F50003BFF50445246437813F0970FD3D0D3E76A
:100F6000114A1249284600F069FEE4E7FFF7D4FB76
:100F70000F4B0E4953F82020284600F05FFE98F8EA
:100F80000810B8F804008DE7074A009209490A4A98
:100F9000284600F053FE7BE7A429040098290400AA
:100FA00068290400448B040090290400F42A0400FA
:100FB00038290400782904007029040064290400F9
:100FC0005C290400A02904006C290400434B197813
:100FD000002900F081802DE9F04F002487B0012521
:100FE0008E4603E00134E4B2744560D23C4B27B234
:100FF0001E6816F837C0ACF1200205FA02F9394A2A
:10100000CCF12003D2E9000125FA03F349EA0309F0
:1010100005FA0CF800EA080201EA0903134306EB9B
:10102000C70BDFD021EA09032E4920EA08026046F7
:10103000C1E9002301F088FE16F837C0ACF12002A8
:1010400005FA02F201920199CCF12003C6B225FA09
:1010500003F3ACF12002194306FA02F30393224B87
:101060000191D3E90023CDE9042305FA0CF30093A1
:10107000CCF12001039B26FA01F10B43039306FAFE
:101080000CF30293DDE90467DDE9002316401F40FD
:1010900032463B46DDE90267BB4208BFB24209D097
:1010A0000E4B013493F800E0E4B274459ED307B0D0
:1010B000BDE8F08F9BF80110DBF80430A1F10101CD
:1010C000B1FA81F14909091AB1FA81F14909002BF4
:1010D000E6D060469847E3E7704700BF4408002029
:1010E0008008002078080020700800202DE9F84FC3
:1010F0000646244800F0C2FCD8B9234F0123A6F1CC
:10110000200103FA01FBC6F12002D7E9000123FA0E
:1011100002F24BEA020B03FA06FA00EA0A0201EABB
:101120000B03134307D020EA0A0421EA0B05C7E9A1
:101130000045BDE8F88F304601F006FE134ED6E9B3
:101140000089C8B148EA0A0349EA0B049846A14657
:10115000D7E900234BEA03050D4B0A4819684AEA10
:1011600002044B464246C6E90023C7E90045002277
:10117000BDE8F84F00F034BC28EA0A0829EA0B0958
:10118000E6E700BF4C080020780800207008002027
:1011900048080020042A36D92DE9F04182B00E46D5
:1011A0000546144601F05AFC002836D01D491E4A57
:1011B0001E4B0D601E481F491C6016700023002244
:1011C000741EC0E90023C1E90023E4B2EEB105EBCF
:1011D000C404194F083D4FF00008032601E0AC425B
:1011E00013D0A37820788DF806803A4601A98DF8AF
:1011F00004608DF8053001F03BFC083C0028EED07F
:1012000002B0BDE8F081072070470C4A0C4800216D
:1012100000F0D4FB02B0BDE8F08101F0D5FB00285E
:10122000C4D0EDE7800800204408002048080020D2
:101230007008002078080020ED100000CD0F00009D
:10124000102A040070B5084D2B785BB1074E0024BE
:101250003368012113F8340001F0FAFC2B780134D3
:10126000A342F5D8002070BD44080020800800206B
:1012700000B585B000230390194601AA44F201008D
:10128000CDE9013300F004F805B05DF804FB00BFC0
:1012900010B572B6FFF72EFDFFF7ECFC0028FBD16E
:1012A000104B114C1149E41AE408240444F00100E5
:1012B000FFF748FA0E4B1B68DB0700D500BE44F071
:1012C00002000C49FFF73EFABFF34F8F0A490B4B60
:1012D000CA6802F4E0621343CB60BFF34F8F00BFD4
:1012E000FDE700BF50C1040060C10400142A0400DF
:1012F000F0ED00E0202A040000ED00E00400FA0513
:10130000F0B412F0030412D14B1CDB000A4D0B4E5B
:101310000B4F34709BB213442B600A4E0A4D0B4B9B
:1013200028803A60347019802046F0BC704707244A
:101330002046F0BC704700BF8808002084080020C9
:101340008C080020940800209008002092080020BB
:101350002DE9F047294F3B888B4235D305460020C5
:1013600016460C4600F0BEFB254B264A2648197847
:1013700013780088DBB2834238BF0133C9B234BF6F
:10138000DBB20023994222D092F800801378DFF874
:101390008090DBB2984286BF0133DBB200235FFA54
:1013A00088F80020137000F0A5FBD9F800300FFA80
:1013B00088F24FEAC20A43F83260534405B164B977
:1013C00000209880BDE8F0870920BDE8F087002064
:1013D00000F090FB0420BDE8F0870C4B38881B68B8
:1013E000294608FB003022463FF025FDD9F80030A1
:1013F0009A440020AAF80440E4E700BF90080020C7
:10140000940800208408002092080020880800200A
:101410008C0800202DE9F84F1B4C1C4D22782B78AE
:101420009A4226D0DFF86CA0DFF86C90184FDFF8F6
:101430006CB04FF000082378DAF800203888D9F82B
:101440000060DBB20FFA83FE02EBCE0103FB00600B
:10145000898852F83E3098472378BBF80010DBB2F9
:101460005A1C9942D2B206D9227023782A789A421D
:10147000E1D1BDE8F88F84F8008022782B789A4279
:10148000D9D1BDE8F88F00BF94080020840800205F
:10149000900800208C080020880800209208002076
:1014A000082910B5044602D00020FFF7E1FED4E978
:1014B0000030BDE8104018472DE9F041284A294B7B
:1014C0000024C2F84041C2F84441C2F84841C2F881
:1014D0004C41C2F80041C2F804411B6882B033B3EA
:1014E0002149D2F804550A68204EAD1A1A6825F031
:1014F0007F45AA4227460CD8197CD3F81C80AD1A28
:101500001444B9B9B8F1000F03D043461A68AA428F
:10151000F2D91749174A0B7812789A4219D016490E
:10152000164A41F823404FF48013C2F8003102B04C
:10153000BDE8F0811F74D3E90532082101926846A5
:1015400032460093FFF704FF0028DBD0FFF790FE40
:10155000D8E7531CDBB2022B08BF00230B70DEE779
:1015600000100140B8090020B4090020A1140000B7
:10157000B1090020B0090020A809002000E100E026
:101580002DE9F04F8C4A8D4913780978DFF85082A5
:10159000994285B0D8F800A000F07B810133DBB21E
:1015A000022B08BF002386481370864A076852F84A
:1015B00023107B1823F07F43002403605346264604
:1015C0002046A446ABB11A688A4200F26581DC6805
:1015D000C3F800C0891A1044DA6934B13D1825F007
:1015E0007F45C3E90154DE611E4613460124002BEA
:1015F000E9D1002C40F07C8101230093724B734FA2
:10160000DFF8E09143F00103019355464FF0000BE2
:1016100046B3D6E901C13446F669694B6C481A688D
:10162000ACEB020323F07F43834248D80B44236092
:1016300000220121C4E90122E2612174002D5DD064
:101640002A689A424DD2284603E00A689A424FD24D
:101650000846C1699B1A0029F7D12360E161C46182
:10166000002ED6D178783978884264D00B4603EBC7
:1016700043034C1CBA7807EBC303E1B28A421A79E0
:10168000397004BF00213970022A9C6844D0032AB3
:1016900038D0012AE8D1227C002AE5D1D3F80CC049
:1016A000C4F804C01969A1605869E06099F80000A5
:1016B0009B69A3610028B0D062609446ADE7A2EBBD
:1016C0000C0222F07F428A4202D28B1A2360AFE7DB
:1016D00000230122C4E90033A360E36122746DB1E9
:1016E0002A68C8F80040D31A2B60E56125468FE7C9
:1016F000D21A0A602360E161C461B1E7C8F8004012
:10170000254685E7002DAFD000232B74ED69002D11
:10171000FBD1C8F80050A5E74DB1AC422B4603D130
:10172000E4E094422FD01346DA69002AF9D100236D
:10173000237488429AD1BBF1000F01D1554553D093
:10174000002D56D1234E244A1F4C4FF480334FF4C2
:1017500000310127C2F880103C43C6F848334FF4EB
:101760003C60C6F808337760A047154BB7604FF46C
:101770003C601D60A047194B1D70002389F80030A4
:1017800005B0BDE8F08FA34200F09180E0692168C8
:10179000D861002800F086802A4603680B44036065
:1017A000AA424FF000033978787823741CBF15469D
:1017B0004FF0010BBDE700BFB0090020B1090020C8
:1017C000B4090020A8090020302A0400980800204D
:1017D000FEFF7F000010014000E100E0A5090020AD
:1017E000B8090020A4090020009B002BC5D0002DC3
:1017F000A8D0434B434A1C68D2F80465424FD5F841
:1018000000A03978331B23F07F43DD1CB9B93F4971
:101810003F4B4FF48030C2F844034FF00108C2F848
:1018200004034FF40030C1F8800143F00103086065
:10183000C2F800804FF43C60984787F80080AA45C2
:101840002CBF04EB0A0363192E4923F07F43C1F830
:101850004035D1F80425921B9B1B22F07F4223F0D8
:101860007F4303329A4288D9294BD1F80425C1F825
:10187000402543F001034FF43C609847234B4FF45D
:101880000032C3F80021002389F8003005B0BDE81C
:10189000F08F00260096B1E674BB521A1A6001233D
:1018A0000093ABE6002339787878237441E7194632
:1018B000EA69C8F8002092B9CDE90231114BDFF88E
:1018C00040C001209860019B89F80000CCF80020FE
:1018D0004FF43C609847DDE90231D8F80020C86930
:1018E0000968D86100287FF458AF59E72946DFE737
:1018F000C8F800309A467FE6C8F800309A46CCE730
:10190000B409002000100140A509002000E100E01A
:10191000302A04002DE9F8431F4D204E204FDFF8F8
:1019200098804FF480334FF400324FF001090024C7
:10193000C6F8802047EA0907C5F848334FF43C60F1
:10194000C5F80833C5F80490B847C5F808904FF4B7
:101950003C60C8F80040B847124A134B13491C605A
:101960001470134B134A0C700B2114701C80997067
:101970004FF48012C023C6F8802186F814333260F9
:10198000C5F8084586F81133D5F80435C8F8003095
:101990002046BDE8F88300BF0010014000E100E0F0
:1019A000302A0400A5090020B8090020B009002051
:1019B00098080020B1090020B4090020074B9B784B
:1019C0004BB132B128B10368187C20B959745A61FF
:1019D0007047072070470820704700BF9808002014
:1019E0002DE9F843224CA378002B35D0002833D0C2
:1019F000042934D943697BB3437C0646012B4FF05D
:101A000000000CBF884680461746894600F06AF8F9
:101A10006378A17822785D1CEDB2A94208BF002549
:101A2000AA421FD003EB430304EBC3030121114A75
:101A30009E601971D2F80425DA600020C3E9049889
:101A40009F61657000F056F80B4B4FF48012C3F89D
:101A500000210020BDE8F8830820BDE8F8830720B6
:101A6000BDE8F883002000F045F80420F2E700BF4D
:101A7000980800200010014000E100E070B5174D0B
:101A8000AB7823B318B343690BB300240474064640
:101A9000204600F027F86A78A8782978531CDBB232
:101AA000984208BF2346994213D002EB420205EB4D
:101AB000C20202219660204611716B7000F01AF884
:101AC000074B4FF48012C3F80021204670BD082058
:101AD00070BD204600F00EF8042070BD980800206C
:101AE00000E100E072B6024A1368013313607047E8
:101AF000BC090020034A1368013B136003B962B6B6
:101B0000704700BFBC09002050E8002F0B4640E89A
:101B1000003C9CF0000FF7D11046704750E8003FA2
:101B200003EB010240E8002C9CF0000FF6D11046B8
:101B3000704700BF50E8003FA3EB010240E8002CD3
:101B40009CF0000FF6D11046704700BF012350E80B
:101B5000002F42EA030C40E800C191F0000FF6D1DB
:101B600060467047002350E800CF0CEA030240E8CB
:101B7000002191F0000FF6D160467047B8B130B443
:101B8000D0E90112521A0468D2B2531E2160DBB2AE
:101B900042B101680A685C1E551C0D601370E3B207
:101BA000FF2BF6D103680020187130BC70470E205F
:101BB000704700BF38B504460020FFF793FFD4E913
:101BC00000311A688A4215D9511E19602168A3682C
:101BD0000868258A12F8012CE4681B1A0879DBB220
:101BE000984205FB024400D20B710020FFF782FFF0
:101BF000204638BD0024F8E738B5054600200C46DD
:101C0000FFF770FF2A681368591C1160E9682A8A77
:101C1000641AB4FBF2F41C700020BDE83840FFF7F2
:101C200069BF00BF826842B110B5044643690168CC
:101C3000006998470023A36010BD70470EB400B53B
:101C400082B0039929B102AA04AB42F8043D00F026
:101C5000A9F802B05DF804EB03B070472DE9F04F2E
:101C6000924683B051450F4605461E46DDE90CB24B
:101C7000C0F092800B464FF00108B3FBFAF39A458F
:101C800008F10108F9D9B04538BFB04612F0010992
:101C9000A96802D1BBF1000F54D1012402E0013E3A
:101CA0000AFB04F4012EFAD8B7FBF4F08245F7D909
:101CB0003B4E02E0A968B7FBF4F0335C2A680A2BBC
:101CC00004FB107702EB010E01F1010029D0A8609E
:101CD0008EF80030D5E90131994202D32846FFF74A
:101CE000A1FFB4FBFAF4002CE4D1B9F1000F15D038
:101CF000BBF1000F12D0C34510D92024AB682A686D
:101D0000591CA960D454D5E901329A420BF1FF3B2A
:101D100014D2BBF1000F01D0C345EFD103B0BDE831
:101D2000F08FA8604FF00D005054D5E901108842A3
:101D30001DD2296801EB000E0130C8E72846FFF7E5
:101D400071FFE6E7930722D42024C345A5D92B6869
:101D50004A1CAA605C54D5E9013199420BF1FF3B62
:101D600010D2BBF1000F98D0C345F0D195E72846BB
:101D70000193FFF757FFAA682968019B501C01EBEC
:101D8000020EA4E72846FFF74DFFA968E9E7002EF9
:101D90000CBF30242024D8E74FF0010873E700BFC0
:101DA000382A0400002900F0B9822DE9F04F0546D9
:101DB00087B091460C460E78DFF8C8A64FF00D0BA1
:101DC00013E0AB6828680A2E03F1010200EB03015F
:101DD00000F04B82AA600E70D5E901329A4280F081
:101DE0001B812678002E00F01E810134002E00F0A9
:101DF0001A81252EE5D12346002713F8012B2D2A21
:101E000000F0E380302A00F0E4802B2A00F0D48038
:101E10002A2A00F00D81A2F13006F1B2092903D976
:101E20007DE2A1F130060346184606EB860110F864
:101E3000012BA2F13004092C02EB4101F1D92E2A29
:101E400000F002814FF00008013301E013F8012B8C
:101E500002F0FB0168291C46F8D0253A532AC0D865
:101E600001A353F822F000BF53220000E31D00003D
:101E7000E31D0000E31D0000E31D0000E31D000062
:101E8000E31D0000E31D0000E31D0000E31D000052
:101E9000E31D0000E31D0000E31D0000E31D000042
:101EA000E31D0000E31D0000E31D0000E31D000032
:101EB000E31D0000E31D0000E31D0000E31D000022
:101EC000E31D0000E31D0000E31D0000E31D000012
:101ED000E31D0000E31D0000E31D0000E31D000002
:101EE000E31D0000E31D0000E31D0000E31D0000F2
:101EF000E31D0000E31D0000E31D0000E31D0000E2
:101F0000E31D0000E31D0000E31D0000E31D0000D1
:101F1000E31D0000E31D0000E31D0000E31D0000C1
:101F2000E31D0000E31D0000E31D0000E31D0000B1
:101F3000E31D000037220000E31D0000E31D000048
:101F4000E31D0000E31D0000E31D0000E31D000091
:101F5000E31D0000E31D0000E31D0000E31D000081
:101F6000DB1F0000BD210000E31D0000E31D000099
:101F7000E31D0000E31D0000BD210000E31D000083
:101F8000E31D0000E31D0000E31D0000E31D000051
:101F9000E31D000025210000E31D0000E31D0000FB
:101FA0009D200000E31D000081200000E31D0000D3
:101FB000E31D00003722000047F004071C462346BB
:101FC00013F8012B2D2A7FF41DAF47F001071C46A3
:101FD000F5E747F002071C46F1E7D9F800301A1D73
:101FE000C9F800201E78AB680A2E0CD12A68591C4B
:101FF000A96002F803B0D5E90123934203D3284630
:10200000FFF710FEAB682A68591CA960D654D5E9C1
:1020100001329A42FFF4E5AE2846FFF703FE267828
:10202000002E7FF4E2AE2B7B23BB07B0BDE8F08F20
:10203000D9F80020111DC9F80010166862782E2A00
:1020400004F102007FF4FEAE5A78A2F13003092BAE
:1020500000F2BD814FF0000808EB880802EB480849
:1020600010F8012FA2F13003092BA8F13008F3D9A1
:102070000346E9E6284607B0BDE8F04FFFF7D2BDBA
:10208000D9F800301A1DC9F8002019680197434695
:1020900000960A222846FFF7E1FDA2E6D9F80030B3
:1020A0001A1DC9F80020D3F80080FB0700F1E88072
:1020B000B8F1000F00F0A18140463FF029FB074630
:1020C000BE4215D9A6B1202100E08EB1AA682B68C6
:1020D000501CA8609954D5E901329A4206F1FF36A6
:1020E00004D328460391FFF79DFD0399BE42ECD12E
:1020F00008F1FF3818F8016F002E3FF472AEAB689C
:1021000028680A2E03F1010200EB030100F0908120
:10211000AA600E70D5E901329A42EBD32846FFF748
:1021200081FDE7E7D9F80020131DC9F80030AB683E
:1021300029681768581C3022A860CA54D5E90123C1
:10214000934280F0E6802A68581C7821A860D15418
:10215000D5E90123934280F0D7800F2F03D93A4667
:1021600012090F2AFCD84FF080560DE0AA6081F8C2
:102170000080D5E901329A4202D32846FFF752FD8A
:1021800036093FF42EAEAB68B7FBF6F21AF80280C0
:102190002868B8F10A0F06FB127700EB030103F180
:1021A0000102E3D1AA6000F803B0D5E901329A42F6
:1021B00080F049812B6899180132D7E7D9F80030AF
:1021C0001A1DC9F80020196881EAE173A3EBE173D5
:1021D000092B40F30E81AA480122A0FB03C3DB08B0
:1021E000092B02F10102F8DC4245134638BF434691
:1021F000039307F00203002E40F09580002B00F0BF
:10220000B780B8F1000F00F0F680F80740F1B08019
:102210000029C0F2FF807A0700F1C88007F00303AD
:10222000022B00F0A780CDE9006743460A2228462A
:10223000FFF714FDD5E5D9F800301A1DC9F80020C4
:10224000196801974346009610222846FFF706FDBD
:10225000C7E5AB682A68581C2521A860D154D5E988
:1022600001329A42FFF4BDADD6E6AA6000F803B091
:10227000D5E901329A423FD2296811440132A9E5D9
:102280004146A1EB080311F8017BD7B1AB68D5F843
:1022900000C00A2F03F101020CEB030000F0AF8035
:1022A000AA600770D5E901329A42EAD32846039121
:1022B000FFF7B8FC0399A1EB080311F8017B002F8D
:1022C000E4D19E427FF68DAD202702E0002E3FF440
:1022D00088ADA9682A68481CA8605754D5E901212F
:1022E000914206F1FF3604D328460393FFF79AFC88
:1022F000039BB342EAD174E52846FFF793FCAB6831
:1023000029685A1C194465E52846FFF78BFCAB6821
:1023100023E72846FFF786FCAB6814E770471846AA
:10232000002623468BE5002920DB7A071ED41BB14B
:10233000B8F1000F3FF46CAFF8073FF569AFBEB1DD
:10234000039BB342BFF464AF2023AA68501CA8606B
:1023500028688354D5E90102824206F1FF3640D253
:1023600036B1039AB242F0D1164651E7013EDEE79C
:1023700000264DE7B8F1000F7FF455AF002E6AD06C
:10238000039BB342BFF44FAF3023AA68501CA86030
:1023900028688354D5E90102824206F1FF3618D23B
:1023A000002E58D0039AB242EFD13CE7AA68531CE2
:1023B000AB602B682B209854D5E901329A42FFF488
:1023C0002DAF28460491FFF72DFC049926E703461C
:1023D00038E52846CDE90413FFF724FCDDE90413B2
:1023E000DEE72846CDE90413FFF71CFCDDE9041302
:1023F000B6E70122F8E646460AE7474660E6AA60E5
:102400000CF803B0D5E901329A4226D22B6898180D
:10241000013245E7AA68531CAB602B682D20985405
:10242000D5E901329A42C1F10001FFF4F7AEC8E7E5
:10243000AA6000F803B0D5E901329A4217D22968A0
:102440001144013264E62846FFF7ECFBA9682B68CB
:102450004A1C19448AE60026E5E628460391FFF760
:10246000E1FBA8682B680399421C184418E728462A
:10247000FFF7D8FBAB6829685A1C194448E600BF2F
:10248000CDCCCCCC382A0400FFF778BB2DE9F04145
:10249000058ACE1C043D2E440746B6FBF5F6FFF731
:1024A00089FB78B3F6B24FF48073013E0446C580D1
:1024B0000760838027D08046002509E06379AE421B
:1024C00003F101036371C8F80000076080461AD069
:1024D0003846FFF76FFB01350028EFD16679721E91
:1024E00014D02346013082421B68FBD11F684EB1D5
:1024F000002523682146013538461C46FFF77CFB42
:10250000AE42F6D100242046BDE8F0812768EFE70F
:1025100004300121FFF702BBF8B501210446043065
:10252000FFF708FBC0B200B1F8BD6679721E12D089
:102530002346013082421B68FBD11F68002EF3D076
:10254000002523682146013538461C46FFF754FB19
:10255000AE42F6D1F8BD2768F2E700BF2DE9F84397
:10256000C788467907FB06F6043E02EB030C0446D7
:10257000664503F1040015468846B0FBF7F238BF04
:10258000F51A07FB120012B1013A2468FCD13E1A79
:10259000AE4228BF2E469DB14FF000090430AD1B5E
:1025A0002044324608EB09013EF045FCAF42B144FD
:1025B00024683E464FF0000028BF2E46002DEDD186
:1025C000BDE8F8832DE9F843C7884679154607FB2F
:1025D00006F6043E05EB030C1A1D664504468846C4
:1025E000B2FBF7F038BFF51A07FB102110B1013824
:1025F0002468FCD17E1AAE4228BF2E469DB14FF012
:10260000000904312144AD1B324608EB09003EF0BD
:1026100012FCAF42B14424683E464FF0000128BF8F
:102620002E46002DEDD1BDE8F88300BF826800235F
:10263000936082681361826853618268D3608268A4
:10264000536082681360704710B570B101280BD1D8
:102650000D4C2369A0703BB1D3E900230120226116
:1026600098472369002BF7D110BD074CA3680122BE
:102670006270002BF8D0D3E900230020A2609847B5
:10268000A368002BF7D1EFE7C009002038B50A4C4A
:1026900023786BB909486360A3602361E36000F0AD
:1026A000F7F8054600F002F901232370284638BDEB
:1026B0008525284638BD00BFC009002049260000F6
:1026C00038B5154CA378054673B110B143680120A5
:1026D00098470020FFF706FAE3680133E360002023
:1026E000BDE83840FFF706BA03F0FF00FFF7FAF93C
:1026F00065B1226942B1954208D0134601E09D427E
:1027000004D01B68002BFAD12A602561E368002BF6
:10271000E2D100F0DDF8DFE7C009002038B5084C51
:102720000020FFF7DFF9E368013BE360E56815B9D6
:1027300000F0E6F8A5700020BDE83840FFF7DAB9F0
:10274000C00900204FF08043D3F81804C0F30040C4
:10275000704700BF38B5154C6378054673B110B1AA
:102760004368002098470020FFF7BCF963680133F5
:1027700063600020BDE83840FFF7BCB903F0FF00FC
:10278000FFF7B0F965B1A26842B1954208D013468F
:1027900001E09D4204D01B68002BFAD12A60A5609D
:1027A0006368002BE2D100F0B7F8DFE7C009002032
:1027B00038B5084C0020FFF795F96368013B63606A
:1027C000656815B900F0BAF865700020BDE83840BA
:1027D000FFF790B9C00900204FF08043D3F80C04F4
:1027E00000F00110A0F10110B0FA80F0400970472C
:1027F0000A4A0223C2F80435BFF36F8FBFF34F8F2D
:10280000C2F80805D2F80034002BFBD00023C2F830
:102810000435BFF36F8FBFF34F8F704700E0014067
:102820009AB32DE9F047194CA0EB01080D468E181C
:10283000C0004FF0FF0E4FF0010C002708EB05021F
:1028400022F0030200F01809116815F8013BC4F8E2
:1028500004C50EFA09FA21EA0A01BFF36F8FBFF32C
:102860004F8F03FA09F30B441360D4F80034002BA4
:10287000FBD0C4F80475BFF36F8FBFF34F8FAE4228
:1028800000F10800DAD1BDE8F087704700E00140B0
:10289000054A13792BB90121106053711846117143
:1028A00070478520704700BFD4090020074B1A6885
:1028B000D20704D4C021012283F800131A604FF01C
:1028C00080430122C3F81825704700BF00E100E0F3
:1028D00010B4094B094A0021196083B01B680193A9
:1028E000019C4FF0804102200123C1F804031360D2
:1028F00003B05DF8044B704704010040080000403D
:10290000044B01221A604FF08042D2F81834DB03E6
:10291000FBD470470C000040074B00221A6082B0C5
:102920001B68019301994FF080430122C3F80423EF
:102930001A6002B0704700BF00010040074B01223F
:102940001A604FF08042D2F80C3403F00113B3F157
:10295000011FF8D0024B00225A717047040000405A
:10296000D409002010B5154B1A6882B07AB1002145
:10297000134A19601B68507900934FF0804101237E
:10298000009CC1F8083310B91168537188470D4B8A
:102990001A6882B100221A601B6801934FF08042CE
:1029A0000221074B0198C2F808131B68012002B0EE
:1029B000BDE81040184702B010BD00BF0001004044
:1029C000D40900200401004030B5204C94F86A502E
:1029D00083B0002D36D14FF0FF332946062204F193
:1029E0006400C4E90033C4E90233C4E90433C4E930
:1029F0000633C4E90833C4E90A33C4E90C33C4E933
:102A00000E33C4E91033C4E91233C4E91433C4E902
:102A1000163323663EF033FA0D4A0E4B0E491D6005
:102A2000C02082F80603402010601B6801930198C3
:102A30004FF000430122284684F86A20C1F804338D
:102A400003B030BD082003B030BD00BFDC0900205A
:102A500000E100E07C61004000600040034B93F81F
:102A60006A00003018BF0120704700BFDC09002059
:102A7000F0B5744B1C1894F93050002D6ADA8E783A
:102A8000C6F340069646002E5ED11D6A013500F061
:102A9000C48009240C2553F8247001375DD004F15B
:102AA000010C53F82C70013700F0C280A71CAF4214
:102AB00048D253F82720013200F0BC8004F1030C07
:102AC000AC453FD253F82C70013700F0B18004F1CF
:102AD000040CAC4536D253F82C70013700F0A880B6
:102AE00004F1050CAC452DD253F82C70013700F0E1
:102AF0009F8004F1060CAC4524D253F82C700137AA
:102B000000F0968004F1070CAC451BD253F82C70F2
:102B1000013700F08D8004F1080CAC4512D253F857
:102B20002C70013700F0848004F1090CAC4509D207
:102B300053F82C7001377BD00A34AC4202D2DC6AE5
:102B4000013409D00420F0BD1D68013574D0012482
:102B50000825A0E70820F0BD0B241F1865B243F834
:102B600024E087F83050002E5ED08A7854071AD4BB
:102B7000D60741D41F284A7887BF334E00F01F0480
:102B800004464FF0A04604F5E074920046F8242075
:102B90002E4EC40800F0070C375D012202FA0CF239
:102BA0003A4332558A780C7812F0020209D1083D76
:102BB0002B44104693F8602042EA841483F8604066
:102BC000F0BDAB0003F1804303F5C0430202D3F82C
:102BD000101521F44F3121F44071C3F8101524046D
:102BE000D3F8101504F4403402F47C5222430A4313
:102BF000C3F810250020F0BD1F2887BF124A00F03F
:102C00001F0404464FF0A04202EB8402D2F80047B2
:102C100024F00204C2F80047BAE7082684F83060BE
:102C2000C3F820E0354634461C4484F858009CE73D
:102C3000644692E73C4690E700251A6084F83050DD
:102C400093E700BFDC09002000030050400A002089
:102C500070B43A4D2E1883B096F93030072B20DD32
:102C60002B4493F858309B09032B45D0012B14BFFC
:102C70004FF440314FF400311F284DD900F01F00B0
:102C80002F4B03EB8000D0F8002722F44032C0F82D
:102C90000027D0F800370B43C0F8003703B070BCF2
:102CA0007047DAB2072AF9D8980000F1804000F5A1
:102CB000C04003F14002D0F81045920092B244F0B7
:102CC000010402F18042C0F8104502F5C042002024
:102CD0000190019C10600029E0D096F9302055F851
:102CE0002220002ADAD00122164902FA03F3C1F8A1
:102CF000043303B070BC70471F2810D9104BD3F8B1
:102D0000103500F01F00C34013F0010F0CBF4FF44B
:102D100000314FF44031B3E74FF0A043B1E74FF03B
:102D2000A0421346D2F81025C24012F0010F14BF82
:102D30004FF440314FF40031A3E700BFDC0900201D
:102D400000030050006000401F288ABF054B4FF071
:102D5000A04300F01F00D3F8103523FA00F000F074
:102D600001007047000300502DE9F047002388B0B0
:102D7000CDE90233CE4A1668012E00F03B821E4692
:102D8000CC4B1A68012A00F02782CB4B1A68012A23
:102D900000F01482C94B1A68012A00F00182C84B66
:102DA0001A68012A00F0EE81C64B1A68012A00F069
:102DB000DB81C54B1A68012A00F0C881C34B1A6831
:102DC000012A00F0B581C24B1A68012A0FD10022F6
:102DD0001A601B6801934FF0A042019BD2F81025A6
:102DE000BC4B0292D3F81035039346F0004616F020
:102DF000FF0F1AD0B84F00240125A30003F1804330
:102E00002E4203F5C0434FEA45050BD0D3F8100519
:102E100057F82420D3F81015C0F30520C1F3014161
:102E200002B190470134082CE7D1002E02DB08B034
:102E3000BDE8F087A84CA74F4FF0FF33CDE906332C
:102E400094F960300DF1100800225D1CC8F80420D0
:102E500004924FF0010600F0F4805FFA83FC2CF03E
:102E6000C00008AB4FEAD00903EB090E0CF00703D2
:102E70001EF8082C06FA03F312EA030521D02218E3
:102E80004FEA9C1192F9302054F82220002A00F0D9
:102E90002981032900F028811F2800F2F9800546C6
:102EA0004FF0A04C0CEB850C1EF8185CDCF800E72A
:102EB0001D40CEF3014E40F0DF80BEF1030F00F065
:102EC000BF8194F96130581C32D0DBB223F0C000CE
:102ED00008AA4FEAD00E02EB0E0C03F007011CF813
:102EE000082C06FA01F912EA090F21D022189909D3
:102EF00092F9302054F82220002A00F0FB800329A8
:102F000000F0FB801F2800F2E98003464FF0A04E3E
:102F10000EEB83031CF818ECD3F800C71EEA090F68
:102F2000CCF3014C40F0B880BCF1030F00F0AE814F
:102F300094F96230591C30D0DBB223F0C00008AAEB
:102F40004FEAD00E02EB0E0C03F007011CF8082C20
:102F500006FA01F912EA090F1FD02218990992F90D
:102F6000302054F82220002A00F0D880032900F0F5
:102F7000D8801F287CD803464FF0A04E0EEB830369
:102F80001CF818ECD3F800C71EEA090FCCF3014C6B
:102F900064D1BCF1030F00F0658194F963305A1CD1
:102FA00034D0DBB223F0C00008AA4FEAD00E02EB07
:102FB0000E0C03F007021CF8081C06FA02F211427C
:102FC00024D004EB0009990999F9309054F829901C
:102FD000B9F1000F00F09880032900F098801F28B5
:102FE0008BBFBE464FF0A04E03F01F0303460EEB0F
:102FF00083031CF818ECD3F800C71EEA020FCCF3C9
:10300000014C20D1BCF1030F00F00181002D3FF4F1
:103010000EAF4FF0A0430299D3F81035D7F8102522
:10302000994203D1039991423FF401AFDDE90401D4
:10303000CDE9023294F960305D1CCDE906017FF4E0
:103040000CAF00253DE7BCF1020FDFD1032900F0F2
:103050003481B9F1000F40F0F180D7E7BCF1020FE5
:103060009BD1032900F02681002A96D0904794E74F
:1030700003F01F03BE4681E7BEF1020FE1D1032931
:1030800000F021810025002A3FF41BAF904718E78C
:103090000CF01F05BC4605E7BCF1020F7FF448AFFA
:1030A000032900F00D81002A3FF442AF90473FE72B
:1030B0000061004004610040086100400C61004074
:1030C0001061004014610040186100401C61004024
:1030D0007C61004000030050DC09002003F01F0366
:1030E000BE4615E70329ACD118F809501D4308F86E
:1030F0000950D1E603297FF41BAF18F80EA04AEA65
:10310000090A08F80EA0FDE603297FF47FAF18F83E
:103110000EA04AEA020A08F80EA060E703297FF42D
:103120003CAF18F80EA04AEA090A08F80EA020E7FA
:10313000664AD2F8042317067FF545AE00221A60CE
:103140001B680093009B46F080063CE65F4AD2F87D
:10315000042352067FF532AE00221A601B680093EA
:10316000009B46F0400629E6584AD2F8042391060F
:103170007FF51FAE00221A601B680093009B46F08B
:10318000200616E6514AD2F80423D0067FF50CAE8D
:1031900000221A601B680093009B46F0100603E6AD
:1031A0004A4AD2F8042314077FF5F9AD00221A60C9
:1031B0001B680093009B46F00806F0E5434AD2F8EE
:1031C000042355077FF5E6AD00221A601B680093C3
:1031D000009B46F00406DDE53C4AD2F8042397073D
:1031E0007FF5D3AD00221A601B680093009B46F068
:1031F0000206CAE53549D1F8041311F0010104D0E3
:10320000136013680093009BBAE50E46B8E50329E6
:103210007FF41FAF4FF4003CD3F8002722F4403274
:10322000C3F80027D3F80027013542EA0C02EDB2BB
:10323000C3F80027B9F1000F3FF4EBAEC847E5E64D
:1032400003297FF420AF4FF40035DCF8003723F476
:103250004033CCF80037DCF800372B43CCF800378C
:10326000012510E703297FF4FFAE4FF4003ED3F8A9
:1032700000C72CF4403CC3F800C7D3F800C70135A1
:103280004EEA0C0CEDB2C3F800C7EDE603297FF45B
:103290000AAF4FF4003ED3F800C72CF4403CC3F80B
:1032A00000C7D3F800C701354EEA0C0CEDB2C3F8E5
:1032B00000C7F8E64FF4403ED9E74FF4403CABE797
:1032C0004FF4403EE7E74FF44035BEE70060004072
:1032D0000220FDF769B800BF2DE9F0410C46054614
:1032E000FDF77CF8B8B9012C17D00BD3022C12D102
:1032F000134B5C787CB1134B1B6863B12046BDE86F
:10330000F04118471048FEF7B9FB0D4A0F4B94786F
:103310001B78A342EED0BDE8F081094E7378347873
:103320001BB90A4BB2781A70E4E7094F06483A46CF
:103330004FF40041FEF754FB0028F2D13D70F0E756
:10334000AC0A0020B80A00206C0A0020C00A002045
:10335000480A002010B50078FDF740F840B9054B49
:10336000587828B1044B1B6813B1BDE810401847CA
:1033700010BD00BFAC0A0020B80A0020AB4B1B6890
:10338000DB0700D4704770B5A94DAA4E2B7834786E
:1033900053B1A94B1B7800202870002B48D0FCF7B4
:1033A000CFFF0120FCF7CCFF172C40D8DFE814F04A
:1033B000A900E400E400CC00F800BA000301DE003C
:1033C000500043005000430061001800180018002E
:1033D0001800180066007400850096005D005D000E
:1033E0009648FEF74BFBD4F11104054600F0F0803F
:1033F000002840F0ED80012C13D0C82303FB04F417
:103400004FF4FA704FF400430021C3FB04014FF462
:103410007A7200233FF0DEF82A4601468748FEF71D
:10342000DFFA0220FCF778FF834B01221A7070BD8F
:10343000FCF79AFFB8E7012318462B70FCF7B4FF9E
:1034400000224FF480417E48BDE87040FEF7C8BAC4
:10345000012318462B70FCF7A7FF002240F6CD4150
:103460007748BDE87040FEF7BBBAFCF78DFF3470BB
:1034700070BDFCF789FF0C23337070BD6E4B1B7859
:10348000002B00F0AF800020FCF75AFF0120FCF772
:1034900057FF1223337070BD674B1B78002B00F071
:1034A000A4800020FCF74CFF0120FCF749FF00201E
:1034B000FCF732FF1323337070BD5F4B1B78002B7A
:1034C00000F0A3800020FCF73BFF0120FCF738FF51
:1034D0000120FCF721FF1423337070BD564B1B787D
:1034E000002B7CD00020FCF72BFF0120FCF728FFED
:1034F0000020FCF711FF0120FCF70EFF15233370AD
:1035000070BD4D4B1B78002B00F087800020FCF72E
:1035100017FF0120FCF714FF4948FEF7AFFA00231C
:10352000337070BD0020FCF7E3FE002860D000205F
:10353000FCF706FF05233370002241F69A1140483C
:10354000BDE87040FEF74CBA0020FCF7D1FE002821
:103550005ED00020FCF7F4FE46F266610323337070
:1035600000223748BDE87040FEF73ABA0020FCF769
:10357000D3FE0723337070BD0020FCF7B9FED0B333
:103580000020FCF7DDFE022C4EF2666118BF4FF4FE
:103590000031347000222A48BDE87040FEF720BA9E
:1035A0000020FCF7A5FED8B30020FCF7C9FE4FF4BD
:1035B00000310423D3E70020FCF7F6FE0623337026
:1035C000002240F6CD411E48BDE87040FEF708BA23
:1035D0000220FCF7B5FE184B00221A7070BDFCF7F4
:1035E000C3FE85E7FCF7C0FE53E7FCF7BDFE5EE7D0
:1035F000FCF792FE9EE7FCF78FFE43F2333141F673
:103600009A13022C08BF1946C3E7FCF7ADFE5FE72B
:10361000FCF782FE41F69A11A0E7FCF7A5FE7BE7D6
:10362000FCF77AFE43F23331C3E700BFB00A002053
:10363000B40A0020BC0A0020490A00204C0A0020DD
:103640008C0A002038B5BC4B1C6814F0010401D171
:10365000204638BDB94C237805464BB1B84B1B7892
:10366000002020700BB3FCF76BFE0120FCF768FE16
:10367000172D00F25E81DFE815F0B700DD00DD00F8
:103680000101CA001401F300270128001B002800D3
:103690001B0064006B006B006B006B006B00940000
:1036A000A400350048005E005E00FCF75DFEDFE729
:1036B000012318462370FCF777FE00224FF4804167
:1036C000A048BDE83840FEF78BB9012318462370A7
:1036D000FCF76AFE002240F6CD419A48BDE838402A
:1036E000FEF77EB9964B1B78002B00F00781002077
:1036F000FCF726FE0120FCF723FE0120FCF70CFE60
:10370000914B14221A700024A2E78D4B1B78002BDA
:1037100000F0F7800020FCF713FE0120FCF710FEFC
:103720000020FCF7F9FD0120FCF7F6FD864B152281
:103730001A7000248CE7FCF727FE834B00241D70D1
:1037400086E7FCF721FE804B0C221A7000247FE7ED
:103750007E48FEF793F90446D5F1110000F0BC80D5
:10376000002C40F0B980012814D0C82505FB00F5D5
:103770004FF400434FF4FA700021C3FB05014FF4EE
:103780007A7200233EF026FF224601466F48FEF77C
:1037900027F904460220FCF7BFFD694B01221A708D
:1037A00056E7674B1B78002B00F0A5800020FCF744
:1037B000C7FD0120FCF7C4FD634B12221A700024E0
:1037C00046E75F4B1B78002B00F08D800020FCF754
:1037D000B7FD0120FCF7B4FD0020FCF79DFD5A4B1E
:1037E00013221A70002433E7554B1B78002B00F08E
:1037F0008B800020FCF7A4FD0120FCF7A1FD5148BF
:10380000FEF73CF9504B002204461A7020E70020D6
:10381000FCF76EFD002869D00020FCF791FD4FF405
:103820000031494B474804241C700022BDE8384051
:10383000FEF7D6B80020FCF75BFD00286CD0002016
:10384000FCF77EFD022D4EF2666118BF4FF4003189
:103850003D4B3C481D700022BDE83840FEF7C0B823
:103860000020FCF7A1FD384B364806241C700022CE
:1038700040F6CD41BDE83840FEF7B2B80020FCF775
:1038800037FD002843D00020FCF75AFD46F2666160
:103890002D4B2C4803241C700022BDE83840FEF755
:1038A0009FB80020FCF724FD00283FD00020FCF743
:1038B00047FD254B234805241C70002241F69A1130
:1038C000BDE83840FEF78CB80020FCF725FD1E4B04
:1038D00007221A700024BBE60220FCF731FD184BCA
:1038E00000221A70B4E6FCF73FFD75E7FCF714FD03
:1038F00043F2333195E7FCF737FD5DE7FCF734FD24
:10390000FBE6FCF731FD0BE7FCF72EFD77E7FCF754
:1039100003FD41F69A11BBE7FCF7FEFC43F233319D
:1039200041F69A13022D08BF194691E7FCF7F4FC03
:10393000BFE700248CE600BFB00A0020B40A0020D4
:10394000490A00208C0A0020BC0A00204C0A0020F2
:1039500038B5214B214A19608307106000F001053A
:1039600003D49DB92C46204638BD1D4B1D480E245E
:103970001C7040F266620121FDF70CFC0446B8B1F0
:1039800015B10120FCF730FD204638BD0120FCF7C1
:103990002BFD154A15480021FEF710F804460028B3
:1039A000F2D1134A13480121BDE83840FEF706B8AA
:1039B000FDF748FC04460028E2D101460E4A0F48B4
:1039C000FDF7FCFF0446002DDED00120FCF70CFDC6
:1039D000002CDED0D8E700BFB80A0020B00A0020D3
:1039E000AC0A00206C2A04007D3300007C2A04000D
:1039F000D1320000742A040055330000782A0400F4
:103A000008B51B78802B00D008BD0D4B0722012084
:103A10001A70FCF76DFC60B9FCF77EFC0120FCF726
:103A20007BFC002241F69A110648BDE80840FDF7EC
:103A3000D7BF0020FCF784FC0120FCF781FCF0E7F5
:103A4000F40A0020F80A0020420700D4704708B5A5
:103A5000084607F0BAF888B1831E022B0A4A06D935
:103A6000062313701846BDE80840FFF7EBBD072397
:103A700013701846BDE80840FFF7E4BD024A107015
:103A8000BDE80840FFF7DEBDE50A002008B51C4B85
:103A90001B78032B27D8DFE803F02112070201204F
:103AA000BDE80840FCF738BC0120FCF77DFC002293
:103AB00040F6CD411348BDE80840FDF791BF012015
:103AC000FCF716FC80B90120FCF726FC41F69A11A0
:103AD00000220C48BDE80840FDF782BF0120BDE888
:103AE0000840FCF72DBC08BD0120FCF729FC46F27C
:103AF000666100220348BDE80840FDF771BF00BFC2
:103B0000E40A0020C40A002008B52C4A1378013BBF
:103B1000DBB2137083B10120FCF7EAFBA0B9FCF71C
:103B2000FBFB0120FCF7F8FB002241F69A11244828
:103B3000BDE80840FDF754BF224B1B78032B0DD87E
:103B4000DFE803F0121B2B090020FCF7F9FB012032
:103B5000FCF7F6FBE8E70120FCF7DEFB1A4B1878D0
:103B6000BDE80840FFF76EBD0120FCF7E9FB164BEE
:103B70001878BDE80840FFF765BD0120FCF7B8FBE9
:103B8000A8B10120FCF7DCFB46F2666100220F4879
:103B9000FDF726FF0028E1D008BD0120FCF704FC5A
:103BA000002240F6CD410948FDF71AFFF2E7012057
:103BB000FCF7B2FB41F69A11E8E700BFF40A0020D7
:103BC000F80A0020E40A0020E50A0020C40A0020C8
:103BD00070B5134A134E144B002421461470054649
:103BE0000C2230461C703DF04AF921460F4B104A1A
:103BF00010483360FDF7E2FE044628B901460E4A3C
:103C00000E48FDF7DBFE04462A460D49284606F01D
:103C100076FC2846034906F05EFC204670BD00BFD6
:103C2000E50A0020E80A0020E40A0020013A00002A
:103C30008D3A0000802A0400093B0000842A040019
:103C4000493A000010B504460C48FDF717FF0C4830
:103C5000FDF714FF0020FCF773FB0120FCF770FB5D
:103C600022462046074906F04DFC074A0023137000
:103C70001846BDE81040FFF7E5BC00BFC40A0020AD
:103C8000F80A0020493A0000E50A002070B5054610
:103C9000084606F09AFF074C074B0849E41AE40867
:103CA000240403462A4644F00300BDE87040FCF7B4
:103CB00065BF00BF60C1040050C10400882A040031
:103CC00070B54FF4004184B00020FCF7DBFC08B174
:103CD000FDF7CEFAFCF75CFC2D4A20210820FDF709
:103CE0000FFB08B1FDF7C4FAFDF714FE08B1FDF7AC
:103CF000BFFA002301204FF0A041032204E015F099
:103D0000E07F18BF41F824200133202B00FA03F58F
:103D100003F5E074F3D14FF0A0434FF0E0710022BF
:103D2000C3F8081501201146C3F80C25FFF710FE53
:103D300008B1FDF79DFA174E0024012501A8CDE931
:103D4000014403948DF8055000F052FA00F0F4FAA3
:103D5000304600F039FB00F031FBFFF739FF48B186
:103D6000FDF786FA06E000F0FDFAFDF753FBFCF7DD
:103D700081FF50B100F030FB0028F4D000F01EFBB2
:103D8000FFF760FF00F0E4FAD8E700F0F7FAF1E798
:103D9000180B00208D3C00002DE9F84F4400DFF89F
:103DA0005CB126180BEBC6068146F76A012F8A46DE
:103DB000904667D03DD3022F30D100F1010909EBC5
:103DC0004909756A4FEAC9090027B36A346AAB42E8
:103DD00003F1FF329CBF1B1903F1FF33A4EB050471
:103DE0008CBF531B5B1B0BEB0902444528BF4446A9
:103DF0009C42506828BF1C462844514622463DF04C
:103E00001AF8336A25449D422744A8EB0408A244CB
:103E100008D07562B8F1000FD7D100E0002738460E
:103E2000BDE8F88F00231D467362B8F1000FCCD1B6
:103E3000F5E7B36A756AAB429CBF326A9B18013BD7
:103E40005B1B9845EBD8044400F101090BEBC4045B
:103E500009EB49090BEBC90B266ADBF80400761B5A
:103E6000B045284443D33246A8EB06053CF0E3FFB7
:103E70000AEB0601DBF804002A463CF0DCFF47466B
:103E80006562CCE7D6E90825B76AAF4298BFBF188C
:103E9000461C013F06EB46067F1B0BEBC60647455B
:103EA00028BF47467068A2EB05084745284412D34F
:103EB000A1444246A7EB08050BEBC90B3CF0BBFF46
:103EC0000AEB080170682A463CF0B5FFCBF8245095
:103ED0003846BDE8F88FA1440BEBC90B3A463D4488
:103EE0003CF0A9FFCBF824503846BDE8F88F424695
:103EF00045443CF0A0FF4746656290E7C0F70020CC
:103F00002DE9F0412B4C94F800C005468846164632
:103F10001F46BCF1000F23D02369AB4246D90020D5
:103F2000FDF7E0FD5DB92A46154404EBC504069B88
:103F3000E3620020FDF7DEFD0020BDE8F0816B1C90
:103F400003EB4303DB006A00511904EBC10144F8A1
:103F50000380234400200F625E6088624862E3E7CA
:103F6000154B1648A3610222C4E904224FF40071E4
:103F7000134AA3641023C4F828C02365C4F824C0DE
:103F8000C4F82CC0C4F858C0C4F854C0C4F85CC00D
:103F9000E0612162E2640B49E01D3DF09CFB0A49AF
:103FA00020463DF098FB2023A371B5E74FF0FF308A
:103FB000C3E700BFC0F70020B82A0400380D002076
:103FC000280D0020C42A0400C82A040038B5114C6A
:103FD000114B1248E36110254FF40073104A114948
:103FE0002362E06400232565E01D0225A36263626D
:103FF000E362A3656365E365A261A264C4E9045555
:104000003DF069FB204608493DF065FB2023A37184
:1040100038BD00BFC0F70020380D0020280D00205B
:10402000B82A0400C42A0400C82A040010B44FF0BF
:1040300080414FF080520020C1F80C015E4BC1F866
:104040001001C1F83805D2F80414C3F82015D2F8CD
:104050000814C3F82415D2F80C14C3F82815D2F8A4
:104060001014C3F82C15D2F81414C3F83015D2F874
:104070001814C3F83415D2F81C14C3F84015D2F83C
:104080002014C3F84415D2F82414C3F84815D2F804
:104090002814C3F84C15D2F82C14C3F85015D2F8D4
:1040A0003014C3F85415D2F83414C3F86015D2F89C
:1040B0003814C3F86415D2F83C04C3F86805D2F884
:1040C00040043E49C3F86C050968D2F84424C3F89B
:1040D0007025082924D04FF08043D3F80024D2075C
:1040E00044BF6FF00102C3F80024354AD2F888308B
:1040F00043F47003C2F88830BFF34F8FBFF36F8F64
:104100004FF01023D3F80022002A23DBD3F8043227
:10411000002B1FDB2B4B2C4A1A605DF8044B7047B9
:104120002A4B1B68002BD6D129482A4A2A4C046006
:104130002A492B4BFB20C2F818050A681B6829483E
:1041400022F00F0203F00F0313434FF400720B60D1
:104150000260C0E7244B0122C3F80425D3F80024F1
:10416000002AFBD04FF0102312221F49C3F800226F
:10417000D1F80034002BFBD04FF0102212211A4B43
:10418000C2F80412D3F80024002AFBD000221649FA
:10419000C3F80425D1F80034002BFBD0BFF34F8FB8
:1041A0000749124BCA6802F4E0621343CB60BFF3C5
:1041B0004F8F00BFFDE700BF00C00040300100107E
:1041C00000ED00E0080000200090D0033401001052
:1041D0008C56004000F0004048810300E40E00408F
:1041E000580200104096024000E001400400FA0529
:1041F000F0B5002183B00646084631F0FFFB434C82
:10420000434D06F072F9434B2860E41AE40806F0C7
:104210007FF9240444F0030402463F492046FCF79A
:1042200035FC286806F08EFC3C4902462046FCF727
:104230002DFC286806F0FBF810B9B378002B4BD1A1
:1042400077780FB103B0F0BD0122394601A83CF0E8
:1042500016FE3378012B9DF804304BD043F00F034A
:104260008DF804309DF80410286806F032FCB1681F
:1042700000293BD10121286806F04EF9286806F094
:10428000D6F810B9B378002BDCD00121286806F0ED
:10429000F9FC23492046FCF755FA286806F0AFF9E7
:1042A000204902462046FCF7F1FB286806F0F3F9A6
:1042B0001D4902462046FCF7E9FB286806F0E1FBB1
:1042C0001A4B1B4A1B4910F0010F18BF1A46204613
:1042D000FCF7DCFB03B0F0BD0B21286806F09AF96F
:1042E0004AF6CD31286806F0DAF9A9E7286806F021
:1042F00093FBBFE767F30003DBB27168286843F004
:1043000002038DF8043006F0E8F9ABE760C1040061
:10431000380F002050C10400D02A0400E42A040011
:10432000F82A04001C2B0400342B0400502B04003A
:10433000602B0400742B040010B5044C206800F0BE
:104340007FF82068BDE8104005F0D2BB380F002090
:1043500010B5034C206806F0CEF80023236010BD92
:10436000380F002010B5044C206806F03AFB206896
:10437000BDE8104031F070BB380F002010B50D4B78
:10438000186806F03AFB00B110BD0446FDF7AAFB21
:10439000F1EE103A23F09F03E1EE103ABFF35F8F86
:1043A000054B40222046C3F88421FDF7A3FB20BF24
:1043B00010BD00BF380F002000E100E0014B18687D
:1043C000704700BF380F0020024B1A6801461046A4
:1043D00006F095B8380F002031F038BB4FF0FF30B1
:1043E0007047B0F88E3BB0F8902BC3F500618A425D
:1043F000CCBFA0F8921BA0F8922BB0F8921B21B171
:1044000000F28E30184431F0BDBB704710B50A4B36
:10441000044640F8043B00F031FA084B23600023C7
:10442000A4F88C33A4F88E3BA4F8903BA4F8923BFC
:1044300031F022FB204610BD942B0400A02B040079
:1044400010B5044C01462046FFF7E0FF024B1C600C
:1044500010BD00BF400F0020401B002010B5002100
:104460000446B4F88C23A31893F88B310A2B01D09F
:104470000D2B07D1013A92B2A4F88C23224482F882
:104480008C11EEE72AB1234604F5C671201D03F016
:10449000E1FB0020A4F88C0310BD00002DE9F843D7
:1044A0002A4FDFF8AC80DFF8AC9004460D468E183A
:1044B000B54249D22B780A2B19D014D8082B2ED00C
:1044C000B4F88C33B3F5FF7F27D8236801221B682B
:1044D000294620469847B4F88C335A1CA4F88C23FC
:1044E0002A7823442DE00D2B01D07F2BE7E72368AA
:1044F00002221B68394620469847B4F88C3333B102
:104500002344002283F88C212046FFF7A7FF23686D
:1045100002221B684146204698470135C8E7B4F897
:104520008C33002BF9D0236803221B6849462046B0
:104530009847B4F88C33013B9BB2A4F88C3300222B
:10454000234483F88C21E8E7BDE8F883A92B040015
:10455000A72B0400A42B0400024B0A46014618684E
:10456000FFF79CBF401B0020B0F8923B0BB9FFF750
:1045700038BF704770B5B0F8904BC4F50064A4B272
:10458000944228BF14460D466B1A9C420FDDB0F8CA
:10459000902BB0F88E3B15F8016B1344C3F30A035C
:1045A0000344013283F88E63A0F8902BECE7FFF709
:1045B000DBFF204670BDB0F8921BB0F88E2B0A448A
:1045C000C2F30A02A0F88E2BB0F8902B521AA0F872
:1045D000902B0022A0F8922BFFF703BF014B186825
:1045E000FFF7E9BF401B00202DE9F0410F4F104EAF
:1045F000054600244FF00C0808FB04F33146DA5955
:10460000A868013405F016F9432CF5D1084E0024B2
:104610002B79A34208D92B68A86853F83420314677
:1046200005F008F90134F3E7BDE8F081C83804006B
:1046300050370400D0F8840105F067BFD0F884013A
:1046400005F05BBF38B504468568D0F8840106F0F4
:10465000C8FA05490246284605F0ECF8A068034967
:10466000BDE8384005F0E6B8772D04008B2E040035
:1046700010B5C0B00446002308468DF8FF3011463F
:10468000FF236A4605F036FAA46868463DF040F814
:10469000236882B21B6869462046984740B010BD27
:1046A0000149806805F0C6B88B2E040010B5044699
:1046B0008AB06946D0F8840106F0D2F8BDF800202F
:1046C0002B49A06805F0B6F8BDF802202949A0687A
:1046D00005F0B0F8BDF80630BDF804202649A06802
:1046E00005F0A8F8BDF80A30BDF808202349A068F5
:1046F00005F0A0F8BDF80E30BDF80C202049A068E8
:1047000005F098F8BDF81230BDF810201D49A068DA
:1047100005F090F8BDF81630BDF814201A49A068CD
:1047200005F088F8BDF81A30BDF818201749A068C0
:1047300005F080F8BDF81E30BDF81C201449A068B3
:1047400005F078F8BDF82230BDF820201149A068A6
:1047500005F070F8BDF82630BDF824200E49A06899
:1047600005F068F82046FFF79BFF0AB010BD00BFB8
:10477000EF350400FB35040006360400183604004B
:104780002A3604003736040044360400513604004B
:104790007F3604005E3604007336040070B5224E86
:1047A0008EB00446002509AAE9B2D4F8840106F0C7
:1047B00057FB002832D19DF83730DB072CD5BDF8E8
:1047C00034100691BDF83210BDF82630BDF8242013
:1047D000A06849BA89B20591BDF8301049BA89B2CA
:1047E0000491BDF82E1049BA89B20391BDF82C107E
:1047F00049BA89B20291BDF82A1049BA89B2019129
:10480000BDF8281049BA89B25BBA52BA00919BB27E
:1048100092B2314605F00EF80135C4E72046FFF7A5
:104820003FFF0EB070BD00BF3C34040010B504461D
:1048300005F06EFE04490246A06804F0FBFF204626
:10484000BDE81040FFF72CBF5037040010B50446F8
:10485000D0F8840106F052FA40B10549A06804F08E
:10486000E9FF2046BDE81040FFF71ABF0149F5E710
:104870005D3504006435040000BA704770B500254A
:1048800004460E4605600571856029462C220C30D1
:104890003CF0F5FA1A4A84F858504FF47A73C4E998
:1048A0000E23184BC4E9103504F14003A3642146DC
:1048B00004F1980005F082F82146C4F8D44004F1D0
:1048C000D80003F0ABFB214604F5867003F024FD0D
:1048D00022463046C4F884610B4906F0C4F90B4BFC
:1048E000D4F88401C4E9133404F14C0105F0F3FD5C
:1048F0003E22294604F159003CF0C1FA204670BD21
:1049000008000100996F0000C57D00005D6E000089
:104910002DE9F041074690460C463CF0F9FE3D1863
:1049200000F001060130B8EB500F12D33846214693
:104930000022854221D910F8013BA3F14107052F40
:104940000BD8373B1343DBB29EB10B70002601310D
:10495000EEE74FF0FF30BDE8F081A3F16107052FCE
:1049600001D8573BEEE7303BDBB2092BF1D81343BC
:10497000EAE71B01DAB20126DBE7081BEBE70000E0
:1049800070B50C4619B9BDE87040FFF789BE85685F
:10499000084607F0B7FC2246034603492846BDE80F
:1049A000704004F047BF00BF4441040070B50546A5
:1049B0000E46B1B9D0F8840106F080F9044650B132
:1049C0001249A86804F036FF304601462846BDE883
:1049D0007040FFF7D5BF0E49A86804F02BFF2046B2
:1049E000F3E714680B4920463CF06BFE28B901211F
:1049F000D5F8840106F076F9E7E7074920463CF050
:104A000060FE01460028F3D00720DEE733350400BE
:104A1000852F04003D3504004435040010B50446DC
:104A2000D83003F041FB01462046BDE81040FFF7B7
:104A3000A7BF10B5044600F5867003F015FF0146C8
:104A40002046BDE81040FFF79BBF000070B505464B
:104A50000E46B1B9D0F8840105F072FD044650B19C
:104A60001249A86804F0E6FE304601462846BDE833
:104A70007040FFF785BF0E49A86804F0DBFE2046B2
:104A8000F3E714680B4920463CF01BFE28B90121CE
:104A9000D5F8840105F040FDE7E7074920463CF0E2
:104AA00010FE01460028F3D00720DEE75B34040047
:104AB00060340400673404006A34040037B50446E7
:104AC0006946D0F8840106F084F80546E0B9009AFA
:104AD0001049A06804F0AEFE9DF804200E49A068BD
:104AE00004F0A8FE9DF805200C49A06804F0A2FE81
:104AF0009DF806200A49A06804F09CFE9DF8072056
:104B00000849A06804F096FE29462046FFF738FFC2
:104B100003B030BD8D360400A0360400B736040063
:104B2000B0360400CA360400F0B5134685B004461A
:104B3000C9B9D0F88401144F06F09AF9461E00F165
:104B40000F0516F8012FA068394604F073FEAE4237
:104B5000F7D10E49A06804F06DFE00212046FFF752
:104B60000FFF05B0F0BD102269461868FFF7D0FEB0
:104B7000102806D16946D4F8840106F07DF9014673
:104B8000ECE70621EAE700BF592C040004490400C1
:104B9000F7B5002304468DF8043071BBD0F88401CA
:104BA00005F06FFF8DF80400C00703D54249A068E7
:104BB00004F040FE9DF80430990703D53F49A068F2
:104BC00004F038FE9DF804305A0703D53C49A0682C
:104BD00004F030FE9DF804301B0703D53949A06866
:104BE00004F028FE3849A06804F024FE0021204685
:104BF00003B0BDE8F040FFF7C3BE15689E46013D17
:104C000019461E4618461F469C4615F8012F6AB3E2
:104C10006E2A25D01AD8642A1FD0BCF1000F05D007
:104C20009DF8043043F001038DF8043028B19DF85D
:104C3000043067F341038DF8043029B19DF8043046
:104C400066F382038DF804300621D0E7722A0AD079
:104C5000732AE2D101200746D7E701210E46D4E7A7
:104C600001239E46D1E74FF0010CCEE7BCF1000FC7
:104C700005D09DF8042042F001028DF8042028B1EF
:104C80009DF8042067F341028DF8042029B19DF8B6
:104C9000042066F382028DF804202BB19DF80430C5
:104CA0006EF3C3038DF804309DF80410D4F884012A
:104CB00005F00FFF01469AE7CE610400B85D0400DD
:104CC000E2350400D95E0400044904002DE9F04FE8
:104CD00000238BB099420446ADF802300BDD156815
:104CE000464928463CF0EDFC064630B1444928468A
:104CF0003CF0E7FC48B107217AE04249A06804F0A3
:104D000099FD4149A06804F095FDDFF81C81DFF8AA
:104D10001C91DFF81CA1D4F8840101AF3A460DF1D3
:104D2000020105F049FF00285DD1A068002E54D192
:104D30009DF82430DFF8FCB013F0100F0CBF5222A6
:104D40004322494604F076FDBDF81020A068514684
:104D500004F070FD039A2D49A06804F06BFD9DF9E5
:104D60001D202B49A06804F065FD9DF91E202949EE
:104D7000A06804F05FFD9DF824202749A06802F098
:104D8000010204F057FD9DF824202349A068C2F3D6
:104D9000400204F04FFD9DF824201F49A068C2F393
:104DA000800204F047FD9DF824201B49A068C2F34F
:104DB000C00204F03FFD1949A06804F03BFD3546F0
:104DC0007A5DA0685946013504F034FD082DF7D10D
:104DD0001349A06804F02EFD9DE7BDF81020414660
:104DE00004F028FD97E70F49A06804F023FD002197
:104DF0002046FFF7C5FD0BB0BDE8F08FC25604009A
:104E00009E3804006F340400BB34040019350400DC
:104E100020350400273504002E35040068380400CE
:104E2000E02E040004490400113504000735040095
:104E30000F350400592C040010B50446D0F8840145
:104E400005F0D0F901462046BDE81040FFF798BDB7
:104E50002DE9F04186B001AF04463946D0F884010F
:104E600005F0C4FE064650BB1849A068DFF8748000
:104E700004F0E0FC35467A5DA0684146013504F057
:104E8000D9FC082DF7D11249A06804F0D3FCBDF875
:104E90000C201049A06804F0CDFC9DF811200E49AB
:104EA000A06804F0C7FC9DF812200C49A06804F02B
:104EB000C1FC9DF813200A49A06804F0BBFC3146F0
:104EC0002046FFF75DFD06B0BDE8F0813E2E0400F0
:104ED00004490400492E0400542E04006A2E0400E4
:104EE000812E0400592C040038B50446B1B9D0F81D
:104EF000840105F053FC78B1D4F8840130F06AFAEB
:104F000050B11749A06804F095FC002001462046E6
:104F1000BDE83840FFF734BD1249F3E71568124980
:104F200028463CF0CEFB58B91049D4F884012246FB
:104F300005F02FFC0121D4F8840105F036FCE5E7EB
:104F400028460B493CF0BDFB054638B901460246F0
:104F5000D4F8840105F01DFC2946ECE70720D5E7CD
:104F600033350400852F04003D350400B97000007E
:104F70004435040070B505460E46A9B9D0F8840141
:104F800005F0E2FE044650B11349A86804F052FC53
:104F9000344621462846BDE87040FFF7F1BC0F4972
:104FA000A86804F047FCF4E716680D4930463CF069
:104FB00088FB044628B90121D5F8840105F0C9FE13
:104FC000E7E7084930463CF07CFB044608B9014657
:104FD000F2E70724DDE700BF33350400852F040026
:104FE0003D3504004435040038B50446F9B9D0F81D
:104FF000840105F0EAFD042817D8DFE800F0030E6D
:10500000101214001F49A06804F014FC002001468F
:105010002046BDE83840FFF7B3BC1B49F3E71B4906
:10502000F1E71B49EFE71B49EDE71B49EBE7156883
:105030001A4928463CF045FB20B9D4F8840105F014
:10504000B0FDE4E7164928463CF03BFB20B9D4F814
:10505000840105F0ABFDDAE7124928463CF031FB4C
:1050600020B9D4F8840105F0B9FED0E70E492846EE
:105070003CF027FB20B9D4F8840105F0C1FEC6E757
:105080000720C4E7AD2D0400B82D0400C32D040093
:10509000CB2D0400D42D0400DD2D0400ED2D0400E3
:1050A00097610400F62D0400FD2D0400002938B599
:1050B000044617DD15680C4928463CF002FB50B940
:1050C0000121D4F8840105F0DDFD01462046BDE84C
:1050D0003840FFF755BC054928463CF0F2FA014636
:1050E0000028EED00720F0E7F53B0400722F040003
:1050F00010B50446D43004F053FB01462046BDE809
:105100001040FFF73DBC10B50446983004F060FC39
:1051100001462046BDE81040FFF732BCF0B50F1E37
:1051200087B0054616462DDD1468174920463CF029
:10513000C8FAE0B9012F25D0144B0393144B019307
:10514000022F144B00934FF000040CBF0246B268CC
:1051500004950294104B7168D5F8840105F02AFA81
:105160002146284607B0BDE8F040FFF709BC2046BD
:105170000A493CF0A6FA044620B9D5F8840105F0A6
:105180001DFAEDE70721ECE7F53B0400C9770000C5
:105190002D2E0400352E0400222E0400722F040050
:1051A00070B504460D4649B97B49806804F042FB5E
:1051B0007A49A06804F03EFB2946ACE0012940F0A2
:1051C000E9801568764928463CF07BFA06460028B7
:1051D00040F0A680D4F8840105F003FB0546026880
:1051E0007049A06804F026FB6A686F49A06804F063
:1051F00021FBAA686D49A06804F01CFBEA686C49B1
:10520000A06804F017FB2A696A49A06804F012FB41
:105210006A696949A06804F00DFBAA696749A0683A
:1052200004F008FBEA696649A06804F003FB2A6AF7
:105230006449A06804F0FEFA6A6A6349A06804F051
:10524000F9FAAA6A6149A06804F0F4FAEA6A6049C6
:10525000A06804F0EFFA2A6B5E49A06804F0EAFA4D
:10526000AA6B5D49A06804F0E5FAEA6B5B49A068A7
:1052700004F0E0FA2A6C5A49A06804F0DBFA6A6C80
:105280005849A06804F0D6FAAA6C5749A06804F0FF
:10529000D1FAEA6C5549A06804F0CCFA2A6D544959
:1052A000A06804F0C7FA6A6D5249A06804F0C2FA17
:1052B000AA6D5149A06804F0BDFAEA6D4F49A06893
:1052C00004F0B8FA2A6E4E49A06804F0B3FA6A6E88
:1052D0004C49A06804F0AEFAAA6E4B49A06804F0ED
:1052E000A9FAEA6E4949A06804F0A4FA2A6F48496D
:1052F000A06804F09FFA6A6F4649A06804F09AFA21
:10530000AA6F4549A06804F095FA4449EA6FA0687D
:1053100004F090FA31462046BDE87040FFF730BBFC
:1053200028463F493CF0CDF90546002832D1D4F853
:10533000840105F0FCFC064602883A49A06804F0A6
:1053400079FA72883849A06804F074FAB28837494B
:10535000A06804F06FFAF2883549A06804F06AFA90
:1053600032893449A06804F065FA72893249A0682C
:1053700004F060FAB2893149A06804F05BFAF2895E
:105380002F49A06804F056FA328A2E49A06804F02A
:1053900051FA11E70721BEE721300400273004004D
:1053A0002D300400313004003F300400533004003D
:1053B000693004008230040094300400AF300400EF
:1053C000C0300400D5300400E8300400023104008D
:1053D0001431040026310400393104005431040032
:1053E00062310400763104008C3104009D310400E8
:1053F000B2310400C5310400DF310400F131040092
:105400000D3204002A3204004132040058320400F4
:105410007932040097320400AA320400BD3204003D
:10542000D2320400D6320400EA320400FE32040014
:105430000F330400213304005F33040033330400CE
:105440004E33040075330400F0B5134685B00446AE
:10545000C9B9D0F88401144F05F052FB461E00F183
:105460000F0516F8012FA068394604F0E3F9AE42A3
:10547000F7D10E49A06804F0DDF900212046FFF7BE
:105480007FFA05B0F0BD102269461868FFF740FAB0
:10549000102806D16946D4F8840105F036FB014690
:1054A000ECE70621EAE700BF592C04000449040098
:1054B00038B505460C46D0F8840169B905F042FBC1
:1054C000084903461022A86804F0B4F9214628468A
:1054D000BDE83840FFF754BA116805F037FB0146C4
:1054E000F5E700BF673704002DE9F041084F064695
:1054F0000D4690460C46631B984506DD14F8012BBB
:10550000B068394604F096F9F5E7BDE8F08100BFD0
:10551000592C040037B505460C4699B96946D0F8B0
:10552000840105F0B6F8082269462846FFF7DCFF3B
:105530000549A86804F07EF921462846FFF720FABD
:1055400003B030BD0721F8E70449040030B5C3B00B
:10555000FF238DF8073004460DF1070302AA00214E
:10556000D0F8840105F00DFA054648B902A9204695
:105570009DF80720FFF7B8FF0449A06804F05AF926
:1055800029462046FFF7FCF943B030BD044904002A
:1055900037B505460C4699B96946D0F8840105F03F
:1055A00014F8082269462846FFF79EFF0549A868B7
:1055B00004F040F921462846FFF7E2F903B030BD78
:1055C0000721F8E70449040037B5134605460C46A1
:1055D00091B9D0F8840105F041F808220146284627
:1055E000FFF782FF0C49A86804F024F921462846F9
:1055F000FFF7C6F903B030BD082269461868FFF707
:1056000087F9002801DA0621F1E76946D5F8840117
:1056100005F028F80146EAE70449040037B51346C7
:1056200005460C4691B9D0F8840105F0FAF9082234
:1056300001462846FFF758FF0C49A86804F0FAF81D
:1056400021462846FFF79CF903B030BD0822694681
:105650001868FFF75DF9002801DA0621F1E76946CD
:10566000D5F8840105F0E1F90146EAE704490400B0
:1056700013B500220C4601A93CF006F9019B2060FD
:105680001B78002B14BF0620002002B010BD0000C4
:1056900073B505460C4681B98668D0F8840104F0DC
:1056A000AEFF0C490246304604F0C4F820460146DD
:1056B0002846FFF765F902B070BD01A91068FFF731
:1056C000D7FF0028F3D19DF80410D5F8840104F029
:1056D000A1FFECE76C2D04002DE9F04F00298DB0FF
:1056E000044640F313811568894928463BF0E9FFD9
:1056F000074600287DD0874928463BF0E2FF002876
:105700007FD0284603A9FFF7B3FF0546002840F0E5
:10571000F68004AF3A46BDF80C10D4F8840105F0C9
:1057200085FB0546002840F0EA80BDF822207A4932
:10573000A068DFF8388204F07DF8BDF820207749B2
:10574000A06804F077F87649A06804F073F82E4654
:10575000BA5DA0684146013604F06CF8082EF7D116
:105760007049A06804F066F86F49A06804F062F818
:105770009DF82C30D80703D56C49A06804F05AF87E
:105780009DF82C30990703D56949A06804F052F8B8
:105790009DF82C305A0703D56649A06804F04AF8F2
:1057A0009DF82C301B0703D56349A06804F042F82C
:1057B0005C49A06804F03EF89DF824205F49A06889
:1057C00004F038F8069A5E49A06804F033F8079AA6
:1057D0005C49A06804F02EF89DF825205A49A0687D
:1057E00004F028F89DF926205849A06804F022F812
:1057F00085E05749A06804F01DF85649A06804F0F8
:1058000019F8D4F88401DFF870A1DFF870B105F061
:1058100092FA00268146F1B249456BD20DF110088B
:105820004246D4F8840105F009FB00285CD19DF8BC
:105830002C30DD0658D4A068BDF82220002F55D1A9
:10584000514603F0F7FFBDF82020A068594603F049
:10585000F1FF069A4049A06803F0ECFF079A3E4921
:10586000A06803F0E7FF9DF825203C49A06803F0FD
:10587000E1FF9DF824203A49A06803F0DBFF9DF882
:105880002C203849A06802F0010203F0D3FF9DF8F4
:105890002C203449A068C2F3400203F0CBFF9DF8EE
:1058A0002C203049A068C2F3800203F0C3FF9DF8AA
:1058B0002C202C49A068C2F3C00203F0BBFF2A4988
:1058C000A06803F0B7FF294B3D4618F80520A068F3
:1058D00001931946013503F0ADFF082D019BF4D16A
:1058E0002349A06803F0A6FF013694E7214903F09D
:1058F000A1FFF9E70B49A06803F09CFF00252946AA
:105900002046FFF73DF80DB0BDE8F08F0725F6E71C
:10591000C25604009E380400622D0400712D04005C
:105920003E2E0400044904007E2D0400CE610400D4
:10593000B85D0400E2350400D95E0400852D040042
:10594000942D0400812E0400542E0400A22D040086
:105950009E2C0400F52C04004C2D0400542D040052
:105960005B2D04002E35040068380400592C040017
:10597000E02E0400D04F0400193504000F35040058
:1059800073B505460C4681B98668D0F8840105F0E8
:10599000D2F90C490246304603F04CFF204601463E
:1059A0002846FEF7EDFF02B070BD01A91068FFF7B1
:1059B0005FFE0028F3D19DF80410D5F8840105F0AE
:1059C000BEF9ECE76C2D040073B505460C4679B9B9
:1059D0008668D0F8840105F01BF80C490246304671
:1059E00003F028FF21462846FEF7CAFF02B070BD2B
:1059F00001A91068FFF73CFE04460028F2D1019986
:105A0000D5F8840105F008F8ECE700BF6C2D040020
:105A100037B5044671B98568D0F8840105F0BBF943
:105A20000A490246284603F005FF2046FEF738FEE5
:105A300003B030BD01A91068FFF71AFE0028F4D1A9
:105A40000199D4F8840105F0ABF9EEE76C2D040060
:105A500010B5002986B004461FDD05A91068FFF7C0
:105A600007FEE8B9059B1F2B19D8012199400F4B60
:105A700001930023029400934FF6FF72D4F884013F
:105A800005F041F960B90A49A06803F0D3FE09495D
:105A9000A06803F0CFFE06B010BD0021E7E70720A5
:105AA00001462046FEF76CFFF5E700BFB176000027
:105AB0008A330400E33304002DE9F04391B00DF183
:105AC00014080E4635230446154600212C22404674
:105AD00001933BF0D4F9002E4ADD264928683BF0BB
