:1000000000000420B5020000DD020000DF02000055
:10001000E1020000E3020000E50200000000000031
:10002000000000000000000000000000E7020000E7
:10003000E902000000000000EB020000ED020000F9
:100040007D24000089170400E5730300EF0200001F
:10005000EF020000EF02000081280000EF02000024
:10006000EF020000EF020000EF020000EF020000CC
:10007000EF0200002D700300EF020000EF0200000D
:10008000EF02000051100000EF020000EF0200003C
:10009000F1100000EF020000EF020000EF0200008C
:1000A000EF020000EF020000EF020000EF0200008C
:1000B000EF020000EF02000000000000000000005E
:1000C000EF020000EF020000EF020000EF0200006C
:1000D00079670300EF020000EF020000EF0200006A
:1000E000EF020000EF0200005DDD030000000000F1
:1000F00000000000EF02000000000000EF0200001E
:1001000000000000000000000000000000000000EF
:1001100000000000000000000000000000000000DF
:1001200000000000000000000000000000000000CF
:1001300000000000000000000000000000000000BF
:1001400000000000000000000000000000000000AF
:10015000000000000000000000000000000000009F
:10016000000000000000000000000000000000008F
:10017000000000000000000000000000000000007F
:10018000000000000000000000000000000000006F
:10019000000000000000000000000000000000005F
:1001A000000000000000000000000000000000004F
:1001B000000000000000000000000000000000003F
:1001C000000000000000000000000000000000002F
:1001D000000000000000000000000000000000001F
:1001E000000000000000000000000000000000000F
:1001F00000000000000000000000000000000000FF
:1002000010B5054C237833B9044B13B10448AFF350
:1002100000800123237010BD580200200000000060
:1002200024B2040008B5034B1BB103490348AFF3E4
:10023000008008BD000000005C02002024B2040021
:10024000154B002B08BF134B9D46A3F5803A0021A8
:100250008B460F461348144A121A42F0CCFB0F4B40
:10026000002B00D098470E4B002B00D09847002061
:10027000002104000D000D48002802D00C48AFF307
:10028000008042F035FB2000290003F08BFA42F099
:1002900009FB00BF0000080000000420000000006F
:1002A0000000000058020020B413012000000000EC
:1002B000000000000649074A074B9B1A03DD043B78
:1002C000C858D050FBDC03F0DFFBFFF7B9FF00009C
:1002D00074B204000000002058020020FEE7FEE790
:1002E000FEE7FEE7FEE7FEE7FEE7FEE7FEE7FEE7E6
:1002F000074B1B5C1F2B8ABF064A4FF0A04203F03E
:100300001F03D2F80405D840C04300F00100704735
:100310007C43040000030050074B1B5C1F2B86BF6F
:1003200003F01F0305494FF0A041012202FA03F335
:10033000C1F80C35704700BF7C4304000003005037
:10034000074B1B5C1F2B86BF03F01F0305494FF0B3
:10035000A041012202FA03F3C1F80835704700BF3B
:100360007C430400000300504FF0A0434FF4800092
:100370004FF400014FF08072C3F80805C3F8081568
:10038000C3F80825704700BF4FF0A0434FF480002A
:100390004FF400014FF08072C3F80C05C3F80C1540
:1003A000C3F80C25704700BF0A4B195C1F298ABF90
:1003B00009484FF0A04001F01F01D0F80435012298
:1003C0008A4022EA03011340C0F80815C0F80C3532
:1003D000704700BF7C43040000030050203818BF62
:1003E0004FF0FF30704700BFC10706D4830742BFFC
:1003F000114B0C22C3F8002770474FF0A043032293
:1004000030B44FF08071C3F858274FF48005C3F81B
:100410005C274FF40004C3F860278207C3F808552F
:10042000C3F80845C3F8081503D5034B0C22C3F8DD
:10043000002730BC704700BF00030050704700BF6A
:1004400000B583B0044B0093044A402300F034F815
:1004500003B05DF804FB00BF6104000078020020D7
:1004600002B32DE9F843114B114E8846144643F070
:10047000010903270025224608EB0501002003F0AF
:10048000E9F903461D444FF47A40E41A23B933785E
:1004900033B1C847013F06D001233370002CEAD1A5
:1004A000BDE8F88370473770BDE8F88380430400E7
:1004B00074020020704700BFF0B595B000241546C7
:1004C0000F4608461E4601F0BDFD384623460895F6
:1004D000082205A91A9D09960D950A948DF82C40BD
:1004E0000C9401F009FE9DF814308DF81140DDE9FF
:1004F000061003F00302012ACDE9020127D0022AE7
:1005000004D0384601F0A2FD15B0F0BDBDF816507C
:10051000C3F3C2038DF81030AD090826082D2C4610
:1005200028BF0824334622460EA9384601F0E4FDD0
:100530002D1B214608AB02AA0EA8264400F03EFB64
:10054000002DEBD1384601F081FD15B0F0BDBDF8AE
:100550001460059DC6F38316C3F3C204B2000EA94E
:10056000384608238DF81040C5F3952501F0C4FDE9
:1005700008AB324628460EA9009302AB00F078FA89
:10058000384601F063FD15B0F0BD00BFF0B5324C48
:1005900085B004F5836001F091F804F2144001F095
:1005A0008DF8D4E9013703EA0702D01C04EB80017F
:1005B00014F8200010F0040044D003F1020C0E786F
:1005C00006F00306012E654635D0022E02F1030621
:1005D00021D004EB86010028F1D104EB8202013323
:1005E000D26801923B4004EB830302F00302012A2C
:1005F000DE6829D0022A23D1BDF806309B090333D7
:10060000360C05EB9305154801F064F800B1656000
:10061000304605B0F0BD4B880CEB931307EA03029C
:10062000D11C03F1020C14F82100654604EB810192
:1006300000F00400CFE70B88C3F383136344EDE7B6
:100640000026E0E79D1CC8E7BDF80430C3F3831320
:10065000360C1D44D7E700BF880300209C0700200C
:1006600021B9124B03EBC00000687047104A0F49D4
:10067000521AD20815D030B40E4D2B88834212D0B6
:10068000002303E035F82340844205D001339A4229
:10069000F8D1002030BC704701EBC300006830BCCB
:1006A0007047104670470846F8E700BF28B20400BC
:1006B00048B2040054020020094B013903EBC0008A
:1006C00003290BD8DFE801F0020806040220704776
:1006D00040797047007970470420704700207047C8
:1006E00028B204002DE9F843DFF8D890074600202F
:1006F0008846D9F8084000F0ADFFD9E90132D9F8B1
:100700000060134401339B1B012B56D809F21C4592
:100710000121284600F0BAFFFFF738FF01462846BE
:1007200000F0B4FFD9E90132D9F8001013440133C5
:100730005B1A012BECD90A40033205230231002059
:1007400049F82230C9F8001000F08CFF00211C4845
:1007500000F092FF80F31000731C234009EB830329
:1007600000043440033440EA1740D86019F82430BC
:1007700067F3C50309F8243039F824306FF389137F
:1007800029F8243059F8242068F39F2213460121C8
:1007900061F301036FF3820349F8242009F8243040
:1007A00099F820341BB906E000F00EF818B1D9E929
:1007B00000329A42F8D1BDE8F8833146BBE700BF6A
:1007C000A4070020880300202DE9F047914C002366
:1007D00084B0C4F81834BFF34F8FD4E9015605EA4A
:1007E0000602D31C04EB830114F82330580719D5F3
:1007F00027680B7803F00303012B43D0022B03D1AE
:100800004B88023505EB931506EA0502D4F8180467
:10081000D31C04EB830128B9AF4239D914F8233033
:100820005B07E6D404EB82026B1CD2680192334072
:1008300004EB830302F00302DB680293022A05F152
:10084000020700F08980012A26D0D4F810543DB167
:100850002B6828469B689847EB681D68002DF7D1E8
:100860006D486E4B6E49C01AC008000440F002008B
:10087000FFF738FFD4E90030C01A18BF012004B0D8
:10088000BDE8F0870B880235C3F383131D44BBE733
:10089000676004B0BDE8F087BDF804206148C2F38A
:1008A0008313062B28BF062363F3891202339900B2
:1008B000ADF8042001F084FB80460028C5D001F08B
:1008C000C1FB0023082201A9404601F0E1FBBDF86D
:1008D000043013F4707F00F09B806FF0010AAAEBE4
:1008E000050A082506EA070103312B46042204EB1A
:1008F0008101404601F0CCFBBDF8043007F101094D
:100900000AEB0902C3F3831393424F4605F1040532
:10091000E8D8D4F81834002B64D1D4F8105465B159
:10092000EB685A7928464146002A57D02B681B6845
:100930009847EB681D68002DF2D1404601F086FB18
:10094000002000F087FED4F818340BB9C4F80490E6
:10095000002000F087FE8DE7BDF8063031484FEAF1
:1009600093194D46502D28BF502565F38F1305F17F
:100970000801ADF8063001F023FB804600283FF463
:1009800064AF26EA070A0AF1010A01F05BFB4FEAAD
:100990008A0A0023082201A9404601F079FB554547
:1009A0002BD9EBB2BAF1000F20D006EA0701A3EB76
:1009B0000A03033104EB8101DDB2524608234046AD
:1009C00001F066FB2A460AF108031749404601F088
:1009D0005FFB09F1030907EB99099AE71D68002DF0
:1009E0009ED1AAE7404601F031FB43E72A4608239F
:1009F0000D49404601F04CFBEBE706EA07010331E5
:100A000004EB81012A460823404601F041FBE0E760
:100A1000B9467EE78803002038B2040028B20400FB
:100A2000A443040058B2040094030020044BD3E90B
:100A300000239A4201D0FFF7C7BE0020704700BFD5
:100A40008803002038B5094BD3F81044012583F8FA
:100A500020544CB1E3685D71236820465B68984779
:100A6000E3681C68002CF5D138BD00BF8803002066
:100A70002DE9F04784B01D460C9C002394F80C80AF
:100A80002373EB8881460E461746002B40D1297A06
:100A900005290ED06B7AA88873BB404B53F821A070
:100AA0000021FFF7DDFD524603463D49204600F098
:100AB00061FE062F09D8DFE807F0046A4249525D5B
:100AC00033004946204600F055FE2B7A052B05D011
:100AD0006B7A5BB93349204600F04CFE204600F0AB
:100AE0003DFE84F80C8004B0BDE8F0872E4A2F4903
:100AF000204600F03FFEEDE7FFF7DEFD2C4B2B49D3
:100B000053F82020204600F035FE297AA888C4E753
:100B1000254A00922749284A204600F02BFEB6E7D6
:100B2000D6E90410D6E900230390D6E90207029122
:100B3000CDE900074946204600F01CFEC5E74946BE
:100B4000D6E90023204600F015FEBEE7B168D6E9DD
:100B5000002320460091494600F00CFEB5E7D6E997
:100B60000201D6E90023019100904946204600F099
:100B700001FEAAE7D6E90371B068D6E90023029125
:100B8000CDE900074946204600F0F4FD9DE73268B4
:100B90004946204600F0EEFD97E700BF2C440400D4
:100BA00020440400047C0400144404001C44040099
:100BB000BC430400FC430400F4430400082900D9AA
:100BC00070472DE9F04F1D46904600232A7B2B737A
:100BD00085B0B8F80630039207460E46002B7BD14D
:100BE00098F80810052911D098F80930B8F80400D1
:100BF000002B63D13C4B53F821400021FFF730FD1F
:100C0000224603463949284600F0B4FDDFF8FCB01F
:100C1000DFF8FC90002405E03A5D013400F0AAFD05
:100C2000082C09D0A64249462846F5D85946013431
:100C300000F0A0FD082CF5D12D49DFF8D8B0DFF881
:100C4000D890284600F096FD00240CE017F804A088
:100C5000BAF17E0F23D92E2249462846013400F0EE
:100C600089FD082C08D0A642F0D859462846013400
:100C700000F080FD082CF6D198F80830052B02D042
:100C800098F80930A3B91B49284600F073FD28469F
:100C900000F064FD039B2B7305B0BDE8F08F41F0BD
:100CA0004FFE50445246437813F0970FD3D0D3E70A
:100CB000114A1249284600F05DFDE4E7FFF7FCFC0D
:100CC0000F4B0E4953F82020284600F053FD98F8AA
:100CD0000810B8F804008DE7074A009209490A4A4B
:100CE000284600F047FD7BE72C4404002044040024
:100CF000EC430400047C0400144404001C4404007D
:100D0000BC430400FC430400F4430400E843040033
:100D1000E043040028440400F0430400434B1978E6
:100D2000002900F081802DE9F04F002487B00125D3
:100D30008E4603E00134E4B2744560D23C4B27B2E6
:100D40001E6816F837C0ACF1200205FA02F9394ADC
:100D5000CCF12003D2E9000125FA03F349EA0309A3
:100D600005FA0CF800EA080201EA0903134306EB4E
:100D7000C70BDFD021EA09032E4920EA08026046AA
:100D8000C1E9002301F06CFD16F837C0ACF1200278
:100D900005FA02F201920199CCF12003C6B225FABC
:100DA00003F3ACF12002194306FA02F30393224B3A
:100DB0000191D3E90023CDE9042305FA0CF3009354
:100DC000CCF12001039B26FA01F10B43039306FAB1
:100DD0000CF30293DDE90467DDE9002316401F40B0
:100DE00032463B46DDE90267BB4208BFB24209D04A
:100DF0000E4B013493F800E0E4B274459ED307B083
:100E0000BDE8F08F9BF80110DBF80430A1F101017F
:100E1000B1FA81F14909091AB1FA81F14909002BA6
:100E2000E6D060469847E3E7704700BFAC07002074
:100E3000E8070020E0070020D80700202DE9F84F40
:100E40000646244800F0D2FBD8B9234F0123A6F16F
:100E5000200103FA01FBC6F12002D7E9000123FAC1
:100E600002F24BEA020B03FA06FA00EA0A0201EA6E
:100E70000B03134307D020EA0A0421EA0B05C7E954
:100E80000045BDE8F88F304601F0EAFC134ED6E984
:100E90000089C8B148EA0A0349EA0B049846A1460A
:100EA000D7E900234BEA03050D4B0A4819684AEAC3
:100EB00002044B464246C6E90023C7E9004500222A
:100EC000BDE8F84F00F044BB28EA0A0829EA0B09FC
:100ED000E6E700BFB4070020E0070020D8070020A5
:100EE000B0070020042A36D92DE9F04182B00E4621
:100EF0000546144601F03EFB002836D01D491E4A27
:100F00001E4B0D601E481F491C60167000230022F6
:100F1000741EC0E90023C1E90023E4B2EEB105EB81
:100F2000C404194F083D4FF00008032601E0AC420D
:100F300013D0A37820788DF806803A4601A98DF861
:100F400004608DF8053001F01FFB083C0028EED04E
:100F500002B0BDE8F081072070470C4A0C48002120
:100F600000F0E4FA02B0BDE8F08101F0B9FA00281F
:100F7000C4D0EDE7E8070020AC070020B007002050
:100F8000D8070020E00700203D0E00001D0D0000E6
:100F90009844040070B5084D2B785BB1074E0024CF
:100FA0003368012113F8340001F0DEFB2B780134A3
:100FB000A342F5D8002070BDAC070020E807002050
:100FC00000B585B000230390194601AA44F2010040
:100FD000CDE9013300F004F805B05DF804FB00BF73
:100FE00010B572B6FFF72EFDFFF720FD0028FBD1EC
:100FF000104B114C1149E41AE408240444F0010098
:10100000FFF770FB0E4B1B68DB0700D500BE44F0FA
:1010100002000C49FFF766FBBFF34F8F0A490B4BE9
:10102000CA6802F4E0621343CB60BFF34F8F00BF86
:10103000FDE700BF28B2040038B204009C4404005D
:10104000F0ED00E0A844040000ED00E00400FA0523
:10105000F8B5204A204B0024C2F84041C2F8444170
:10106000C2F84841C2F84C41C2F80041C2F80441FC
:101070001B6833B31949D2F804550A68AD1A1A68C7
:1010800025F07F45AA4227460DD8197CDE69AD1AA6
:10109000144419B11F74D3E9052090471EB133469B
:1010A0001A68AA42F1D90E490E4A0B7812789A4270
:1010B00008D00D490D4A41F823404FF48013C2F87F
:1010C0000031F8BD531CDBB2022B08BF00230B70AC
:1010D000EFE700BF001001400C09002008090020C4
:1010E0000509002004090020FC08002000E100E0C0
:1010F0002DE9F04F8C4A8D4913780978DFF850823A
:10110000994285B0D8F800A000F07B810133DBB2B2
:10111000022B08BF002386481370864A076852F8DE
:1011200023107B1823F07F43002403605346264698
:101130002046A446ABB11A688A4200F26581DC6899
:10114000C3F800C0891A1044DA6934B13D1825F09B
:101150007F45C3E90154DE611E4613460124002B7E
:10116000E9D1002C40F07C8101230093724B734F36
:10117000DFF8E09143F00103019355464FF0000B77
:1011800046B3D6E901C13446F669694B6C481A6822
:10119000ACEB020323F07F43834248D80B44236027
:1011A00000220121C4E90122E2612174002D5DD0F9
:1011B0002A689A424DD2284603E00A689A424FD2E2
:1011C0000846C1699B1A0029F7D12360E161C46117
:1011D000002ED6D178783978884264D00B4603EB5C
:1011E00043034C1CBA7807EBC303E1B28A421A7975
:1011F000397004BF00213970022A9C6844D0032A48
:1012000038D0012AE8D1227C002AE5D1D3F80CC0DD
:10121000C4F804C01969A1605869E06099F8000039
:101220009B69A3610028B0D062609446ADE7A2EB51
:101230000C0222F07F428A4202D28B1A2360AFE76F
:1012400000230122C4E90033A360E36122746DB17D
:101250002A68C8F80040D31A2B60E56125468FE75D
:10126000D21A0A602360E161C461B1E7C8F80040A6
:10127000254685E7002DAFD000232B74ED69002DA6
:10128000FBD1C8F80050A5E74DB1AC422B4603D1C5
:10129000E4E094422FD01346DA69002AF9D1002302
:1012A000237488429AD1BBF1000F01D1554553D028
:1012B000002D56D1234E244A1F4C4FF480334FF457
:1012C00000310127C2F880103C43C6F848334FF480
:1012D0003C60C6F808337760A047154BB7604FF401
:1012E0003C601D60A047194B1D70002389F8003039
:1012F00005B0BDE8F08FA34200F09180E06921685D
:10130000D861002800F086802A4603680B440360F9
:10131000AA424FF000033978787823741CBF154631
:101320004FF0010BBDE700BF0409002005090020B4
:1013300008090020FC080020C0440400EC0700203D
:10134000FEFF7F000010014000E100E0F9080020EE
:101350000C090020F8080020009B002BC5D0002DB0
:10136000A8D0434B434A1C68D2F80465424FD5F8D5
:1013700000A03978331B23F07F43DD1CB9B93F4906
:101380003F4B4FF48030C2F844034FF00108C2F8DD
:1013900004034FF40030C1F8800143F001030860FA
:1013A000C2F800804FF43C60984787F80080AA4557
:1013B0002CBF04EB0A0363192E4923F07F43C1F8C5
:1013C0004035D1F80425921B9B1B22F07F4223F06D
:1013D0007F4303329A4288D9294BD1F80425C1F8BA
:1013E000402543F001034FF43C609847234B4FF4F2
:1013F0000032C3F80021002389F8003005B0BDE8B1
:10140000F08F00260096B1E674BB521A1A600123D1
:101410000093ABE6002339787878237441E71946C6
:10142000EA69C8F8002092B9CDE90231114BDFF822
:1014300040C001209860019B89F80000CCF8002092
:101440004FF43C609847DDE90231D8F80020C869C4
:101450000968D86100287FF458AF59E72946DFE7CB
:10146000C8F800309A467FE6C8F800309A46CCE7C4
:101470000809002000100140F908002000E100E008
:10148000C04404002DE9F8431F4D204E204FDFF8E3
:1014900098804FF480334FF400324FF0010900245C
:1014A000C6F8802047EA0907C5F848334FF43C6086
:1014B000C5F80833C5F80490B847C5F808904FF44C
:1014C0003C60C8F80040B847124A134B13491C60EF
:1014D0001470134B134A0C700B2114701C809970FC
:1014E0004FF48012C023C6F8802186F8143332608E
:1014F000C5F8084586F81133D5F80435C8F800302A
:101500002046BDE8F88300BF0010014000E100E084
:10151000C0440400F90800200C0900200409002040
:10152000EC0700200509002008090020074B9B78E4
:101530004BB132B128B10368187C20B959745A6193
:101540007047072070470820704700BFEC07002055
:101550002DE9F843224CA378002B35D0002833D056
:10156000042934D943697BB3437C0646012B4FF0F1
:1015700000000CBF884680461746894600F06AF88E
:101580006378A17822785D1CEDB2A94208BF0025DE
:10159000AA421FD003EB430304EBC3030121114A0A
:1015A0009E601971D2F80425DA600020C3E904981E
:1015B0009F61657000F056F80B4B4FF48012C3F832
:1015C00000210020BDE8F8830820BDE8F88307204B
:1015D000BDE8F883002000F045F80420F2E700BFE2
:1015E000EC0700200010014000E100E070B5174D4D
:1015F000AB7823B318B343690BB3002404740646D5
:10160000204600F027F86A78A8782978531CDBB2C6
:10161000984208BF2346994213D002EB420205EBE1
:10162000C20202219660204611716B7000F01AF818
:10163000074B4FF48012C3F80021204670BD0820EC
:1016400070BD204600F00EF8042070BDEC070020AD
:1016500000E100E072B6024A13680133136070477C
:1016600010090020034A1368013B136003B962B6F6
:10167000704700BF1009002050E8002F0B4640E8DB
:10168000003C9CF0000FF7D11046704750E8003F37
:1016900003EB010240E8002C9CF0000FF6D110464D
:1016A000704700BF50E8003FA3EB010240E8002C68
:1016B0009CF0000FF6D11046704700BF012350E8A0
:1016C000002F42EA030C40E800C191F0000FF6D170
:1016D00060467047002350E800CF0CEA030240E860
:1016E000002191F0000FF6D16046704738B50446EE
:1016F0000020FFF7AFFFD4E900311A688A4215D9FC
:10170000511E19602168A3680868258A12F8012C07
:10171000E4681B1A0879DBB2984205FB024400D248
:101720000B710020FFF79EFF204638BD0024F8E72C
:1017300038B5054600200C46FFF78CFF2A68136871
:10174000591C1160E9682A8A641AB4FBF2F41C700F
:101750000020BDE83840FFF785BF00BF826842B176
:1017600010B5044643690168006998470023A360E7
:1017700010BD70470EB400B582B0039929B102AA1A
:1017800004AB42F8043D00F0A9F802B05DF804EBA8
:1017900003B070472DE9F04F924683B051450F4694
:1017A00005461E46DDE90CB2C0F092800B464FF0B4
:1017B0000108B3FBFAF39A4508F10108F9D9B045DD
:1017C00038BFB04612F00109A96802D1BBF1000F81
:1017D00054D1012402E0013E0AFB04F4012EFAD8A0
:1017E000B7FBF4F08245F7D93B4E02E0A968B7FB9E
:1017F000F4F0335C2A680A2B04FB107702EB010E2D
:1018000001F1010029D0A8608EF80030D5E901313E
:10181000994202D32846FFF7A1FFB4FBFAF4002C4B
:10182000E4D1B9F1000F15D0BBF1000F12D0C345C0
:1018300010D92024AB682A68591CA960D454D5E972
:1018400001329A420BF1FF3B14D2BBF1000F01D0E1
:10185000C345EFD103B0BDE8F08FA8604FF00D0095
:101860005054D5E9011088421DD2296801EB000EC1
:101870000130C8E72846FFF771FFE6E7930722D457
:101880002024C345A5D92B684A1CAA605C54D5E91D
:10189000013199420BF1FF3B10D2BBF1000F98D000
:1018A000C345F0D195E728460193FFF757FFAA6893
:1018B0002968019B501C01EB020EA4E72846FFF7A4
:1018C0004DFFA968E9E7002E0CBF30242024D8E79B
:1018D0004FF0010873E700BFC8440400002900F07E
:1018E000B9822DE9F04F054687B091460C460E7837
:1018F000DFF8C8A64FF00D0B13E0AB6828680A2E7E
:1019000003F1010200EB030100F04B82AA600E70AC
:10191000D5E901329A4280F01B812678002E00F032
:101920001E810134002E00F01A81252EE5D12346B8
:10193000002713F8012B2D2A00F0E380302A00F055
:10194000E4802B2A00F0D4802A2A00F00D81A2F135
:101950003006F1B2092903D97DE2A1F13006034630
:10196000184606EB860110F8012BA2F13004092C71
:1019700002EB4101F1D92E2A00F002814FF000085C
:10198000013301E013F8012B02F0FB0168291C462A
:10199000F8D0253A532AC0D801A353F822F000BF4B
:1019A0008B1D00001B1900001B1900001B190000F3
:1019B0001B1900001B1900001B1900001B19000057
:1019C0001B1900001B1900001B1900001B19000047
:1019D0001B1900001B1900001B1900001B19000037
:1019E0001B1900001B1900001B1900001B19000027
:1019F0001B1900001B1900001B1900001B19000017
:101A00001B1900001B1900001B1900001B19000006
:101A10001B1900001B1900001B1900001B190000F6
:101A20001B1900001B1900001B1900001B190000E6
:101A30001B1900001B1900001B1900001B190000D6
:101A40001B1900001B1900001B1900001B190000C6
:101A50001B1900001B1900001B1900001B190000B6
:101A60001B1900001B1900001B1900006F1D00004E
:101A70001B1900001B1900001B1900001B19000096
:101A80001B1900001B1900001B1900001B19000086
:101A90001B1900001B190000131B0000F51C00009F
:101AA0001B1900001B1900001B1900001B19000066
:101AB000F51C00001B1900001B1900001B19000079
:101AC0001B1900001B1900001B1900005D1C000001
:101AD0001B1900001B190000D51B00001B1900007A
:101AE000B91B00001B1900001B1900006F1D00002E
:101AF00047F004071C46234613F8012B2D2A7FF4D8
:101B00001DAF47F001071C46F5E747F002071C46EA
:101B1000F1E7D9F800301A1DC9F800201E78AB682B
:101B20000A2E0CD12A68591CA96002F803B0D5E925
:101B30000123934203D32846FFF710FEAB682A68BF
:101B4000591CA960D654D5E901329A42FFF4E5AE9A
:101B50002846FFF703FE2678002E7FF4E2AE2B7BAB
:101B600023BB07B0BDE8F08FD9F80020111DC9F8DC
:101B70000010166862782E2A04F102007FF4FEAE8F
:101B80005A78A2F13003092B00F2BD814FF0000812
:101B900008EB880802EB480810F8012FA2F1300387
:101BA000092BA8F13008F3D90346E9E6284607B027
:101BB000BDE8F04FFFF7D2BDD9F800301A1DC9F8C3
:101BC000002019680197434600960A222846FFF72D
:101BD000E1FDA2E6D9F800301A1DC9F80020D3F8BB
:101BE0000080FB0700F1E880B8F1000F00F0A18150
:101BF000404641F049FB0746BE4215D9A6B1202117
:101C000000E08EB1AA682B68501CA8609954D5E9F1
:101C100001329A4206F1FF3604D328460391FFF7BA
:101C20009DFD0399BE42ECD108F1FF3818F8016F11
:101C3000002E3FF472AEAB6828680A2E03F1010251
:101C400000EB030100F09081AA600E70D5E901322B
:101C50009A42EBD32846FFF781FDE7E7D9F8002049
:101C6000131DC9F80030AB6829681768581C30226A
:101C7000A860CA54D5E90123934280F0E6802A681F
:101C8000581C7821A860D154D5E90123934280F0F3
:101C9000D7800F2F03D93A4612090F2AFCD84FF0EC
:101CA00080560DE0AA6081F80080D5E901329A42A1
:101CB00002D32846FFF752FD36093FF42EAEAB683B
:101CC000B7FBF6F21AF802802868B8F10A0F06FB93
:101CD000127700EB030103F10102E3D1AA6000F8DF
:101CE00003B0D5E901329A4280F049812B689918F6
:101CF0000132D7E7D9F800301A1DC9F80020196859
:101D000081EAE173A3EBE173092B40F30E81AA484A
:101D10000122A0FB03C3DB08092B02F10102F8DC5E
:101D20004245134638BF4346039307F00203002E93
:101D300040F09580002B00F0B780B8F1000F00F064
:101D4000F680F80740F1B0800029C0F2FF807A07E2
:101D500000F1C88007F00303022B00F0A780CDE953
:101D6000006743460A222846FFF714FDD5E5D9F857
:101D700000301A1DC9F800201968019743460096E3
:101D800010222846FFF706FDC7E5AB682A68581CF5
:101D90002521A860D154D5E901329A42FFF4BDADA6
:101DA000D6E6AA6000F803B0D5E901329A423FD2E4
:101DB000296811440132A9E54146A1EB080311F855
:101DC000017BD7B1AB68D5F800C00A2F03F101023F
:101DD0000CEB030000F0AF80AA600770D5E9013278
:101DE0009A42EAD328460391FFF7B8FC0399A1EB86
:101DF000080311F8017B002FE4D19E427FF68DADE0
:101E0000202702E0002E3FF488ADA9682A68481C0C
:101E1000A8605754D5E90121914206F1FF3604D359
:101E200028460393FFF79AFC039BB342EAD174E57B
:101E30002846FFF793FCAB6829685A1C194465E5EE
:101E40002846FFF78BFCAB6823E72846FFF786FCA4
:101E5000AB6814E770471846002623468BE5002937
:101E600020DB7A071ED41BB1B8F1000F3FF46CAF32
:101E7000F8073FF569AFBEB1039BB342BFF464AF4F
:101E80002023AA68501CA86028688354D5E9010261
:101E9000824206F1FF3640D236B1039AB242F0D107
:101EA000164651E7013EDEE700264DE7B8F1000F88
:101EB0007FF455AF002E6AD0039BB342BFF44FAFFF
:101EC0003023AA68501CA86028688354D5E9010211
:101ED000824206F1FF3618D2002E58D0039AB24241
:101EE000EFD13CE7AA68531CAB602B682B209854B9
:101EF000D5E901329A42FFF42DAF28460491FFF74D
:101F00002DFC049926E7034638E52846CDE904135D
:101F1000FFF724FCDDE90413DEE72846CDE90413CE
:101F2000FFF71CFCDDE90413B6E70122F8E646469C
:101F30000AE7474660E6AA600CF803B0D5E901322B
:101F40009A4226D22B689818013245E7AA68531C9A
:101F5000AB602B682D209854D5E901329A42C1F12B
:101F60000001FFF4F7AEC8E7AA6000F803B0D5E9B6
:101F700001329A4217D229681144013264E6284698
:101F8000FFF7ECFBA9682B684A1C19448AE6002677
:101F9000E5E628460391FFF7E1FBA8682B68039963
:101FA000421C184418E72846FFF7D8FBAB6829689D
:101FB0005A1C194448E600BFCDCCCCCCC844040020
:101FC0002DE9F041058ACE1C043D2E440746B6FBA0
:101FD000F5F6FFF78BFB78B3F6B24FF48073013E52
:101FE0000446C5800760838027D08046002509E02D
:101FF0006379AE4203F101036371C8F80000076022
:1020000080461AD03846FFF771FB01350028EFD122
:102010006679721E14D02346013082421B68FBD1C0
:102020001F684EB1002523682146013538461C46FD
:10203000FFF77EFBAE42F6D100242046BDE8F081DA
:102040002768EFE704300121FFF720BBF8B5012135
:1020500004460430FFF726FBC0B200B1F8BD667934
:10206000721E12D02346013082421B68FBD11F68CA
:10207000002EF3D0002523682146013538461C4642
:10208000FFF756FBAE42F6D1F8BD2768F2E700BF76
:102090002DE9F843C788467907FB06F6043E02EBB4
:1020A000030C0446664503F1040015468846B0FB60
:1020B000F7F238BFF51A07FB120012B1013A246893
:1020C000FCD13E1AAE4228BF2E469DB14FF000090A
:1020D0000430AD1B2044324608EB090140F067FC98
:1020E000AF42B14424683E464FF0000028BF2E4660
:1020F000002DEDD1BDE8F8832DE9F843C788467976
:10210000154607FB06F6043E05EB030C1A1D664553
:1021100004468846B2FBF7F038BFF51A07FB1021DA
:1021200010B101382468FCD17E1AAE4228BF2E4679
:102130009DB14FF0000904312144AD1B324608EB3C
:10214000090040F034FCAF42B14424683E464FF0F1
:10215000000128BF2E46002DEDD1BDE8F88300BF59
:1021600010B570B101280BD10D4C2369A0703BB1A3
:10217000D3E900230120226198472369002BF7D17E
:1021800010BD074CA36801226270002BF8D0D3E980
:1021900000230020A2609847A368002BF7D1EFE747
:1021A0001409002038B50A4C23786BB909486360DC
:1021B000A3602361E36000F0F7F8054600F002F940
:1021C00001232370284638BD8525284638BD00BF29
:1021D000140900206121000038B5154CA37805468C
:1021E00073B110B14368012098470020FFF732FA1D
:1021F000E3680133E3600020BDE83840FFF732BAFE
:1022000003F0FF00FFF726FA65B1226942B195425B
:1022100008D0134601E09D4204D01B68002BFAD180
:102220002A602561E368002BE2D100F0DDF8DFE7EA
:102230001409002038B5084C0020FFF70BFAE368BA
:10224000013BE360E56815B900F0E6F8A5700020F1
:10225000BDE83840FFF706BA140900204FF080436C
:10226000D3F81804C0F30040704700BF38B5154CD0
:102270006378054673B110B1436800209847002089
:10228000FFF7E8F96368013363600020BDE8384078
:10229000FFF7E8B903F0FF00FFF7DCF965B1A268CA
:1022A00042B1954208D0134601E09D4204D01B681C
:1022B000002BFAD12A60A5606368002BE2D100F000
:1022C000B7F8DFE71409002038B5084C0020FFF705
:1022D000C1F96368013B6360656815B900F0BAF83D
:1022E00065700020BDE83840FFF7BCB91409002034
:1022F0004FF08043D3F80C0400F00110A0F101105E
:10230000B0FA80F0400970470A4A0223C2F8043547
:10231000BFF36F8FBFF34F8FC2F80805D2F80034B8
:10232000002BFBD00023C2F80435BFF36F8FBFF33F
:102330004F8F704700E001409AB32DE9F047194CE8
:10234000A0EB01080D468E18C0004FF0FF0E4FF0B5
:10235000010C002708EB050222F0030200F0180927
:10236000116815F8013BC4F804C50EFA09FA21EA10
:102370000A01BFF36F8FBFF34F8F03FA09F30B44CA
:102380001360D4F80034002BFBD0C4F80475BFF3FD
:102390006F8FBFF34F8FAE4200F10800DAD1BDE876
:1023A000F087704700E00140054A13792BB90121FD
:1023B000106053711846117170478520704700BF37
:1023C00028090020074B1A68D20704D4C021012233
:1023D00083F800131A604FF080430122C3F81825D8
:1023E000704700BF00E100E010B4094B094A00212A
:1023F000196083B01B680193019C4FF0804102205B
:102400000123C1F80403136003B05DF8044B704767
:102410000401004008000040044B01221A604FF004
:102420008042D2F81834DB03FBD470470C00004024
:10243000074B00221A6082B01B68019301994FF08C
:1024400080430122C3F804231A6002B0704700BF22
:1024500000010040074B01221A604FF08042D2F881
:102460000C3403F00113B3F1011FF8D0024B00222A
:102470005A717047040000402809002010B5154B20
:102480001A6882B07AB10021134A19601B6850792A
:1024900000934FF080410123009CC1F8083310B92C
:1024A0001168537188470D4B1A6882B100221A6077
:1024B0001B6801934FF080420221074B0198C2F83C
:1024C00008131B68012002B0BDE81040184702B095
:1024D00010BD00BF00010040280900200401004099
:1024E00030B5204C94F86A5083B0002D36D14FF0AF
:1024F000FF332946062204F16400C4E90033C4E92D
:102500000233C4E90433C4E90633C4E90833C4E937
:102510000A33C4E90C33C4E90E33C4E91033C4E907
:102520001233C4E91433C4E91633236640F063FA66
:102530000D4A0E4B0E491D60C02082F80603402054
:1025400010601B68019301984FF000430122284658
:1025500084F86A20C1F8043303B030BD082003B00A
:1025600030BD00BF3009002000E100E07C61004088
:1025700000600040034B93F86A00003018BF012050
:10258000704700BF30090020F0B5744B1C1894F957
:102590003050002D6ADA8E78C6F340069646002E3B
:1025A0005ED11D6A013500F0C48009240C2553F862
:1025B000247001375DD004F1010C53F82C70013701
:1025C00000F0C280A71CAF4248D253F82720013246
:1025D00000F0BC8004F1030CAC453FD253F82C70E2
:1025E000013700F0B18004F1040CAC4536D253F849
:1025F0002C70013700F0A88004F1050CAC452DD2F9
:1026000053F82C70013700F09F8004F1060CAC45A4
:1026100024D253F82C70013700F0968004F1070C97
:10262000AC451BD253F82C70013700F08D8004F1BB
:10263000080CAC4512D253F82C70013700F084809E
:1026400004F1090CAC4509D253F82C7001377BD04A
:102650000A34AC4202D2DC6A013409D00420F0BD55
:102660001D68013574D001240825A0E70820F0BDBD
:102670000B241F1865B243F824E087F83050002E71
:102680005ED08A7854071AD4D60741D41F284A78D6
:1026900087BF334E00F01F0404464FF0A04604F5F8
:1026A000E074920046F824202E4EC40800F0070C77
:1026B000375D012202FA0CF23A4332558A780C78DF
:1026C00012F0020209D1083D2B44104693F8602015
:1026D00042EA841483F86040F0BDAB0003F180430C
:1026E00003F5C0430202D3F8101521F44F3121F451
:1026F0004071C3F810152404D3F8101504F44034C5
:1027000002F47C5222430A43C3F810250020F0BD96
:102710001F2887BF124A00F01F0404464FF0A04252
:1027200002EB8402D2F8004724F00204C2F800470A
:10273000BAE7082684F83060C3F820E0354634460E
:102740001C4484F858009CE7644692E73C4690E7B6
:1027500000251A6084F8305093E700BF300900204C
:10276000000300509409002070B43A4D2E1883B035
:1027700096F93030072B20DD2B4493F858309B0915
:10278000032B45D0012B14BF4FF440314FF40031DF
:102790001F284DD900F01F002F4B03EB8000D0F80D
:1027A000002722F44032C0F80027D0F800370B434E
:1027B000C0F8003703B070BC7047DAB2072AF9D806
:1027C000980000F1804000F5C04003F14002D0F8CD
:1027D0001045920092B244F0010402F18042C0F828
:1027E000104502F5C04200200190019C10600029B4
:1027F000E0D096F9302055F82220002ADAD00122C4
:10280000164902FA03F3C1F8043303B070BC7047F1
:102810001F2810D9104BD3F8103500F01F00C3400B
:1028200013F0010F0CBF4FF400314FF44031B3E708
:102830004FF0A043B1E74FF0A0421346D2F8102565
:10284000C24012F0010F14BF4FF440314FF4003179
:10285000A3E700BF300900200003005000600040E3
:102860001F288ABF054B4FF0A04300F01F00D3F88C
:10287000103523FA00F000F001007047000300500B
:102880002DE9F047002388B0CDE90233CE4A16681F
:10289000012E00F03B821E46CC4B1A68012A00F044
:1028A0002782CB4B1A68012A00F01482C94B1A68A0
:1028B000012A00F00182C84B1A68012A00F0EE815B
:1028C000C64B1A68012A00F0DB81C54B1A68012A41
:1028D00000F0C881C34B1A68012A00F0B581C24BD1
:1028E0001A68012A0FD100221A601B6801934FF069
:1028F000A042019BD2F81025BC4B0292D3F81035B0
:10290000039346F0004616F0FF0F1AD0B84F00248C
:102910000125A30003F180432E4203F5C0434FEA93
:1029200045050BD0D3F8100557F82420D3F810151F
:10293000C0F30520C1F3014102B190470134082CD6
:10294000E7D1002E02DB08B0BDE8F087A84CA74F06
:102950004FF0FF33CDE9063394F960300DF11008E4
:1029600000225D1CC8F8042004924FF0010600F01C
:10297000F4805FFA83FC2CF0C00008AB4FEAD0096A
:1029800003EB090E0CF007031EF8082C06FA03F3FC
:1029900012EA030521D022184FEA9C1192F9302047
:1029A00054F82220002A00F02981032900F0288110
:1029B0001F2800F2F98005464FF0A04C0CEB850C67
:1029C0001EF8185CDCF800E71D40CEF3014E40F025
:1029D000DF80BEF1030F00F0BF8194F96130581C15
:1029E00032D0DBB223F0C00008AA4FEAD00E02EBCF
:1029F0000E0C03F007011CF8082C06FA01F912EA84
:102A0000090F21D02218990992F9302054F8222078
:102A1000002A00F0FB80032900F0FB801F2800F251
:102A2000E98003464FF0A04E0EEB83031CF818EC30
:102A3000D3F800C71EEA090FCCF3014C40F0B88070
:102A4000BCF1030F00F0AE8194F96230591C30D014
:102A5000DBB223F0C00008AA4FEAD00E02EB0E0C46
:102A600003F007011CF8082C06FA01F912EA090F15
:102A70001FD02218990992F9302054F82220002AF8
:102A800000F0D880032900F0D8801F287CD80346A6
:102A90004FF0A04E0EEB83031CF818ECD3F800C7E0
:102AA0001EEA090FCCF3014C64D1BCF1030F00F016
:102AB000658194F963305A1C34D0DBB223F0C00036
:102AC00008AA4FEAD00E02EB0E0C03F007021CF826
:102AD000081C06FA02F2114224D004EB00099909FD
:102AE00099F9309054F82990B9F1000F00F09880CE
:102AF000032900F098801F288BBFBE464FF0A04EE0
:102B000003F01F0303460EEB83031CF818ECD3F805
:102B100000C71EEA020FCCF3014C20D1BCF1030F19
:102B200000F00181002D3FF40EAF4FF0A043029959
:102B3000D3F81035D7F81025994203D10399914263
:102B40003FF401AFDDE90401CDE9023294F96030D0
:102B50005D1CCDE906017FF40CAF00253DE7BCF11B
:102B6000020FDFD1032900F03481B9F1000F40F0EA
:102B7000F180D7E7BCF1020F9BD1032900F0268139
:102B8000002A96D0904794E703F01F03BE4681E7E2
:102B9000BEF1020FE1D1032900F021810025002AB6
:102BA0003FF41BAF904718E70CF01F05BC4605E744
:102BB000BCF1020F7FF448AF032900F00D81002A19
:102BC0003FF442AF90473FE700610040046100409E
:102BD000086100400C610040106100401461004039
:102BE000186100401C6100407C61004000030050FF
:102BF0003009002003F01F03BE4615E70329ACD1BE
:102C000018F809501D4308F80950D1E603297FF44C
:102C10001BAF18F80EA04AEA090A08F80EA0FDE654
:102C200003297FF47FAF18F80EA04AEA020A08F8D9
:102C30000EA060E703297FF43CAF18F80EA04AEA23
:102C4000090A08F80EA020E7664AD2F804231706FE
:102C50007FF545AE00221A601B680093009B46F08A
:102C600080063CE65F4AD2F8042352067FF532AE76
:102C700000221A601B680093009B46F0400629E67C
:102C8000584AD2F8042391067FF51FAE00221A603D
:102C90001B680093009B46F0200616E6514AD2F8C6
:102CA0000423D0067FF50CAE00221A601B68009347
:102CB000009B46F0100603E64A4AD2F804231407A4
:102CC0007FF5F9AD00221A601B680093009B46F067
:102CD0000806F0E5434AD2F8042355077FF5E6AD30
:102CE00000221A601B680093009B46F00406DDE595
:102CF0003C4AD2F8042397077FF5D3AD00221A602F
:102D00001B680093009B46F00206CAE53549D1F8DE
:102D1000041311F0010104D0136013680093009BA9
:102D2000BAE50E46B8E503297FF41FAF4FF4003C27
:102D3000D3F8002722F44032C3F80027D3F8002745
:102D4000013542EA0C02EDB2C3F80027B9F1000FD9
:102D50003FF4EBAEC847E5E603297FF420AF4FF41C
:102D60000035DCF8003723F44033CCF80037DCF8CA
:102D700000372B43CCF80037012510E703297FF4F7
:102D8000FFAE4FF4003ED3F800C72CF4403CC3F82C
:102D900000C7D3F800C701354EEA0C0CEDB2C3F8FA
:102DA00000C7EDE603297FF40AAF4FF4003ED3F8E5
:102DB00000C72CF4403CC3F800C7D3F800C7013566
:102DC0004EEA0C0CEDB2C3F800C7F8E64FF4403EF3
:102DD000D9E74FF4403CABE74FF4403EE7E74FF410
:102DE0004035BEE7006000400220FDF7DDBA00BFBD
:102DF0002DE9F0410C460546FDF7F0FAB8B9012C73
:102E000017D00BD3022C12D1134B5C787CB1134B2F
:102E10001B6863B12046BDE8F04118471048FEF733
:102E2000E5FB0D4A0F4B94781B78A342EED0BDE82A
:102E3000F081094E737834781BB90A4BB2781A7056
:102E4000E4E7094F06483A464FF40041FEF780FB9D
:102E50000028F2D13D70F0E7000A00200C0A0020A3
:102E6000C0090020140A00209C09002010B5007839
:102E7000FDF7B4FA40B9054B587828B1044B1B68EC
:102E800013B1BDE81040184710BD00BF000A002074
:102E90000C0A0020AB4B1B68DB0700D4704770B5F1
:102EA000A94DAA4E2B78347853B1A94B1B7800203A
:102EB0002870002B48D0FDF743FA0120FDF740FAB7
:102EC000172C40D8DFE814F0A900E400E400CC009F
:102ED000F800BA000301DE00500043005000430038
:102EE000610018001800180018001800660074002F
:102EF000850096005D005D009648FEF777FBD4F1F3
:102F00001104054600F0F080002840F0ED80012C0F
:102F100013D0C82303FB04F44FF4FA704FF40043BA
:102F20000021C3FB04014FF47A72002341F09AF8A8
:102F30002A4601468748FEF70BFB0220FDF7ECF915
:102F4000834B01221A7070BDFDF70EFAB8E701231A
:102F500018462B70FDF728FA00224FF480417E4876
:102F6000BDE87040FEF7F4BA012318462B70FDF758
:102F70001BFA002240F6CD417748BDE87040FEF7CD
:102F8000E7BAFDF701FA347070BDFDF7FDF90C23C7
:102F9000337070BD6E4B1B78002B00F0AF800020AB
:102FA000FDF7CEF90120FDF7CBF91223337070BD88
:102FB000674B1B78002B00F0A4800020FDF7C0F9C0
:102FC0000120FDF7BDF90020FDF7A6F913233370AA
:102FD00070BD5F4B1B78002B00F0A3800020FDF735
:102FE000AFF90120FDF7ACF90120FDF795F91423A5
:102FF000337070BD564B1B78002B7CD00020FDF742
:103000009FF90120FDF79CF90020FDF785F90120CB
:10301000FDF782F91523337070BD4D4B1B78002BE3
:1030200000F087800020FDF78BF90120FDF788F97B
:103030004948FEF7DBFA0023337070BD0020FDF72E
:1030400057F9002860D00020FDF77AF90523337086
:10305000002241F69A114048BDE87040FEF778BA68
:103060000020FDF745F900285ED00020FDF768F943
:1030700046F266610323337000223748BDE8704092
:10308000FEF766BA0020FDF747F90723337070BDDD
:103090000020FDF72DF9D0B30020FDF751F9022CE7
:1030A0004EF2666118BF4FF40031347000222A4896
:1030B000BDE87040FEF74CBA0020FDF719F9D8B30F
:1030C0000020FDF73DF94FF400310423D3E7002041
:1030D000FDF76AF906233370002240F6CD411E4801
:1030E000BDE87040FEF734BA0220FDF729F9184B0D
:1030F00000221A7070BDFDF737F985E7FDF734F946
:1031000053E7FDF731F95EE7FDF706F99EE7FDF7B6
:1031100003F943F2333141F69A13022C08BF1946E2
:10312000C3E7FDF721F95FE7FDF7F6F841F69A11DD
:10313000A0E7FDF719F97BE7FDF7EEF843F233312D
:10314000C3E700BF040A0020080A0020100A00207C
:103150009D090020A0090020E009002038B5BC4BE3
:103160001C6814F0010401D1204638BDB94C237805
:1031700005464BB1B84B1B78002020700BB3FDF710
:10318000DFF80120FDF7DCF8172D00F25E81DFE8A3
:1031900015F0B700DD00DD000101CA001401F300E5
:1031A000270128001B0028001B0064006B006B0037
:1031B0006B006B006B009400A400350048005E00BB
:1031C0005E00FDF7D1F8DFE7012318462370FDF715
:1031D000EBF800224FF48041A048BDE83840FEF7EC
:1031E000B7B9012318462370FDF7DEF8002240F638
:1031F000CD419A48BDE83840FEF7AAB9964B1B78F6
:10320000002B00F007810020FDF79AF80120FDF760
:1032100097F80120FDF780F8914B14221A700024D2
:10322000A2E78D4B1B78002B00F0F7800020FDF704
:1032300087F80120FDF784F80020FDF76DF80120E4
:10324000FDF76AF8864B15221A7000248CE7FDF70B
:103250009BF8834B00241D7086E7FDF795F8804BA3
:103260000C221A7000247FE77E48FEF7BFF904465F
:10327000D5F1110000F0BC80002C40F0B98001288D
:1032800014D0C82505FB00F54FF400434FF4FA7045
:103290000021C3FB05014FF47A72002340F0E2FEE7
:1032A000224601466F48FEF753F904460220FDF717
:1032B00033F8694B01221A7056E7674B1B78002BD5
:1032C00000F0A5800020FDF73BF80120FDF738F85D
:1032D000634B12221A70002446E75F4B1B78002BC9
:1032E00000F08D800020FDF72BF80120FDF728F875
:1032F0000020FDF711F85A4B13221A70002433E70F
:10330000554B1B78002B00F08B800020FDF718F840
:103310000120FDF715F85148FEF768F9504B0022DF
:1033200004461A7020E70020FCF7E2FF002869D06D
:103330000020FDF705F84FF40031494B47480424BD
:103340001C700022BDE83840FEF702B90020FCF7EF
:10335000CFFF00286CD00020FCF7F2FF022D4EF2C8
:10336000666118BF4FF400313D4B3C481D70002290
:10337000BDE83840FEF7ECB80020FDF715F8384BF3
:10338000364806241C70002240F6CD41BDE8384086
:10339000FEF7DEB80020FCF7ABFF002843D000208A
:1033A000FCF7CEFF46F266612D4B2C4803241C70BF
:1033B0000022BDE83840FEF7CBB80020FCF798FFAC
:1033C00000283FD00020FCF7BBFF254B23480524F5
:1033D0001C70002241F69A11BDE83840FEF7B8B8DB
:1033E0000020FCF799FF1E4B07221A700024BBE651
:1033F0000220FCF7A5FF184B00221A70B4E6FCF778
:10340000B3FF75E7FCF788FF43F2333195E7FCF72C
:10341000ABFF5DE7FCF7A8FFFBE6FCF7A5FF0BE7BA
:10342000FCF7A2FF77E7FCF777FF41F69A11BBE7BD
:10343000FCF772FF43F2333141F69A13022D08BFB5
:10344000194691E7FCF768FFBFE700248CE600BF50
:10345000040A0020080A00209D090020E00900203D
:10346000100A0020A009002038B5214B214A19601C
:103470008307106000F0010503D49DB92C46204657
:1034800038BD1D4B1D480E241C7040F266620121A0
:10349000FDF728FD0446B8B115B10120FCF7A4FFE3
:1034A000204638BD0120FCF79FFF154A1548002132
:1034B000FEF73CF804460028F2D1134A13480121D4
:1034C000BDE83840FEF732B8FDF764FD0446002839
:1034D000E2D101460E4A0F48FEF728F80446002DB7
:1034E000DED00120FCF780FF002CDED0D8E700BF43
:1034F0000C0A0020040A0020000A0020F044040006
:10350000952E000000450400E92D0000F844040059
:103510006D2E0000FC44040008B51B78802B00D001
:1035200008BD0D4B072201201A70FCF7E1FE60B9BF
:10353000FCF7F2FE0120FCF7EFFE002241F69A11A3
:103540000648BDE80840FEF703B80020FCF7F8FE87
:103550000120FCF7F5FEF0E7480A00204C0A0020A5
:10356000420700D4704708B5084608F038FF88B114
:10357000831E022B0A4A06D9062313701846BDE89B
:103580000840FFF7EBBD072313701846BDE808405D
:10359000FFF7E4BD024A1070BDE80840FFF7DEBD4A
:1035A000390A002008B51C4B1B78032B27D8DFE80D
:1035B00003F0211207020120BDE80840FCF7ACBE71
:1035C0000120FCF7F1FE002240F6CD411348BDE892
:1035D0000840FDF7BDBF0120FCF78AFE80B901203D
:1035E000FCF79AFE41F69A1100220C48BDE808400B
:1035F000FDF7AEBF0120BDE80840FCF7A1BE08BD45
:103600000120FCF79DFE46F2666100220348BDE8FA
:103610000840FDF79DBF00BF380A0020180A0020AF
:1036200008B52C4A1378013BDBB2137083B101203B
:10363000FCF75EFEA0B9FCF76FFE0120FCF76CFE04
:10364000002241F69A112448BDE80840FDF780BFEA
:10365000224B1B78032B0DD8DFE803F0121B2B093C
:103660000020FCF76DFE0120FCF76AFEE8E7012070
:10367000FCF752FE1A4B1878BDE80840FFF76EBD04
:103680000120FCF75DFE164B1878BDE80840FFF7F7
:1036900065BD0120FCF72CFEA8B10120FCF750FE0F
:1036A00046F2666100220F48FDF752FF0028E1D084
:1036B00008BD0120FCF778FE002240F6CD41094804
:1036C000FDF746FFF2E70120FCF726FE41F69A11CE
:1036D000E8E700BF480A00204C0A0020380A002012
:1036E000390A0020180A002070B5134A134E144BF3
:1036F00000242146147005460C2230461C703FF011
:103700007AF921460F4B104A10483360FDF70EFF3F
:10371000044628B901460E4A0E48FDF707FF044645
:103720002A460D49284608F0B7F92846034908F00B
:10373000A4F9204670BD00BF390A00203C0A0020D1
:10374000380A002019350000A535000004450400A2
:1037500021360000084504006135000010B504461C
:103760000C48FDF743FF0C48FDF740FF0020FCF735
:10377000E7FD0120FCF7E4FD22462046074908F05A
:103780008EF9074A002313701846BDE81040FFF772
:10379000E5BC00BF180A00204C0A0020613500007B
:1037A000390A002038B5FDF76DFE08B1FDF708FCB9
:1037B000002301204FF0A041032204E015F0E07F38
:1037C00018BF41F824200133202B00FA03F503F53C
:1037D000E074F3D14FF0A0434FF0E0710022C3F842
:1037E000081501201146C3F80C25FFF73DFE08B16E
:1037F000FDF7E6FB164C00250021084633F00CFDD2
:1038000008F040F9206000F061FA2068052108F016
:1038100035FF2068FFF768FF60B1FDF7D1FB09E0D5
:10382000206808F0B9FC206833F024FD206808F017
:10383000BFFC58B133F018FD0028F1D02068FFF725
:103840008DFF206808F024F92560D5E720BFF1E757
:103850006C0A00202DE9F84F4400DFF85CB126180F
:103860000BEBC6068146F76A012F8A46904667D061
:103870003DD3022F30D100F1010909EB4909756AE6
:103880004FEAC9090027B36A346AAB4203F1FF3239
:103890009CBF1B1903F1FF33A4EB05048CBF531B22
:1038A0005B1B0BEB0902444528BF44469C42506811
:1038B00028BF1C462844514622463FF078F8336A18
:1038C00025449D422744A8EB0408A24408D0756211
:1038D000B8F1000FD7D100E000273846BDE8F88FD7
:1038E00000231D467362B8F1000FCCD1F5E7B36A2F
:1038F000756AAB429CBF326A9B18013B5B1B9845C3
:10390000EBD8044400F101090BEBC40409EB4909AD
:103910000BEBC90B266ADBF80400761BB045284484
:1039200043D33246A8EB06053FF041F80AEB060107
:10393000DBF804002A463FF03AF847466562CCE7D8
:10394000D6E90825B76AAF4298BFBF18461C013FA9
:1039500006EB46067F1B0BEBC606474528BF4746CE
:103960007068A2EB05084745284412D3A14442469B
:10397000A7EB08050BEBC90B3FF019F80AEB0801A0
:1039800070682A463FF013F8CBF824503846BDE85B
:10399000F88FA1440BEBC90B3A463D443FF007F8C2
:1039A000CBF824503846BDE8F88F424645443EF0F7
:1039B000FEFF4746656290E748F200202DE9F0419E
:1039C0002B4C94F800C00546884616461F46BCF1AD
:1039D000000F23D02369AB4246D90020FDF73AFE01
:1039E0005DB92A46154404EBC504069BE36200203A
:1039F000FDF738FE0020BDE8F0816B1C03EB4303AC
:103A0000DB006A00511904EBC10144F80380234430
:103A100000200F625E6088624862E3E7154B16483B
:103A2000A3610222C4E904224FF40071134AA36483
:103A30001023C4F828C02365C4F824C0C4F82CC0DF
:103A4000C4F858C0C4F854C0C4F85CC0E061216236
:103A5000E2640B49E01D3FF0FAFB0A4920463FF0C3
:103A6000F6FB2023A371B5E74FF0FF30C3E700BF9B
:103A700048F200200C450400800A0020700A002053
:103A8000184504001C45040010B44FF080414FF06D
:103A900080520020C1F80C015E4BC1F81001C1F842
:103AA0003805D2F80414C3F82015D2F80814C3F866
:103AB0002415D2F80C14C3F82815D2F81014C3F842
:103AC0002C15D2F81414C3F83015D2F81814C3F812
:103AD0003415D2F81C14C3F84015D2F82014C3F8DA
:103AE0004415D2F82414C3F84815D2F82814C3F8A2
:103AF0004C15D2F82C14C3F85015D2F83014C3F872
:103B00005415D2F83414C3F86015D2F83814C3F839
:103B10006415D2F83C04C3F86805D2F840043E4965
:103B2000C3F86C050968D2F84424C3F87025082945
:103B300024D04FF08043D3F80024D20744BF6FF065
:103B40000102C3F80024354AD2F8883043F47003E8
:103B5000C2F88830BFF34F8FBFF36F8F4FF0102341
:103B6000D3F80022002A23DBD3F80432002B1FDB1A
:103B70002B4B2C4A1A605DF8044B70472A4B1B688C
:103B8000002BD6D129482A4A2A4C04602A492B4BBB
:103B9000FB20C2F818050A681B68294822F00F02AA
:103BA00003F00F0313434FF400720B600260C0E791
:103BB000244B0122C3F80425D3F80024002AFBD0AB
:103BC0004FF0102312221F49C3F80022D1F800340D
:103BD000002BFBD04FF0102212211A4BC2F8041216
:103BE000D3F80024002AFBD000221649C3F804258C
:103BF000D1F80034002BFBD0BFF34F8F0749124B95
:103C0000CA6802F4E0621343CB60BFF34F8F00BF7A
:103C1000FDE700BF00C000403001001000ED00E0F3
:103C2000080000200090D003340100108C560040A2
:103C300000F0004048810300E40E004058020010EC
:103C40004096024000E001400400FA0538B5044601
:103C50000D4600F05FFA04F5647104F55D7000F044
:103C60004AF9234604F21C41154A04F55F7000F03E
:103C70009EF904F29633C4F8903304F22242802372
:103C8000A4F89433C4F81C24002340F2145284F89E
:103C9000183484F81934A4F8202484F838392946D3
:103CA0002346084A04F63C1009F077FC22460649F0
:103CB000201D06F09DFB33F0EDFA204638BD00BF15
:103CC000D93E0000D33D0000FF3C000010B5054C7C
:103CD00001462046FFF7BAFF00F0F4FA844200D014
:103CE000FEE710BD800C0020D0F8902300F2963340
:103CF0009A4203D100F63C1009F072BC7047FFF7FE
:103D0000F3BF2DE9F8430446051D00F55D76012754
:103D10004FF00208284606F098FC94F81834002862
:103D200052D0022B27D1012B02D3022B3ED0F1E738
:103D3000204600F0CDFA08B132F020FE204600F017
:103D4000D1FAC0B9304600F0DAF8A0B9284606F03A
:103D500010FD84F81874284606F023FDB8B92846EB
:103D600006F028FD84F8190494F81914304600F080
:103D7000CFF80028EFD0D4F8901304F29630091A47
:103D80008BB223B3194633F00BFB00B3FEE794F874
:103D9000C090284606F02BFEB9F1000F04D094F82D
:103DA000C0300BB984F8387984F81884304600F0B4
:103DB000DFF80028DFD194F8383984F81804002B94
:103DC000A8D084F83809A3E7012BADD1CCE7BDE832
:103DD000F88308B500F076FABDE80840FFF791BF18
:103DE00000F29633C0F890338023A0F8943300F6A5
:103DF0003C1009F0F5BB08B500F064FA18B1BDE855
:103E00000840FFF7EDBF08BD38B504460D4600F089
:103E100059FA38B12A46214600F55F70BDE83840AE
:103E200000F0CEB838BD0000F0B50C46A1B0164683
:103E30001F4600F061FA2346184A194D8021684652
:103E40003FF0BAF968463FF01FFA69460246002083
:103E500001F0D2F90024BC424FEA44000CDA292CCC
:103E60000AD0A4EB84012044335D2A4680316844A3
:103E70003FF0A2F90134EEE72044C0F18001094A85
:103E800068443FF099F968463FF0FEF90DF10101F1
:103E9000421E002001F0B0F921B0F0BD234504001E
:103EA000374504003D45040038B5D0F81C3400F215
:103EB00022455B1B04469BB251B91A46294601F0C4
:103EC0009CF840F21453C4F81C54A4F8203438BDB4
:103ED0002A46FFF7A9FFF4E7FFF7E6BF838843B15F
:103EE00003685A1C026019708388013B838000209C
:103EF000704703207047002201608280704708B538
:103F00004FF6FF7383807E210068FFF7E7FF08BD4F
:103F10007E2938B505460C461CD87D2903D21129C7
:103F200001D013291AD128688388012B14DD7D2143
:103F3000FFF7D4FF84F020012868FFF7CFFFAA889D
:103F40000A4B5440E4B2002033F8143083EA1223C1
:103F5000AB8038BDF829E5E7032038BD2146286845
:103F6000FFF7BCFF0028EAD038BD00BF4045040081
:103F70002DE9F04186880368F543ADB2E9B2044605
:103F80001F68B3F80480FFF7C3FF48B9290A204629
:103F9000FFF7BEFF20B97E212068FFF79FFF20B109
:103FA00023681F60A3F80480A680BDE8F08130B5C7
:103FB0000025057041608260C3600582458230BD86
:103FC0002DE9F843384E04460D468F184FF002088D
:103FD000BD4267D0237815F8011B012B26D01BD3D7
:103FE000022BF5D16068B0F80490B9F1000F52D0FF
:103FF000B4F810E081F0200181EA0E02D2B236F866
:10400000123083EA1E232382FFF768FF638A01339D
:10401000638201232370DBE77E29D9D1012323703A
:10402000002363824FF6FF732382D1E77D2917D0E7
:104030007E2918D06068B0F80490B9F1000F2AD03A
:10404000B4F810E081EA0E02D2B236F8123083EAF8
:104050001E232382FFF742FF638A01336382B7E79F
:1040600084F80080B4E7638A002BD9D0012B10D0EC
:10407000228A4FF2B8039A420BD163681A68023A57
:104080001A609A8802329A800021A368E0689847F3
:10409000C6E70621F9E7A368E0680321984784F89A
:1040A000009095E7BDE8F8834045040021282CD80E
:1040B000DFE800F02E1113152B17191B2B2B2B2BC0
:1040C0001D1F21232B2B2B2B2B2B2B27252B2B2B76
:1040D0002B2B2B2B2B29012070470E2070470B20F8
:1040E00070470C207047092070470320704702205A
:1040F000704704207047112070471220704713202A
:104100007047142070471520704700F580407047B5
:10411000002070472DE9F8430646044646F8041B84
:104120004FF40072894600F1F901304606F045F976
:104130000025A66704F17C0304F19C021D605D600C
:1041400008339A42FAD184F89C5084F89D50C4F800
:10415000A050C4F8A45004F1A80006F0B1FC4F4BE5
:10416000C4F8C8304FF6FF78C82304F1D407A4F888
:10417000CC304B4A84F8C0502346C4F8C45084F86D
:10418000CE5084F8CF50A4F8D0804946384609F084
:1041900004FA00230022C4E93823C4E93A230423A3
:1041A00084F8F0303F4BC4F8DC501B68C4F8F4309E
:1041B00084F8F85084F8F95284F8FA5284F8FB52E3
:1041C00084F8385384F8395384F83A5384F83B53CD
:1041D00084F83C5384F83D5384F83E5384F83F53AD
:1041E00084F8405384F8418384F84253C4F8485318
:1041F000C4F84C53C4F85053C4F85453C4F858533B
:10420000C4F85C53C4F86053C4F86453C4F86853EA
:10421000C4F86C5384F87053236803B9FEE7224B4B
:1042200022491C602246304606F0E5F83C22002177
:1042300004F53F703EF0DFFB04F5517007F09CFE83
:1042400022461B49206807F027FC224620681949AE
:1042500007F062FC2068012107F067FC2246206815
:10426000154908F060FA25462068002107F001FC96
:104270002068124908F053FA55F8E00B104922461D
:1042800008F08EF977220021284606F0DFFE384636
:1042900009F0A6F92046BDE8F88300BF00F8FF0743
:1042A000354600001C480400C8150020A346000045
:1042B0005D890000478700006B8800009B53000069
:1042C0001F530000014B1868704700BFC81500203D
:1042D00090F8F030042B1ABF90F8C00080F0010075
:1042E0000020704790F8F030012B06BF90F8C00016
:1042F00080F0010000207047D0F860330133C0F82F
:10430000603370472DE9F843994690F83C330446F2
:104310009046002914BF0F46702713B10D20BDE849
:10432000F88300F1E0053946284606F0FFFE002834
:10433000F4D194F8FA2294F8FB329A420BD00B2273
:104340000021284606F082FE04F1D40009F048F965
:104350000320BDE8F88304F178063B46062280215D
:10436000304606F041FE48B91FFA89F24146A06F77
:1043700006F010FB10B9304606F019FE0328DED017
:10438000BDE8F8830138C0B204289ABF014B185C1D
:104390000020704749470400F8B511F00F0508D117
:1043A000022A04D11A462946E03006F04FFE0020CA
:1043B000F8BD90F8FB6290F8FA72F41B0E2C06DD43
:1043C0000E220021E03006F041FE0320F8BD90F8F7
:1043D000F942AC4217D0BE4215DD3C460E2C02DD40
:1043E0000F3CE4B2FAE7BE3400EB840494F804E036
:1043F0001EF0100F0DD00EF00F0CAC4509D16FF36D
:10440000041E84F804E034460E2C05DD0F3CE4B2B3
:10441000FAE70137FFB2DEE7BE3400EB8404013671
:10442000257961F30305E9B241F0100162F3461109
:104430002171626863F3DE12626080F8FB62B6E7A6
:1044400013460222FFF7A8BF38B511F0300F00F174
:10445000780408BFC0F8C420154600230622204671
:1044600006F0C2FD48B92946204606F005FD20B9F0
:104470002046BDE8384006F09ABD38BD2DE9F74327
:1044800004460F46014668469146984604F054FD9E
:10449000009E019D0EB9EB0718D504F178084B4634
:1044A00006223946404606F09FFDE0B9681015F037
:1044B000010F18BF2358204418BF9E59B04790B928
:1044C000404603B0BDE8F04306F071BDB8F1000FFF
:1044D00007D00D223946204603B0BDE8F043FFF770
:1044E000B3BF4246F6E703B0BDE8F08370B50446BB
:1044F000002694F8FA5294F8FB32AB423BD0BE351A
:1045000004EB85021379D90616D404EB85052B79C3
:104510006FF304132B7194F8FA320133DBB20F2BD3
:1045200084F8FA32E5D194F8FB3284F8FA620E2B63
:104530001EDD0F3BDBB2FAE703F00F0103F060036F
:10454000402B41F08001526807D1C2F3D7122046B8
:10455000FFF77AFF0028D8D070BDB3FA83F35B0968
:10456000C2F3D7122046FFF789FF0028CDD070BDD7
:1045700084F8FB32BDE7002070BD00002DE9F04754
:10458000044604F0F5F9D4E9382313433FD004F18D
:10459000E00006F059FD254DDFF89480074600261F
:1045A0005FFA86F9B94532DA4A46D4E938013FF074
:1045B00041FD002100F0010050EA010302D1013663
:1045C0000C35EDE755F80C2C32BB55F808ACBAF1B8
:1045D000770F06D1206832F0B7F9082898BF18F88D
:1045E00000A0524680212046FFF72EFF78B94A46A8
:1045F000012000213FF02AFDD4E9382322EA0000FF
:1046000023EA010150EA0103C4E93801D7D10123AB
:1046100084F87033BDE8F08794F87033002BE6D04F
:10462000012380212046FFF729FFDFE72C48040003
:1046300040470400014B1868FFF7A0BFC8150020D1
:1046400090F8C03010B5044633B1D0F8F4308B4246
:1046500004BF002380F8C0302046FFF747FFF8B9B9
:1046600094F8F81099B101230C222046FFF706FFB9
:10467000B0B994F8F03084F8F800042B07D0201D6E
:1046800005F0E1FF0123C4F8F40084F8C0302046AF
:1046900004F029F820B92046BDE81040FFF76EBFAE
:1046A00010BDFFF7CDBFF8B500F1780405462046F0
:1046B000069EBDF81C7006F097FC50B93A4631468C
:1046C000A86F06F067F920B92046BDE8F84006F06B
:1046D0006EBCF8BD2DE9F04F042B87B004460F46A1
:1046E000924602D0052B36D0FEE7014604A805F01D
:1046F0003BFD049E059D4FF0070905F0010B16B91F
:10470000BBF1000F3FD004F1A808404606F044FB7F
:104710000DF10A0203A9404606F0E6FA404606F00B
:1047200042FB002384F83C336810BBF1000F01D03A
:1047300023589E592044B047012384F83C33054652
:1047400090B1FFF7B3FC024639462046FFF778FEEA
:1047500007B0BDE8F08F014604A805F06FFD4FF0EB
:104760000809049E059DC8E7BDF80A300193039B24
:1047700000934A46534639462046FFF794FF0028E7
:10478000E6D02A46E0E70D22DEE708B50022FFF773
:1047900057FE08BD38B50446006807F07BF90021D4
:1047A000206807F0A8FE0021206807F081F9722236
:1047B00080212046FFF748FE054648B104F1E0009D
:1047C0007722002106F042FC04F1D40008F008FF33
:1047D000284638BD30B5C3B004460D46002301A9B4
:1047E000A830019306F063FA40B1FFF75FFC294659
:1047F00002462046FFF728FE43B030BD8DF8070182
:10480000FF2202A90198783406F0EEFC4FF46F53B2
:1048100006222946204606F0E7FB0028ECD102A933
:10482000204606F064FB0028E6D1204606F0BFFBD8
:10483000E2E710B50446006807F0F8FA0146A06FF9
:10484000BDE8104006F094B810B50446006807F0C3
:10485000CFF90146A06FBDE8104006F089B800000E
:1048600037B502A90023054641F8043DA83006F0FB
:10487000E6F9044690B99DF80410286807F0C3F9DA
:10488000044658B9286807F0D1FA38B195F83A3398
:1048900023B10449286807F0DAFA0446204603B039
:1048A00030BD00BF158B000010B50446006832F023
:1048B0009DF9002818BF0221A06F08BF0021BDE8A4
:1048C000104006F055B837B502A90023054601F897
:1048D000013DA83006F010F9044650B99DF80730A4
:1048E0001BB1022B08D8012100E00146286832F0F4
:1048F0007FF9204603B030BD0724FAE710B504461F
:1049000054F8780B07F0D5F901462046BDE8104071
:1049100006F056BA13B504460DF10601A83006F0AC
:1049200019F920B9BDF80610206807F0C6F902B0E1
:1049300010BD10B50446006807F0A0F90822014632
:10494000A06FBDE8104006F025B813B50822044654
:1049500001A9A83006F08AF918B90199206807F072
:1049600091F902B010BD10B5044654F8780B07F069
:10497000C7F901462046BDE8104006F021BA90F87C
:104980003A13806F05F0F4BF37B502A9002304463F
:1049900001F8013DA83006F0BFF8054678B9206857
:1049A00007F044FA38B19DF807305BB10749206839
:1049B00007F04DFA05469DF8073084F83A3328464B
:1049C00003B030BD206807F03AFAF3E7158B00001A
:1049D000F8B505460E4600240127202CE1B20BD085
:1049E00007FA04F3334201D10134F6E7A86F05F06A
:1049F000BFFF0028F8D0F8BD0020F8BD0023F7B5B0
:104A000005460C460B6000F1A8070126B5F8AE205C
:104A1000B5F8B0309A420FD00DF10701384606F0D4
:104A20006BF850B99DF807301F2B08DC226806FA96
:104A300003F313432360E9E7002003B0F0BD072030
:104A4000FBE7D0F8C810FFF7C3BF13B502A90023D6
:104A500041F8043D0446FFF7D1FF10B9019BC4F8AB
:104A6000C83002B010BDB0F8CC10783006F0A8B94C
:104A700000F1CC01A83006F06DB810B5044600680E
:104A800007F0D4F948B194F94133013312D002212F
:104A9000A06FBDE8104005F06BBF206807F09EF9DD
:104AA00050B9206807F0B4F90028F0D1206807F069
:104AB0006BFD18B90021EBE70121E9E70321E7E7E6
:104AC00010B586B006A90023044601F8013DA830C0
:104AD00006F012F840B99DF81730032B03D8DFE831
:104AE00003F047050F370C2006B010BDB4F8CC20FA
:104AF0000094224BD4F8C810206807F05BF9F3E764
:104B0000206807F093F9C8B194F94133013331D1EA
:104B1000D4F8C82082B3531E13402DD15208D9B205
:104B200003F1010008D184F84133B4F8CC20144BD0
:104B3000206807F0A0F9D7E70346EFE7B4F8CC20E8
:104B40000094104BD4F8C810206807F04DF9CBE75B
:104B50000A49019194F8CF10009194F8CE30B4F83E
:104B6000D0200294D4F8C810206807F0F9FCBBE705
:104B70000020B9E70D20B7E70720B5E7D38500008F
:104B8000998C0000378600002DE9F8430546E03097
:104B900006F05AFA114F814600244FF00C0805F137
:104BA0007806E2B24A4515DAD5E93A013FF042FA11
:104BB000002100F0010050EA010301D10134F0E7C7
:104BC00008FB04F33046D95906F056F90028F5D011
:104BD000BDE8F8830020BDE8F88300BF204804004A
:104BE000F7B500230022C0E93A23044600F1A807E4
:104BF00000F1E006B4F8AE20B4F8B0309A420BD021
:104C000001A9384606F01BF8054648B9012201996A
:104C1000304606F047FAEDE70025284603B0F0BD20
:104C2000012341F2080280212046FFF727FCF4E728
:104C300013B5044601A9A83006F001F828B90122ED
:104C4000019904F1E00006F02DFA02B010BD13B591
:104C5000044601A9A83005F0F2FF28B902460199DF
:104C600004F1E00006F01EFA02B010BDD0F8C41046
:104C7000783006F001B910B500F17804042120461F
:104C800006F0FAF828B920460321BDE8104006F0E6
:104C9000F3B810BD0321783006F0EEB8002178306B
:104CA00006F0EAB810B500F178040521204606F0B8
:104CB000E3F800285DD10C21204606F0DDF800283D
:104CC00057D11821204606F0D7F8002851D12021CD
:104CD000204606F0D1F800284BD140F201212046B1
:104CE00006F0CAF8002844D13521204606F0C4F861
:104CF000F8BB0E21204606F0BFF8D0BB4FF4007180
:104D0000204606F0B9F8A0BB4FF40171204606F02A
:104D1000B3F870BB40F20A21204606F0ADF840BB64
:104D20003021204606F0A8F818BB3121204606F0B5
:104D3000A3F8F0B94FF48061204606F09DF8C0B9A1
:104D400040F20341204606F097F890B940F2044142
:104D5000204606F091F860B940F20241204606F084
:104D60008BF830B9204640F20541BDE8104006F00E
:104D700083B810BD10B5044606F096FE014604F156
:104D80007800BDE8104006F0B2B80121806F05F050
:104D9000EFBD0021806F05F0EBBD2120704704219D
:104DA000806F05F0E5BD0C20704713B504466946D9
:104DB000006831F025FE08226946A06F05F0EAFD83
:104DC00002B010BD0221783006F02CB990F8F01036
:104DD000806F05F0CDBD000073B504460E46A830C7
:104DE0000DF1070105F088FEA0BB9DF80730042BEC
:104DF00007D8012202FA03F111F01B0F02D14B0771
:104E000003D4032384F8F03001E084F8F020002379
:104E100084F8F8300C22012331462046FFF72EFBA0
:104E200094F8F030042B054608D070B9201D05F029
:104E30000AFCC4F8F400012384F8C03015B184F8EA
:104E4000F8600025284602B070BD074B1B68C4F807
:104E5000F430F0E7FFF72AF9314602462046FFF723
:104E6000F3FA0546EEE700BF1C480400712A10B5AE
:104E70001C4616D003D80C2A0BD0002010BD41F2DE
:104E800010539A420AD0B2F56F5FF6D1FFF7A2FC39
:104E900001E0FFF7A1FF2070012010BD00F03CFEF3
:104EA000F9E704F01DF8F6E7F0B585B004460D46C5
:104EB0000026014602A817468DF8076004F0E6FEBA
:104EC0000398029B00F0010203B9C2B184F83C636D
:104ED00040100AB12258D3582044984701228DF837
:104EE000070084F83C23C8B93B4629462046FFF713
:104EF00053FA8DF807009DF8070005B0F0BD0DF1DD
:104F000007033A4629462046FFF7B0FF0028F2D1B2
:104F10000D2229462046FFF793FAEAE7FFF7C6F885
:104F20000246F6E773B50D4602A9002341F8043D99
:104F30000446A830164605F082FE014650B1FFF740
:104F4000B5F8294602462046FFF77AFA0146084698
:104F500002B070BDB31E032BF9D8DFE803F00209DD
:104F60000F0F019B002229462046FFF715FAEDE7B7
:104F7000019A29462046FFF797FFE7E73346019A53
:104F800029462046FFF7A6FBE0E737B504460D4665
:104F9000A83001A905F053FE70B9019A0B2A26D852
:104FA000DFE802F0060C11111111252525161B2032
:104FB00029462046FFF7E9FB03B030BD29462046CD
:104FC000FFF7E8FBF8E729462046FFF7ABFFF3E7DA
:104FD0002946204600F0FDFEEEE72946204600F077
:104FE000E4FEE9E72946204600F0EFFEE4E705226B
:104FF00029462046FFF724FADEE7F7B502AD012384
:10500000002700F1A806044680F83C3305F8017D2E
:10501000304605F066FD042384F8F03084F8C07053
:105020002946304605F068FD80B99DF807100B064B
:105030000CD5D4F8643311F0300F03F10103C4F838
:10504000643308D006222046FFF7FEF9002384F8D7
:105050003C3303B0F0BD2046FFF797FF38B19DF811
:105060000710FFF723F802462046FFF7E9F994F806
:10507000FA2294F8FB329A4202D02046FFF736FA21
:105080009DF8073094F8F92203F00F0332B19342F0
:105090001EBFD4F868230132C4F868230F2B14BF55
:1050A0000133012384F8F932D0E70000F8B5044653
:1050B000E03005F0C9FF0B4D074600267834F3B207
:1050C000BB420DDA15F8043C13B901360C35F6E78E
:1050D00055F80C1C204605F0CFFE0028F5D0F8BD91
:1050E0000020F8BD2C48040010B50446006831F0DB
:1050F00079FDC1B2A06FBDE8104005F039BC10B514
:105100000446006831F07CFFC1B2A06FBDE81040DA
:1051100005F02EBC13B504460DF10701006831F00F
:10512000C7FD30B99DF80710A06F05F021FC02B053
:1051300010BDFEF7BBFF014604F1780005F072FFD9
:10514000F5E713B502A90023044601F8013DA83094
:1051500005F0F4FC20B99DF90710206831F0B2FD8C
:1051600002B010BDFEE7FEE710B5044606F0E3FE10
:10517000FFF708F90146A06FBDE8104005F0F8BB45
:1051800007B502A9002301F8013DA83005F0B4FCE1
:1051900060B99DF80730072B15D8DFE803F012122D
:1051A000040A0A0C0E10012006F0C7FE03B05DF8D9
:1051B00004FB0220F8E70320F6E70420F4E70520CB
:1051C000F2E70020F0E70720F0E710B5044600689A
:1051D00006F03DFD01462046BDE81040FFF7F8BB54
:1051E00010B50446006812F0B7F901462046BDE844
:1051F0001040FFF7EDBB00001346074A10B4044609
:10520000106828B10A4621465DF8044BFFF77AB8CA
:105210000D205DF8044B7047C81500200822006877
:1052200005F0B8BBF8B50546087F0C46C0F3C003CF
:10523000C0F34001C0F3800200F0010000F04DFD1A
:1052400005F17807064621463846FFF7E7FF40BBE1
:10525000218A384605F0B4FD18BBA168384605F030
:10526000BEFDF0B9E168384605F0B9FDC8B9217D49
:10527000A86F05F07DFBA0B9617DA86F05F078FBF4
:1052800078B9A17DA86F05F073FB50B93146A86FBE
:1052900005F06EFB28B9E17DA86FBDE8F84005F088
:1052A00067BBF8BD70B505460C46002936D000F145
:1052B000780641F60D1306228021304605F094FE53
:1052C00060BB21463046FFF7A9FF38BB2189304635
:1052D00005F076FD10BBA17AA86F05F049FBE8B98F
:1052E000E17AA86F05F044FBC0B9217BA86F05F0F7
:1052F0003FFB98B9617BA86F05F03AFB70B9A17BC1
:10530000A86F05F035FB48B9E17BA86F05F030FBCD
:1053100020B93046BDE8704005F049BE70BD0B466F
:10532000014618B113B11846FFF7BCBF7047F8B576
:1053300000F1E00604460D4630465221174605F0BE
:10534000F5FE48BB3B7FDB0626D4C5B1012D23D13A
:10535000082204F1780552238021284605F044FEF6
:1053600078B10123304684F83D330B22002105F04B
:105370006DFE04F1D400BDE8F84008F031B9072211
:10538000E7E739462046FFF74DFF0028E9D12846D8
:1053900005F00DFE0028E4D1F8BD38B50D460446F1
:1053A000FEF790FF2A462146BDE83840FFF7BFBF11
:1053B00010B50446006807F013F90146A06FBDE878
:1053C000104005F0D5BA10B50446006807F013F890
:1053D0000146A06FBDE8104005F0CABAF0B504461A
:1053E00089B0064654F8780B07F0E2F80025074626
:1053F000E9B2B9421ADA6A46306807F044F908B1EE
:105400000135F5E79DF81C30DB06F9D4204605F0A0
:1054100086FD48B969463046FFF704FF20B92046AB
:1054200005F09CFD0028EBD009B0F0BD0020FBE7A3
:10543000F0B5054687B0044655F8780B07F040F9FB
:1054400000260746F1B2B9424DDC01AA206807F0F8
:1054500039F908B10136F5E79DF81430DB07F9D5C5
:10546000284605F05CFD00283BD101A92846FFF73E
:10547000D5FEB0BBBDF80C10284605F0A1FC80BBE2
:105480009DF80E10A06F05F073FA50BB9DF80F1039
:10549000A06F05F06DFA20BB9DF81010A06F05F00D
:1054A00067FAF0B99DF81110A06F05F061FAC0B964
:1054B0009DF81210A06F05F05BFA90B99DF81310DB
:1054C000A06F05F055FA60B99DF81410A06FC1F3F4
:1054D000400105F04DFA20B9284605F03FFD0028AF
:1054E000B8D007B0F0BD0020FBE72DE9F04304463B
:1054F0008FB00646002554F8780BADF8065007F03B
:1055000057F88146EFB24F4535DA06AA394630687A
:1055100007F0B9F808B10135F4E79DF83430DB063F
:10552000F9D4204605F0FBFCE0B906A92046FFF7B8
:1055300075FEB8B9BDF82810204605F041FC88B9C1
:105540000DF1380828F8320D02AB42463946306872
:1055500007F0A1F848B9102202A9B06F05F01AFAB5
:105560000028F1D00FB0BDE8F083204605F0F6FC2E
:105570000028D0D0F6E70020F4E710B50446006814
:1055800007F01FF80146A06FBDE8104005F0F0B924
:1055900037B505460DF10701A83005F0BDFA044600
:1055A00020B99DF80710286807F010F8204603B0CE
:1055B00030BD10B50446006807F094F8102201468B
:1055C000A06FBDE8104005F0E5B913B5002304460F
:1055D0000DF1020201A9A830019305F085FB38B94D
:1055E000BDF80230102B05D10199206807F07EF834
:1055F00002B010BD0620FBE710B50446006806F0B7
:10560000D7FF0146A06FBDE8104005F0B1B913B552
:1056100002A90023044601F8013DA83005F06CFA08
:1056200020B99DF80710206806F0C6FF02B010BD33
:1056300010B50446006806F0EDFF0146A06FBDE816
:10564000104005F095B937B502A90023054601F8C9
:10565000013DA83005F050FA044620B99DF8071026
:10566000286806F0DBFF204603B030BD10B50446C5
:10567000006806F0F7FF0146A06FBDE8104005F096
:1056800077B937B502A90023054601F8013DA830D6
:1056900005F032FA044620B99DF80710286806F094
:1056A000E5FF204603B030BD10B50446006806F0A3
:1056B000E1FF0146A06FBDE8104005F059B937B5CC
:1056C00002A90023054601F8013DA83005F014FAAF
:1056D000044620B99DF80710286806F0CFFF204641
:1056E00003B030BD10B5044654F8780B06F080FFC7
:1056F00001462046BDE8104005F071BB37B502A950
:105700000023054641F8043DA83005F037FA044669
:1057100018B90199286806F070FF204603B030BD23
:1057200010B50446006806F06DFF0146A06FBDE8A5
:10573000104005F01DB937B502A90023054601F850
:10574000013DA83005F0D8F9044620B99DF80710AE
:10575000286806F05BFF204603B030BD10B5044654
:10576000006806F030F9012808D002280CBF022199
:105770000021A06FBDE8104005F0FAB80146F8E737
:1057800013B504460DF10701A83005F0B5F948B985
:105790009DF807301BB1022B06D0072002E02068DD
:1057A00006F0C3F802B010BD206806F0AEF8F9E7C5
:1057B00030B500F1A80485B00546204605F0B4FADE
:1057C00058B9B5F8AE20B5F8B0309A4207D00822E3
:1057D00001A9204605F04AFA10B105B030BD01908C
:1057E000204605F0C1FA0028F7D102A9204605F0AD
:1057F000C5F90028F1D103A9204605F058FA002880
:10580000EBD1029B039A0199286806F09EF8E4E721
:1058100037B500F1A8050446284605F085FA58B9C1
:10582000B4F8AE20B4F8B0309A4207D0082201A9EB
:10583000284605F01BFA10B103B030BD0190284690
:1058400005F092FA0028F7D10199206806F082F855
:10585000F2E713B502A9002321F8023D04460068CF
:1058600006F083F8014628B90021A06F05F080F802
:1058700002B010BDBDF80620002AF5D0A06F05F0DB
:1058800089F80028F0D0F3E713B5044601A9A83041
:1058900005F00DFA18B90199206806F061F802B018
:1058A00010BD10B5044654F8780B06F087F8014691
:1058B0002046BDE8104005F083BA30B500F1A804D9
:1058C00087B0054604A9204605F058F9D8B90DF16E
:1058D0000D01204605F010F9A8B90DF10E01204682
:1058E00005F038F978B9102205A9204605F0BEF96F
:1058F00048B905990091BDF80E309DF80D20049926
:10590000286806F03AF807B030BD000030B500F165
:10591000A80489B0054606A9204605F02FF930BB3A
:105920000DF11301204605F0E7F800BB05A920465C
:1059300005F010F9D8B90DF11601204605F00AF965
:10594000A8B9102207A9204605F090F978B90949AD
:10595000029107990191BDF816100091BDF814301D
:105960009DF8132003950699286806F00BF809B0F6
:1059700030BD00BFD95900002DE9F04100F1780495
:105980000546884616461F46072241F60203802137
:10599000204605F029FB58B105F1E0000B2200215B
:1059A00005F054FB05F1D400BDE8F04107F018BE46
:1059B0004146204605F013FA0028EDD13A4631461B
:1059C000204605F084FA0028E6D1204605F0EFFADB
:1059D0000028E1D1BDE8F08110B41C4613460A4608
:1059E000014620465DF8044BFFF7C6BF30B500F115
:1059F000A80587B004460DF10E01284605F0AAF867
:105A0000A0B904A9284605F0B9F878B9102205A96B
:105A1000284605F02BF948B9054B0093BDF80E1048
:105A20000194059B049A206805F0B6FF07B030BDCD
:105A30008D5A0000F8B500F1780405460F46164669
:105A400041F6040307228021204605F0CDFA58B123
:105A500005F1E0000B22002105F0F8FA05F1D40071
:105A6000BDE8F84007F0BCBD3946204605F0A8F96E
:105A70000028EDD13146204605F0B1F90028E7D1E4
:105A8000204605F094FA0028E2D1F8BD13460A46F4
:105A900001461846FFF7CEBF13B504460DF10202CA
:105AA00001A9A83005F02BF940B9BDF80220FF2A62
:105AB00006DCD2B20199206805F076FF02B010BD75
:105AC0000720FBE730B58BB004460DF1060202A9B2
:105AD000A83005F014F970B9BDF80650FF2D0CDCA4
